:020000040800F2
:10000000889500207103000895A30008D198000886
:1000100091A30008A50A00080DB90008000000001F
:10002000000000000000000000000000B102000815
:10003000D1190008000000000D030008EBA800081B
:100040008B0300088B0300088B0300088B03000858
:100050008B0300088B0300088B0300088B03000848
:100060008B0300088B0300088B0300085113000862
:100070006113000871130008811300089113000830
:10008000A1130008B11300088B030008151A00081B
:10009000911A00088B0300088B0300088B030008EB
:1000A0008B0300088B0300088B0300088B030008F8
:1000B0008B0300088B0300088B0300088B030008E8
:1000C0008B0300088B0300088B0300088B030008D8
:1000D0008B030008EDB800088B030008FDB800088A
:1000E0008B0300088B030008000000008B0300084E
:1000F0008B0300088B0300088B030008C113000862
:100100008B0300088B0300088B0300088B03000897
:100110007DAD00088B03000835AB00088B03000899
:100120008B0300088B0300088B0300088B03000877
:100130008B0300088B0300088B0300088B03000867
:1001400000000000000000000000000000000000AF
:100150008B0300088B0300088B0300088B03000847
:100160008B0300088B0300088B0300088B03000837
:100170008B0300088B0300088B03000800000000BD
:100180008B0300088B0300088B0300088B03000817
:1001900059A700088B03000869A700088B03000813
:1001A0008B0300088B0300088B0300088B030008F7
:1001B0008B0300088B0300088B0300088B030008E7
:1001C0008B0300088B0300088B0300088B030008D7
:1001D0008B0300088B0300088B0300088B030008C7
:1001E0008B0300088B0300088B0300088B030008B7
:1001F0008B0300088B0300088B0300088B030008A7
:100200008B0300088B0300088B0300088B03000896
:100210008B0300088B0300088B0300088B03000886
:100220008B0300088B0300088B030008000000000C
:100230008B0300088B030008000000008B030008FC
:100240008B030008850A0008950A00088B03000844
:100250008B0300088B0300088B0300088B03000846
:100260008B0300088B0300088B0300088B03000836
:100270008B0300088B0300088B03000800000000BC
:100280008B0300088B0300088B03000800000000AC
:10029000000000008B030008DFF810D000F0BEFA69
:1002A0000048004739C20008AFF30080889500205D
:1002B0002C4B19680868B0E8F04F80F30988BFF349
:1002C0006F8F4FF0000080F311887047000000002E
:1002D00008480068006880F308884FF0000080F349
:1002E000148862B661B6BFF34F8FBFF36F8F00DF24
:1002F00000BF00BF08ED00E0DFF80C00016841F42A
:1003000070010160704700BF88ED00E0EFF30980E5
:10031000BFF36F8F134B1A681EF0100F08BF20ED4C
:10032000108A20E9F04F106009B44FF0500080F3BC
:100330001188BFF34F8FBFF36F8F0DF09FFA4FF00F
:10034000000080F3118809BC19680868B0E8F04F14
:100350001EF0100F08BFB0EC108A80F30988BFF3BD
:100360006F8F704798000020EFF305807047000002
:100370000648804706480047FEE7FEE7FEE7FEE73F
:10038000FEE7FEE7FEE7FEE7FEE7FEE739AA000824
:10039000990200082DE9F05F0546002092469B4631
:1003A00088460646814640241BE02846414647468B
:1003B000224600F06BF853465A46C01A914110D3BA
:1003C00011461846224600F052F82D1A67EB010834
:1003D0004F4622460120002100F049F817EB0009A2
:1003E0004E41201EA4F10104DFDC484631462A4676
:1003F0004346BDE8F09F10B540EA01040346A40758
:1004000003D009E010C9121F10C3042AFAD203E076
:1004100011F8014B03F8014B521EF9D210BDD2B2B4
:1004200001E000F8012B491EFBD270470022F6E7DD
:1004300010B513460A4604461946FFF7F0FF20465A
:1004400010BD30B50B46014600202022012409E0F2
:1004500021FA02F59D4205D303FA02F5491B04FA7D
:1004600002F52844151EA2F10102F1DC30BD202A5C
:1004700004DB203A00FA02F1002070479140C2F1FB
:10048000200320FA03F3194390407047202A04DB2D
:10049000203A21FA02F00021704721FA02F3D040FD
:1004A000C2F1200291400843194670472DE9FE4FE2
:1004B000804681EA0300C00F0C46009021F0004105
:1004C00023F00045B8EB0200A94105D24046214681
:1004D00090461C460B46024623F00040104347D08E
:1004E000270DC7F30A00C3F30A510290401A019086
:1004F00040286BDAC3F3130040F4801B0098924647
:1005000020B10023D2EB030A63EB0B0B0198594691
:10051000C0F140025046FFF7AAFF06460D4650467E
:100520005946019A00F08CF910EB08006141002453
:1005300087EA115284EAE7731A4340D0009A62B303
:10054000019A012A4FEA075215DC001B61EB0201F8
:100550004FF0004202EA0752CDE90042001C41F58B
:10056000801132462B4600F08CF903B0BDE8F08FC5
:1005700040462146F9E7001B61EB0201001C41F5F2
:10058000801300185B412018A2F5001747EB030108
:1005900040EAD570B6196D4111E06D084FEA360694
:1005A00045EAC0754FEA0752001B61EB0201001CCF
:1005B00041F5801149084FEA300000195141324697
:1005C0002B4603B0BDE8F04F00F04CB90098012273
:1005D00040000023D0EB020263EBE0730098214659
:1005E0004FEAE074B8EB000061EB0401E9E783F047
:1005F00000435BE781F0004158E72DE9FE4F81EAB7
:10060000030404F0004421F0004100944FF0000B7B
:1006100023F0004350EA01045ED052EA03045BD0A9
:10062000C3F30A54C1F30A552C44A4F2F3340194E1
:10063000A0FB0254C1F3130141F48011C3F313036F
:1006400043F4801301FB024400FB034E840A970A23
:1006500044EA815447EA8357A4FB076802958D0A50
:1006600005FB07854FEA932C04FB0C542705029DDC
:100670004FEA065847EA1637B5EB08056EEB070C4C
:10068000870E920E47EA811742EA8312A7FB020106
:10069000B6EB0B0164EB00042B0D43EA0C335E1840
:1006A00044EB1C50DA465146E7FB0201C5F3130444
:1006B0004FEA0B3343EA14534FEA0432019C43EAF6
:1006C0000603A4F10C040294009CCDE900B400F0F0
:1006D000D8F803B0BDE8F08F00200146F9E72DE916
:1006E000F04D81EA030404F0004B21F0004514466C
:1006F0004FF0000A23F0004150EA050220D054EAEE
:1007000001021DD0C5F30A570246C5F31303C1F316
:100710001300C1F30A5640F4801543F48013A7EB8D
:100720000608101BD64608F2FD3873EB050002D30D
:1007300008F1010801E092185B41B8F1000F03DAFB
:1007400000200146BDE8F08D00204FF480110646E0
:1007500084460EE0171B73EB050705D3121B63EBF2
:10076000050306434CEA010C49084FEA3000921891
:100770005B4150EA0107EDD152EA030012D082EA50
:10078000040083EA0501084305D0101BAB4106D2E3
:100790000122002306E000224FF0004302E06FF048
:1007A000010253101AEB06004CEB085110EB0A0043
:1007B00041EB0B01BDE8F04D00F054B8C1F30A5213
:1007C000C1F3130140F2FF3341F480119A4202DA7F
:1007D00000200146704740F233439A42A2F233426E
:1007E00002DC5242FFF752BEFFF741BE30B5041E95
:1007F00071F1000404DB4FF00044404264EB01015E
:10080000141E73F1000405DB1C464FF000435242F6
:1008100063EB0403994208BF904230BD064C074D7C
:1008200006E0E06840F0010394E8070098471034C0
:10083000AC42F6D3FFF734FD68F0000898F00008EA
:10084000202A06DBCB17203A41FA02F043EAE07394
:1008500006E041FA02F3D040C2F120029140084381
:100860001946704710B5141E73F1000408DA401CD5
:1008700041F1000192185B411A4301D120F00100BF
:1008800010BD2DE9F04D92469B4611B1B1FA81F2AF
:1008900002E0B0FA80F220329046FFF7E8FD04460D
:1008A0000F4640EA0A0041EA0B0153465A46084304
:1008B00013D0114653EA010019D0C8F14002504646
:1008C000FFF7E4FD05460E46504659464246FFF7FF
:1008D000CEFD084305D0012004E020463946BDE89E
:1008E000F08D0020054346EAE0762C4337430A9812
:1008F0006305E40AA0EB08000022FD0A44EA47541D
:100900000A3002D500200146E9E7010510196941C6
:10091000DDE9084500196941BDE8F04DA2E7000096
:1009200070B504464F492068884203D04E4920687C
:10093000884208D14D48006800F4403008B10120D9
:1009400009E0002007E04A48006800F4403008B1A0
:10095000012000E00020B8B106F058FE05466068AE
:10096000B0F5803F06D0B0F5003F04D0B0F5403F71
:1009700008D105E000BF6068000CB5FBF0F502E0AF
:10098000AD0800E000BF2BE04FF40020002105F08F
:100990006BF905466068C0F31101F9B980140C28A1
:1009A0001CD2DFE800F01B060708090A0B1113151B
:1009B000171900BF00BF00BF00BF00BF6068800CF8
:1009C0004000B5FBF0F50AE02D0908E06D0906E0EE
:1009D000AD0904E0ED0902E02D0A00E000BF00BF10
:1009E00004F088FC41F20301884210D82148854276
:1009F00006D92068806840F48070216888602FE004
:100A00002068806820F480702168886028E06D0884
:100A10001948854206D82068806820F44070216813
:100A200088601DE01548854208D82068806820F459
:100A3000407040F480702168886011E01048854261
:100A400008D82068806820F4407040F40070216865
:100A5000886005E02068806840F440702168886004
:100A600070BD000000200240002102400823024027
:100A700008630258002D3101105E5F0020BCBE00EB
:100A800040787D0110B5024802F0C8FA10BD0000A0
:100A9000581E002010B5024802F0C0FA10BD000038
:100AA000D01E002000BFFEE70A7902B9704700BFE0
:100AB000FCE70000582112A00AF02AFF582117A0D5
:100AC0000AF026FF45F654011AA00AF021FF45F668
:100AD000040120A00AF01CFF10E04FF0FF330022B9
:100AE0000121244800680BF037FC044604F00100A3
:100AF00018B1214921A00AF00BFF00BFEDE700006B
:100B00006D6F646275735F6E6F64655F617474723C
:100B10005F74203A2025640D0A00000043414E5FB7
:100B20006E6F64655F617474725F74203A2025642F
:100B30000D0A000050726F746F636F6C436F6E76B6
:100B40006572745F6D6F646275735F74203A2025FF
:100B5000640D0A0050726F746F636F6C436F6E7632
:100B60006572745F43414E5F74203A2025640D0A1C
:100B7000000000004000002074EE000825730D0AFC
:100B80000000000010E04FF0FF3300220121074871
:100B900000680BF0E1FB044604F0010018B10449C1
:100BA00004A00AF0B5FE00BFEDE7000044000020FD
:100BB00083EE000825730D0A0000000010E04FF0DE
:100BC000FF3300220121074800680BF0C5FB0446F3
:100BD00004F0010018B1044904A00AF099FE00BF16
:100BE000EDE700004800002092EE000825730D0A92
:100BF0000000000010B515E00F4890F841060E4ABD
:100C000002EB0011012000F023F90B4890F8410697
:100C1000401CC0B2084981F84106642802DB00206C
:100C200081F84106044890F84106034991F84016BE
:100C30008842E1D110BD0000C407002010B519E0C2
:100C4000114991F84116104A02EB011000F0EAFE3A
:100C500018B10EA00AF05CFE14E00B4890F84106B3
:100C6000401CC0B2084981F84106642802DB00201C
:100C700081F84106044890F84106034991F840166E
:100C80008842DDD100BF10BD8001002046444341B1
:100C90004E315F53656E645F4D7367206572726F8E
:100CA000720A000017E04FF0FF33002203210A48C8
:100CB00000680BF051FB044604F0020008B1FFF796
:100CC00099FF04F0010018B1044905A00AF020FEC4
:100CD000FFF7B4FF00BFE6E74C000020A1EE0008DC
:100CE00025730D0A0000000010B515E00F4890F8BC
:100CF00041060E4A02EB0011022000F0A9F80B4851
:100D000090F84106401CC0B2084981F841066428A9
:100D100002DB002081F84106044890F841060349AF
:100D200091F840168842E1D110BD00004C1400201B
:100D300010B51BE0124991F84116114A02EB01105F
:100D400000F0AEFE18B10FA00AF0E2FD16E00C486C
:100D500090F84106401C0A4981F84106084690F87F
:100D60004106642802DB002081F84106044890F81F
:100D70004106034991F840168842DBD100BF10BDFF
:100D8000080E0020464443414E325F53656E645F57
:100D90004D7367206572726F720A000017E04FF0A2
:100DA000FF33002203210A4800680BF0D5FA0446FD
:100DB00004F0020008B1FFF797FF04F0010018B13A
:100DC000044905A00AF0A4FDFFF7B2FF00BFE6E763
:100DD00050000020B0EE000825730D0A000000004E
:100DE00010E04FF0FF3300220121074800680BF0AC
:100DF000B3FA044604F0010018B1044904A00AF053
:100E000087FD00BFEDE7000054000020BFEE0008A2
:100E100025730D0A0000000009E04FF0FF330022A7
:100E20000121034800680BF097FA044600BFF4E77D
:100E30005800002009E04FF0FF3300220121034851
:100E400000680BF089FA044600BFF4E75C0000205C
:100E50002DE9F04781468846484601F027F80446C8
:100E60000CB9BDE8F08700253EE005EB8502611D69
:100E7000885C01F02BF8064606B933E000272CE029
:100E800005EB8503621D9918D8F80000FFF70CFEEA
:100E900007EB470101EBC702311D01EBC2014968B5
:100EA000884218D105EB8503621D1A44517805EB81
:100EB0008503621DD05C00F093FF824607EB47007C
:100EC00000EBC701301D00EBC10208F105015046DF
:100ED00000F010F804E0781C87B23088B842CFDC0C
:100EE00000BF00BF681CC5B22079A842BDDC00BFAE
:100EF000B7E70000F0B506460D4614469FEDFB0B24
:100F0000B0EE402BE07813287ED2DFE800F00A2113
:100F100039526983A5C7F4F2F1F0EFEEEDECEBEA9C
:100F2000E900A27A617A237AE85C00F04FFF00EED4
:100F3000100AD4ED040AB7EEE01AD4ED030AB7EEB6
:100F4000E03AB8EE404B04EE031BB0EE412BD9E182
:100F5000207A401C285C217A695C40EA012000EE7E
:100F6000100AD4ED040AB7EEE01AD4ED030AB7EE86
:100F7000E03AB8EE404B04EE031BB0EE412BC1E16A
:100F8000207A401C285C217A695C40EA012000B28A
:100F900000EE100AD4ED040AB7EEE01AD4ED030A0D
:100FA000B7EEE03AB8EEC04B04EE031BB0EE412BB7
:100FB000A8E1207A295C401C285C41EA002000EE70
:100FC000100AD4ED040AB7EEE01AD4ED030AB7EE26
:100FD000E03AB8EE404B04EE031BB0EE412B91E13A
:100FE000207A295C401C285C41EA002000B200EE17
:100FF000100AD4ED040AB7EEE01AD4ED030AB7EEF6
:10100000E03AB8EEC04B00E07BE104EE031BB0EE2B
:10101000412B77E1207A285C0106207A401C285C6D
:1010200041EA0041207A801C285C41EA0020217AB4
:10103000C91C695C084300EE100AD4ED040AB7EE3F
:10104000E01AD4ED030AB7EEE03AB8EE404B04EEF6
:10105000031BB0EE412B55E1207A285C0106207A73
:10106000401C285C41EA0041207A801C285C41EA4F
:101070000020217AC91C695C084300EE100AD4EDF7
:10108000040AB7EEE01AD4ED030AB7EEE03AB8EE80
:10109000C04B04EE031BB0EE412B33E1207A401C21
:1010A000285C0006217A695C40EA0141207AC01C74
:1010B000285C41EA0020217A891C695C084300EE23
:1010C000100AD4ED040AB7EEE01AD4ED030AB7EE25
:1010D000E03AB8EE404B04EE031BB0EE412B11E1B9
:1010E000DEE0B6E0B4E0B2E0B0E0AEE08BE068E0B5
:1010F00045E022E0FFE7207A401C285C0006217AC8
:10110000695C40EA0141207AC01C285C41EA002069
:10111000217A891C695C084300EE100AD4ED040AA8
:10112000B7EEE01AD4ED030AB7EEE03AB8EEC04BE2
:1011300004EE031BB0EE412BE4E0207A801C285C17
:101140000106207AC01C285C41EA0040217A695CD3
:1011500040EA0120217A491C695C084300EE100A2C
:10116000D4ED040AB7EEE01AD4ED030AB7EEE03A84
:10117000B8EE404B04EE031BB0EE412BC2E0207AE8
:10118000801C285C0106207AC01C285C41EA0040D3
:10119000217A695C40EA0120217A491C695C084394
:1011A00000EE100AD4ED040AB7EEE01AD4ED030AFB
:1011B000B7EEE03AB8EEC04B04EE031BB0EE412BA5
:1011C000A0E0207AC01C285C0106207A801C285CE4
:1011D00041EA0041207A401C285C41EA0020217A43
:1011E000695C084300EE100AD4ED040AB7EEE01A79
:1011F000D4ED030AB7EEE03AB8EE404B04EE031B21
:10120000B0EE412B7EE0207AC01C285C0106207ADB
:10121000801C285C41EA0041207A401C285C41EA9D
:101220000020217A695C084300EE100AD4ED040A1C
:10123000B7EEE01AD4ED030AB7EEE03AB8EEC04BD1
:1012400004EE031BB0EE412B5CE05BE05AE059E09A
:1012500058E0207A295C00201DE004F1160232F8E3
:1012600020208A4215D194ED040AB7EEC01A04F189
:10127000160202EB8002528800EE102AB8EE403BC4
:1012800094ED030AB7EEC00A03EE001BB0EE412B4B
:1012900004E0421C90B2A28A8242DEDC00BF31E050
:1012A000A27A617A237AE85C00F090FD074600207C
:1012B00022E004F1160131F82010B9421AD194ED60
:1012C000040AB7EEC01A04F1160101EB8001498847
:1012D00000EE101AB8EE403B94ED030AB7EEC00AD8
:1012E00003EE001BB0EE412B09E0000000000000FF
:1012F00000000000411C88B2A18A8142D9DC00BFF5
:1013000000E000BF00BFA178228806EB4200B0EEEB
:10131000420B00F013FBF0BD10E04FF0FF33002252
:101320000121074800680BF017F8044604F001009B
:1013300018B1044904A00AF0EBFA00BFEDE7000081
:10134000600000206CEE000825730D0A000000000C
:1013500010B5024801F062FE10BD0000983900206F
:1013600010B5024801F05AFE10BD0000103A0020EE
:1013700010B5024801F052FE10BD0000883A00206E
:1013800010B5024801F04AFE10BD0000003B0020ED
:1013900010B5024801F042FE10BD0000783B00206D
:1013A00010B5024801F03AFE10BD0000F03B0020ED
:1013B00010B5024801F032FE10BD0000681D00208B
:1013C00010B5024801F02AFE10BD0000E01D00200B
:1013D0000146374A0868904249D0354A18320868B1
:1013E000904244D0324A3032086890423FD0304A6E
:1013F0004832086890423AD02D4A603208689042DC
:1014000035D02B4A78320868904230D0284A903242
:10141000086890422BD0264AA8320868904226D00D
:10142000244A0868904222D0224A18320868904222
:101430001DD0204A30320868904218D01D4A4832E8
:101440000868904213D01B4A6032086890420ED060
:10145000184A78320868904209D0164A90320868D3
:10146000904204D0134AA8320868904201D101206A
:1014700000E00020B0B10A78103A1823B2FBF3F074
:1014800000F007020C4B9A5CCA65032805D90A686C
:101490006FF30902121D8A6503E00A686FF30902FF
:1014A0008A6503E0086820F0FF008865886D704752
:1014B0001000024010040240D0ED000810B5026890
:1014C0002B4C0368A34222D0294C14340368A34256
:1014D0001DD0274C28340368A34218D0244C3C3438
:1014E0000368A34213D0224C50340368A3420ED0A9
:1014F0001F4C64340368A34209D01D4C7834036840
:10150000A34204D01A4C8C340368A34201D10123B6
:1015100000E000238BB10378083B1424B3FBF4F103
:10152000144B03EB81030366124B8033436601F0D7
:101530001F040123A340836618E00378103B18249E
:10154000B3FBF4F10C4B9A4204D80B4BA83B9A42E4
:1015500000D30831094B03EB81030366074B80334B
:10156000436601F01F040123A340836610BD000001
:101570000854025800580258B804024000080240BB
:101580000179A9B3082940D8204B02689A4222D099
:101590001E4B143302689A421DD01C4B283302683C
:1015A0009A4218D0194B3C3302689A4213D0174B19
:1015B000503302689A420ED0144B643302689A4248
:1015C00009D0124B783302689A4204D00F4B8C3307
:1015D00002689A4201D1012200E000224AB14A1E6B
:1015E0000B4B03EB8202C266094A4032026708E0F5
:1015F0000BE04A1E074B03EB8202C266054A4032EB
:1016000002674A1E012393404367704708540258FB
:101610000059025800090240014600208A69D2B9E7
:101620008A6A32B1012A0DD0022A03D0032A10D1CE
:101630000EE000BFCA6A02F08072B2F1807F00D172
:10164000012007E0CA6AB2F1C07F00D1012001E0A9
:1016500000E000BF36E08A69B2F5005F1BD18A6AFC
:1016600032B1012A07D0022A03D0032A11D10AE09D
:1016700000BF01200EE0CA6A02F08072B2F1807FE2
:1016800000D1012006E0CA6AB2F1C07F00D101207A
:1016900000E000BF16E08A6A32B1012A05D0022AB2
:1016A00004D0032A0CD103E000BF00BF012008E0F2
:1016B000CA6A02F08072B2F1807F00D1012000E09E
:1016C00000BF00BF70470000F0B5856D846D984F76
:1016D0000668BE4270D0964F18370668BE426BD07F
:1016E000934F30370668BE4266D0914F4837066840
:1016F000BE4261D08E4F60370668BE425CD08C4FD0
:1017000078370668BE4257D0894F90370668BE4288
:1017100052D0874FA8370668BE424DD0854F066825
:10172000BE4249D0834F18370668BE4244D0814F2D
:1017300030370668BE423FD07E4F48370668BE420B
:101740003AD07C4F60370668BE4235D0794F783743
:101750000668BE4230D0774F90370668BE422BD025
:10176000744FA8370668BE4226D0734F0668BE4243
:1017700022D0714F14370668BE421DD06E4F2837F5
:101780000668BE4218D06C4F3C370668BE4213D084
:10179000694F50370668BE420ED0674F64370668FF
:1017A000BE4209D0644F78370668BE4204D0624F0B
:1017B0008C370668BE4201D1012600E000263EB10A
:1017C000D0E919767E60C66E16B1D0E91C767E60CF
:1017D000574F0668BE4249D0554F18370668BE427B
:1017E00044D0534F30370668BE423FD0504F483741
:1017F0000668BE423AD04E4F60370668BE4235D0CA
:101800004B4F78370668BE4230D0494F9037066854
:10181000BE422BD0464FA8370668BE4226D0454F61
:101820000668BE4222D0434F18370668BE421DD01C
:10183000404F30370668BE4218D03E4F48370668E2
:10184000BE4213D03B4F60370668BE420ED0394FC0
:1018500078370668BE4209D0364F90370668BE42D8
:1018600004D0344FA8370668BE4201D1012600E0FB
:101870000026DEB190F85C6006F01F073F26BE40F0
:10188000AE600668366826F4802607683E60066803
:1018900073608668402E04D10668B2600668F16005
:1018A00044E00668B1600668F2603FE0224F0668D7
:1018B000BE4222D0204F14370668BE421DD01E4FB4
:1018C00028370668BE4218D01B4F3C370668BE4218
:1018D00013D0194F50370668BE420ED0164F6437EA
:1018E0000668BE4209D0144F78370668BE4204D05D
:1018F000114F8C370668BE4201D1012600E0002658
:10190000A6B190F85C6006F01F070126BE40666035
:10191000066873608668402E04D10668B260066867
:10192000F16003E00668B1600668F260F0BD000097
:1019300010000240100402400854025810B531B1A2
:1019400001290FD0022918D003293ED129E0BCEE8D
:10195000C01B11EE103A9AB2002303800388134390
:10196000038033E0BDEEC01B11EE103A1AB2002323
:10197000038003881343038028E0BCEEC01B11EEF4
:10198000102A0023038003884FF6FF7404EA1244F0
:101990002343038000234380438894B2234343803E
:1019A00014E0BDEEC01B11EE102A00230380038853
:1019B0004FF6FF7404EA224423430380002343804C
:1019C000438894B22343438000E000BF00BF10BDB2
:1019D000704772B600BFFEE700B589B04FF0804097
:1019E000019000200290022003900120049000202A
:1019F0000590069001A9064802F0A9FD01A9044836
:101A000002F0A5FD08B1FFF7E4FF09B000BD00003A
:101A1000901A002010B5024802F0FAFE10BD000036
:101A2000901A002010B58AB00446206801904FF04B
:101A30008040029000200390207908F04DFE049031
:101A4000002005900690079008900990621D01A95A
:101A5000024802F033FD0AB010BD0000901A0020C9
:101A600000B589B04FF08040019000200290022024
:101A70000390049000200590069001A9034802F00D
:101A800066FD08B1FFF7A5FF09B000BD301B0020BF
:101A900010B5024802F0BCFE10BD0000301B002053
:101AA00010B58AB00446206801904FF08040029043
:101AB00000200390207908F00FFE0490002005908C
:101AC0000690079008900990621D01A9024802F053
:101AD000F5FC0AB010BD0000301B002010B5014617
:101AE0004A6B0868D0F884004FF6FC74A04340EAC3
:101AF00082000C68C4F884000868D0F8840020F4E0
:101B00007F04088F44EA00400C68C4F88400886BA6
:101B100002440868D0F888004FF6FC74A04340EAFD
:101B200082000C68C4F888000868D0F8880020F4A7
:101B3000FE04888F44EA00400C68C4F88800C86B33
:101B400002EB40020868D0F8A0004FF6FC74A043F6
:101B500040EA82000C68C4F8A0000868D0F8A00031
:101B600020F4FE044020405A44EA00400C68C4F8C7
:101B7000A000D1E9104004FB00220868D0F8B000B2
:101B80004FF6FC74A04340EA82000C68C4F8B00031
:101B90000868D0F8B00020F4FE04B1F8480044EA28
:101BA00000400C68C4F8B000D1E9124004FB0022E8
:101BB0000868D0F8AC004FF6FC74A04340EA8200FD
:101BC0000C68C4F8AC00D1E9144004FB002208689A
:101BD000D0F8F0004FF6FC74A04340EA82000C6895
:101BE000C4F8F0000868D0F8F00020F47C14B1F8D4
:101BF000580044EA00400C68C4F8F000886D02EB1D
:101C000040020868D0F8C0004FF6FC74A04340EAD8
:101C100082000C68C4F8C0000868D0F8C00020F446
:101C20007C14B1F85C0044EA00400C68C4F8C000C1
:101C30000868D0F8C00020F07C5491F8600044EAB5
:101C400000600C68C4F8C0002A4C486B04EB8000AC
:101C5000C866CC6E886B04EB80040C670C6FC86B95
:101C600004EBC0044C67D1E9100460434C6F04EBF3
:101C700080048C67D1E9120460438C6F04EB80040C
:101C8000CC67D1E914046043CC6F04EB800480205E
:101C900044504458886D04EBC004842044508C6E3A
:101CA000C86D60438424645804EB80048820445049
:101CB0008C6E086E60438824645804EB8004902086
:101CC000445040580C4CA04209D99831486840F023
:101CD00020004860032001F89809012010BDCB6E58
:101CE00002E0002018601B1D902040589842F8D850
:101CF0000020F3E700AC0040FCD300402DE9F041A8
:101D0000054614461E46D1F804C0BCF1000F0AD1A6
:101D1000D1F810C0D1F808804CEA080CB1F8008066
:101D20004CEA88430BE0D1F810C04CF0804CD1F85D
:101D300008804CEA080CD1F800804CEA080391F8BE
:101D40002080D1F81CC04CEA086CD1F818804CEA0D
:101D5000080CD1F814804CEA080CB1F80C804CEA5D
:101D60000847D5F868C00CFB06FCD5F8848008EB62
:101D70008C021360121D1760121D002019E000F183
:101D8000030C14F80CC04FEA0C6800F1020C14F8B4
:101D90000CC048EA0C4800F1010C14F80CC048EAE9
:101DA0000C2C14F800804CEA080CC2F800C0121D7C
:101DB000001DDFF81480D1F80CC018F80CC0844561
:101DC000DDD8BDE8F0810000D8ED0008C1F10703BF
:101DD00000FA03F3D8B2C1F1070313441841704766
:101DE000024609B900207047082A4DD2DFE802F008
:101DF000040D161F28313A43022901DD0020F2E7C5
:101E0000481E224B03EBC020EDE7012901DD002035
:101E1000E9E7481E1E4B03EBC020E4E7022901DD81
:101E20000020E0E7481E1B4B03EBC020DBE7022944
:101E300001DD0020D7E7481E174B03EBC020D2E797
:101E4000012901DD0020CEE7481E144B03EBC02022
:101E5000C9E7022901DD0020C5E7481E104B03EB4E
:101E6000C020C0E7012901DD0020BCE7481E0D4B62
:101E700003EBC020B7E7012901DD0020B3E7481ECE
:101E8000094B03EBC020AEE70020ACE79828012403
:101E90009838012498400124985001249860012426
:101EA000986801249878012498800124014609B19A
:101EB000032901DD00207047481E00EB8000024A24
:101EC00002EB8000F7E70000480C072401460829D0
:101ED00001DB0020704741F201604843014A02EBF8
:101EE0008000F7E7384B04242DE9F84F04460D46EF
:101EF0004FF0000A0020009094F83800012800D12B
:101F000000E000BFFA49E868884200D00EE0F949D5
:101F10002068884200D100BFF7492068884200D17C
:101F200000BFF6492068884200D100BF00BF94F886
:101F30005000012802D10220BDE8F88F012084F86A
:101F4000500000BF206807F0E4FC00287ED128681C
:101F500000F00040A8B92068C1692868C0F31300E8
:101F600018B92868C0F3846004E0286890FAA0F0EB
:101F7000B0FA80F000F01F02012090400143206879
:101F8000C1612168D5E9002001F1300CC0F3012BBB
:101F90000CEB8B03D3F800C000F01F0E4FF01F0BAB
:101FA0000BFA0EFB2CEA0B0C00F01F0BC2F3846E35
:101FB0000EFA0BFE4CEA0E0CC3F800C000BF2068FE
:101FC00007F0A7FC8146206807F094FC8046B9F131
:101FD000000F6FD1B8F1000FFBD1AA682968206803
:101FE00007F09CFCC648006800F07040B0F1805FCC
:101FF00007D168692168C968C1F382014900884036
:1020000014E02068C06800F0100038B968692168E1
:10201000C968C1F382014900884007E06869216806
:10202000C96801F0100189084900884007462869FD
:10203000042840D020682A68296900F1600C0CEB64
:102040008103D3F800C00CF0004C00E0D0E102F0B6
:10205000F84B4BEA070B4CEA0B0CC3F800C000BF6F
:1020600020686A7E2969012A01D1D20700E0002296
:10207000134600F1600C0CEB8102D2F800C02CF08A
:10208000004C4CEA030CC2F800C000BF20682B7E55
:102090002969012B01D1DB0200E000231A46036904
:1020A00023F4F04301F01F0C02FA0CFC43EA0C038A
:1020B000036100BF37E02068006E00F0F840297827
:1020C000B0EB816F05D12068006E20F000402168E0
:1020D00008662068406E00F0F8402978B0EB816F08
:1020E00005D12068406E20F00040216848662068D5
:1020F000806E00F0F8402978B0EB816F05D1206840
:10210000806E20F00040216888662068C06E00F074
:10211000F8402978B0EB816F05D12068C06E20F0BF
:1021200000402168C866206807F0E9FB002872D1EA
:102130002068EA682968D0F8C030C1F3130C23EA9C
:102140000C0302F0180BDFF8BCC12CFA0BFC0CEAF4
:10215000010C43EA0C03C0F8C03000BF6449E868D2
:1021600088427DD12B68C3F313031BB92B68C3F3DB
:10217000846304E02B6893FAA3F3B3FA83F35B1C44
:1021800003F01F03092B3ED82B68C3F313031BB9BD
:102190002B68C3F3846304E02B6893FAA3F3B3FAC8
:1021A00083F35B1C03F01F034FF0010C0CFA03FCDC
:1021B0002B68C3F313031BB92B68C3F3846304E0D8
:1021C0002B6893FAA3F3B3FA83F35B1C03F01F03AA
:1021D0004CEA836C2B68C3F313031BB92B68C3F35E
:1021E000846304E02B6893FAA3F3B3FA83F35B1CD4
:1021F00003F01F0303EB43034FF0000B4BEA0353C1
:102200004CEA030341E02B68C3F3130323B92B68A3
:10221000C3F3846305E0A9E02B6893FAA3F3B3FA50
:1022200083F35B1C03F01F034FF0010C0CFA03FC5B
:102230002B68C3F313031BB92B68C3F3846304E057
:102240002B6893FAA3F3B3FA83F35B1C03F01F0329
:102250004CEA836C2B68C3F313032BB92B6800E0A3
:1022600018E0C3F3846304E02B6893FAA3F3B3FA92
:1022700083F35B1C03F01F030A3B03EB43034FF0A4
:10228000007B4BEA03534CEA03031946AA68206813
:1022900007F044FB286800F00040002866D0154A8B
:1022A0002168914203D0144A2168914201D1164914
:1022B00000E016490846816801F0E07600BF0D494C
:1022C0002068884203D00C492068884201D10E481A
:1022D00000E00E480C4988421AD1064807F00FFB6F
:1022E0008346054807F00BFB4BEA000013E00000B3
:1022F0000000FF4700200240002102400060025819
:102300000010005CFFFF0F00002302400063025832
:102310003E4807F0F4FAE8BB3D492868884226D1D8
:1023200006F4000018BB39492068884266D1394B51
:1023300022689A4203D0384B22689A4201D1374A28
:1023400000E0374A104646F4000107F0FBFA354832
:1023500000683549B0FBF1F0401C4000009002E0FD
:102360000098401E009000980028F9D146E02F49BF
:102370002868884219D106F08070B0B923492068D6
:1023800088423BD1234B22689A4205D0224B2268D7
:102390009A4200E025E001D1204A00E0204A1046A0
:1023A00046F0807107F0CEFA28E02149286888427B
:1023B00024D106F4800008BB1449206888421DD14E
:1023C000144B22689A4203D0134B22689A4201D1DF
:1023D000124A00E0124A104646F4800107F0B2FAB1
:1023E0000CE0606D40F0200060654FF0010A05E0F0
:1023F000606D40F0200060654FF0010A00BF0020D2
:1024000084F8500000BF504696E500000060025876
:10241000000084CB00200240002102400023024043
:102420000063025890000020400D0300000052C7D6
:102430000000B8CF2DE9F84F04464FF00009002006
:10244000009014B90120BDE8F88FE06818B1207F32
:10245000012800D100BF606D30B9204600F030F98E
:102460000020A06584F8500020688168C1F34071A5
:1024700031B120688168874A1140816000BF00BF88
:10248000206807F041FAA8B920688168824A1140A3
:1024900041F08051816000BF804800688049B0FBF6
:1024A000F1F0401C009002E00098401E009000985F
:1024B0000028F9D1206807F027FA48B9606D40F08C
:1024C00010006065A06D40F00100A0654FF00109AB
:1024D000206807F01EFA0646606D00F01000002824
:1024E0007ED1002EFCD1606D20F4807040F002009F
:1024F0006065206807F003FA78BB6A492068884263
:1025000003D069492068884201D1684800E06848E2
:102510006649884209D1634807F0F1F9824662486A
:1025200007F0EDF94AEA000002E0624807F0E7F937
:1025300098B95C4B22689A4203D05B4B22689A425E
:1025400001D15A4A00E05A4A10466168826822F472
:102550007C120A43826000BF00BF02F0CBFE41F252
:10256000030188420ED9A06810280BD1607D216B31
:1025700041EA4030A168084340F00C01207F41EA65
:10258000004508E0607D216B41EA4030A1680843C6
:10259000217F40EA0145207F012803D1208C401E85
:1025A00045EA4045606A28B1A08C00F47870A16AC1
:1025B000084305432068C0683F4908402843216814
:1025C000C860206807F0A5F98046206807F092F9F6
:1025D0000746B8F1000F3BD1D7BB207DE16A00E090
:1025E00050E041EA80352068C06844F20301884326
:1025F00028432168C86094F83800012817D1606A20
:1026000008B1A06A00B900BFA08F401E012141EAB5
:102610000041206C0843616C0843A16C08432168A9
:102620000969264A114008432168086105E02068CD
:10263000006920F00100216808612068006920F02D
:102640007040616B0843216808612046FEF768F915
:10265000E068012809D12068006B20F00F00A16913
:10266000491E08432168086305E02068006B20F0DC
:102670000F0021680863606D20F0020040F0010047
:10268000606505E0606D40F0100060654FF0010985
:102690004846D8E6C0FFFF5FC0FFFF7F90000020E4
:1026A000400D0300002002400021024000230240B0
:1026B000006302580060025803C0F0FF1EF800FCDF
:1026C00010B5B8B00446142132A8FDF7AFFEC02102
:1026D00002A8FDF7ABFE2E492068884256D14FF480
:1026E00000210020CDE90210022004903C21059138
:1026F000032106910221079108918021099100216F
:102700000A910B9100202B9002A803F005FF08B15D
:10271000FFF75FF900BF1F48006840F080701D4957
:1027200008600846006800F08070019000BF00BF9C
:1027300000BF0846006840F02000086008460068B6
:1027400000F02000019000BF00BF00BF08460068F5
:1027500040F0800008600846006800F080000190AA
:1027600000BF00BF18203290032033900020349027
:1027700032A9094802F0BAFC3C2032900320339081
:102780000020349032A9054802F0B0FC38B010BDEA
:1027900000600258E044025800140258001C02581D
:1027A0002DE9F041044602F0ABFD804614B901204A
:1027B000BDE8F08194F83500022808D080206065DB
:1027C00000BF002084F8340000BF0120F0E7FE497C
:1027D0002068884249D0FC4918312068884244D09A
:1027E000F9493031206888423FD0F74948312068A4
:1027F00088423AD0F44960312068884235D0F249A5
:1028000078312068884230D0EF4990312068884282
:102810002BD0ED49A8312068884226D0EB492068AA
:10282000884222D0E9491831206888421DD0E74902
:1028300030312068884218D0E44948312068884205
:1028400013D0E2496031206888420ED0DF497831E8
:102850002068884209D0DD4990312068884204D040
:10286000DA49A8312068884201D1012000E0002027
:1028700068B12068006820F01E00216808602068A8
:10288000406920F0800021684861256806E02068E2
:10289000006820F00E00216808602568CA49206899
:1028A000884270D0C8491831206888426BD0C64928
:1028B00030312068884266D0C34948312068884258
:1028C00061D0C1496031206888425CD0BE4978310E
:1028D0002068884257D0BC4990312068884252D045
:1028E000B949A831206888424DD0B849206888424B
:1028F00049D0B64918312068884244D0B3493031B4
:10290000206888423FD0B1494831206888423AD097
:10291000AE4960312068884235D0AC4978312068B2
:10292000884230D0A9499031206888422BD0A749ED
:10293000A8312068884226D0A5492068884222D044
:10294000A3491431206888421DD0A149283120684C
:10295000884218D09E493C312068884213D09C4957
:102960005031206888420ED09949643120688842ED
:1029700009D0974978312068884204D094498C3135
:102980002068884201D1012000E0002028B1206E9B
:10299000006820F48070216E08608B4920688842AE
:1029A00049D0894918312068884244D0864930315D
:1029B000206888423FD084494831206888423AD014
:1029C000814960312068884235D07F49783120685C
:1029D000884230D07C499031206888422BD07A4997
:1029E000A8312068884226D078492068884222D0C1
:1029F00076491831206888421DD0744930312068EA
:102A0000884218D0714948312068884213D06F49F4
:102A10006031206888420ED06C4978312068884245
:102A200009D06A4990312068884204D06749A831AA
:102A30002068884206D12068006820F001002168E3
:102A4000086005E02068006820F001002168086047
:102A500011E002F055FCA0EB080005280BD920205E
:102A60006065032084F8350000BF002084F834003E
:102A700000BF01209CE6286800F001000028E8D192
:102A800051492068884249D04F491831206888420E
:102A900044D04D493031206888423FD04A494831BE
:102AA000206888423AD0484960312068884235D051
:102AB000454978312068884230D0434990312068B8
:102AC00088422BD04049A8312068884226D03F490F
:102AD0002068884222D03D491831206888421DD0A4
:102AE0003A4930312068884218D038494831206846
:102AF000884213D035496031206888420ED033496E
:102B000078312068884209D0304990312068884265
:102B100004D02E49A8312068884201D1012000E06C
:102B2000002040B1A66D94F85C0000F01F013F202A
:102B30008840B06007E0A76D94F85C0000F01F01CA
:102B400001208840786020492068884276D01E495C
:102B500018312068884271D01B4930312068884282
:102B60006CD0194948312068884267D016496031D5
:102B70002068884262D014497831206888425DD04C
:102B8000114990312068884258D00F49A8312068F7
:102B9000884253D00D49206888424FD00B491831E4
:102BA000206888424AD0094930312068884245D09F
:102BB000064948312068884240D004496031206885
:102BC00088423BD0014905E0100002401004024059
:102BD000085402587831206888422FD0254920684F
:102BE00088422BD0234918312068884226D02249B8
:102BF0002068884222D020491431206888421DD0A4
:102C00001D4928312068884218D01B493C31206872
:102C1000884213D018495031206888420ED0164996
:102C200064312068884209D013497831206888428D
:102C300004D011498C312068884201D1012000E084
:102C4000002068B1D4E919104860E06E40B1E06E30
:102C5000006820F48070E16E0860D4E91C104860C0
:102C6000012084F8350000BF002084F8340000BF44
:102C700000BF9DE5A00402400854025870B5044608
:102C80000CB9012070BD94F83500022803D08020D3
:102C900060650120F6E7DC492068884249D0DA49BE
:102CA00018312068884244D0D749303120688842A2
:102CB0003FD0D5494831206888423AD0D249603166
:102CC0002068884235D0D04978312068884230D099
:102CD000CD499031206888422BD0CB49A83120685B
:102CE000884226D0C9492068884222D0C749183175
:102CF000206888421DD0C54930312068884218D0EC
:102D0000C24948312068884213D0C04960312068E8
:102D100088420ED0BD4978312068884209D0BB492D
:102D200090312068884204D0B849A8312068884290
:102D300001D1012000E00020F0B3042084F8350028
:102D4000B149206888424BD0AF4918312068884289
:102D500046D0AD4930312068884241D0AA49483137
:102D6000206888423CD0A84960312068884237D02A
:102D7000A54978312068884232D0A3499031206833
:102D800088422DD0A049A8312068884228D09F4988
:102D90002068884224D09D491831206888421FD07D
:102DA0009A493031206888421AD0984948312068C1
:102DB000884215D0954900E020E0603120688842C3
:102DC0000ED0924978312068884209D08F499031DD
:102DD0002068884204D08D49A8312068884206D1F5
:102DE0002068006820F001002168086009E120687F
:102DF000006820F001002168086002E12068006896
:102E000020F00E00216808607F492068884249D080
:102E10007D4918312068884244D07B493031206890
:102E200088423FD078494831206888423AD0764974
:102E300060312068884235D07349783120688842F3
:102E400030D071499031206888422BD06E49A8312A
:102E50002068884226D06D492068884222D06B497C
:102E60001831206888421DD0684930312068884276
:102E700018D0664948312068884213D063496031D0
:102E8000206888420ED0614978312068884209D094
:102E90005E4990312068884204D05C49A83120689E
:102EA000884206D12068006820F00100216808608F
:102EB00005E02068006820F00100216808605249A0
:102EC0002068884270D050491831206888426BD001
:102ED0004D4930312068884266D04B4948312068DE
:102EE000884261D048496031206888425CD04649B8
:102EF00078312068884257D0434990312068884211
:102F000052D04149A831206888424DD03F492068BD
:102F1000884249D03D4918312068884244D03B4915
:102F20003031206888423FD0384948312068884293
:102F30003AD0364960312068884235D033497831FB
:102F40002068884230D031499031206888422BD0A7
:102F50002E49A8312068884226D02D492068884211
:102F600022D02B491431206888421DD028492831AD
:102F70002068884218D026493C312068884213D006
:102F800023495031206888420ED02149643120689D
:102F9000884209D01E4978312068884204D01C49F3
:102FA0008C312068884201D1012000E00020D8B196
:102FB000206E006820F48070216E0860A56D94F882
:102FC0005C0000F01F01012088406860D4E91910FE
:102FD0004860E06E40B1E06E006820F48070E16E01
:102FE0000860D4E91C104860012084F8350000BF57
:102FF000002084F8340000BF206D10B12046216D00
:10300000884700203EE60000100002401004024005
:10301000085402580146486D704700002DE9F84FEA
:10302000044600200090FE4800684FF41651B0FBA3
:10303000F1FAA66DD4F858803768D8F80090F949AD
:103040002068884249D0F74918312068884244D026
:10305000F4493031206888423FD0F2494831206835
:1030600088423AD0EF4960312068884235D0ED4936
:1030700078312068884230D0EA499031206888420F
:103080002BD0E849A8312068884226D0E64920683C
:10309000884222D0E4491831206888421DD0E24994
:1030A00030312068884218D0DF4948312068884292
:1030B00013D0DD496031206888420ED0DA4978317A
:1030C0002068884209D0D84990312068884204D0CD
:1030D000D549A8312068884201D1012000E00020B4
:1030E00000287DD094F85C0000F01F010820884083
:1030F0003840002868D0CB492068884249D0C94967
:1031000018312068884244D0C6493031206888424E
:103110003FD0C4494831206888423AD0C149603123
:103120002068884235D0BF4978312068884230D045
:10313000BC499031206888422BD0BA49A831206818
:10314000884226D0B8492068884222D0B649183132
:10315000206888421DD0B44930312068884218D098
:10316000B14948312068884213D0AF4960312068A6
:1031700088420ED0AC4978312068884209D0AA49EB
:1031800090312068884204D0A749A831206888423D
:1031900004D12068006800F0040003E020680068A3
:1031A00000F0080080B12068006820F00400216869
:1031B000086094F85C0000F01F0108208840B060AF
:1031C000606D40F00100606594F85C0000F01F0144
:1031D000012088403840E8B392492068884200E0E6
:1031E000B7E24BD08F4918312068884246D08D49CC
:1031F00030312068884241D08A494831206888426D
:103200003CD0884960312068884237D08549783180
:103210002068884232D083499031206888422DD07E
:103220008049A8312068884228D07F492068884298
:1032300024D07D491831206888421FD07A49303126
:10324000206888421AD0784948312068884215D0D1
:10325000754900E026E06031206888420ED072494E
:1032600078312068884209D06F49903120688842BF
:1032700004D06D49A8312068884204D12068406993
:1032800000F0800002E020680068002050B194F84F
:103290005C0000F01F0101208840B060606D40F0CC
:1032A0000200606594F85C0000F01F010420884073
:1032B0003840E8B35B49206888424BD059491831FF
:1032C0002068884246D0574930312068884241D032
:1032D00054494831206888423CD0524960312068C6
:1032E000884237D04F4978312068884232D04D49E2
:1032F0009031206888422DD04A49A8312068884200
:1033000028D049492068884224D04749183120688C
:1033100088421FD044493031206888421AD042493F
:1033200048312068884215D03F496031206800E06C
:1033300024E088420ED03C4978312068884209D088
:10334000394990312068884204D03749A831206833
:10335000884204D12068006800F0020002E0206882
:103360000068002050B194F85C0000F01F010420B8
:103370008840B060606D40F00400606594F85C00C7
:1033800000F01F01102088403840E8B3254920682C
:10339000884251D023491831206888424CD02149B5
:1033A00030312068884247D01E4948312068884221
:1033B00042D01C496031206888423DD0194978319B
:1033C0002068884238D0174990312068884233D02D
:1033D0001449A831206888422ED0134920688842B9
:1033E0002AD0114918312068884225D00E49303141
:1033F0002068884220D00C494831206888421BD080
:1034000009496031206800E04DE0884214D0064947
:103410007831206888420FD003499031206805E058
:10342000900000201000024010040240884203D0A7
:10343000FE492068884204D12068006800F0080036
:1034400003E02068006800F0040060B394F85C00BA
:1034500000F01F0110208840B0602068006800F470
:10346000802080B12068006800F4002028B9206C1A
:10347000C8B12046216C884715E0A06C98B1204661
:10348000A16C88470FE02068006800F4807028B9BC
:103490002068006820F0080021680860206C10B1E6
:1034A0002046216C884794F85C0000F01F01202022
:1034B0008840384000287DD0DD492068884249D0C6
:1034C000DB4918312068884244D0D949303120681E
:1034D00088423FD0D6494831206888423AD0D44902
:1034E00060312068884235D0D149783120688842DF
:1034F00030D0CF499031206888422BD0CC49A831B8
:103500002068884226D0C949A8392068884221D03D
:10351000C6499039206888421CD0C449783920684F
:10352000884217D0C14960392068884212D0BF490B
:103530004839206888420DD0BC493039206888421B
:1035400008D0BA4918392068884203D0B7492068A2
:10355000884204D12068006800F0100003E0206871
:10356000006800F0020028B394F85C0000F01F012E
:1035700020208840B06094F8350004282DD12068C0
:10358000006820F01600216808602068406920F07B
:10359000800021684861206C08B9A06C28B12068BF
:1035A000006820F008002168086094F85C0000F0D2
:1035B0001F0100E03FE03F208840B060012084F818
:1035C000350000BF002084F8340000BF206D10B12A
:1035D0002046216D8847BDE8F88F2068006800F418
:1035E000802080B12068006800F4002028B9606C59
:1035F00008B32046616C88471DE0E06BD8B12046D7
:10360000E16B884717E02068006800F4807068B9B3
:103610002068006820F0100021680860012084F80C
:10362000350000BF002084F8340000BFE06B10B10B
:103630002046E16B8847606D00287AD0606D00F00D
:103640000100E8B3042084F83500794920688842F5
:103650004BD0774918312068884246D074493031C0
:103660002068884241D072494831206888423CD065
:103670006F4960312068884237D06D4978312068C1
:10368000884232D06A499031206888422DD06849FA
:10369000A8312068884228D06449A8392068884227
:1036A00023D062499039206888421ED05F4978391A
:1036B0002068884219D05D4960392068884200E05E
:1036C00040E012D059494839206888420DD0574906
:1036D00030392068884208D0544918392068884217
:1036E00003D052492068884206D12068006820F043
:1036F00001002168086005E02068006820F00100F2
:103700002168086000BF0098401C0090504500D917
:1037100005E02068006800F001000028F3D100BF38
:103720002068006800F0010020B1032084F8350013
:1037300003E00DE0012084F8350000BF002084F88C
:10374000340000BFE06C002802D02046E16C8847BE
:10375000D9E138492068884222D03649143120689E
:1037600088421DD0334928312068884218D0314919
:103770003C312068884213D02E495031206888425D
:103780000ED02C4964312068884209D0294978310B
:103790002068884204D027498C312068884201D1B2
:1037A000012000E000200028D2D02068056894F8AD
:1037B0005C0000F01F010420884000EA0900D8B333
:1037C00005F00400C0B394F85C0000F01F01042071
:1037D0008840C8F8040005F4004080B105F480304A
:1037E00030B9A06C0028B3D02046A16C88478AE18C
:1037F000206C0028ACD02046216C884783E105F07E
:103800002000E8BB0A492068884253D00849183193
:10381000206888424ED0064930312068884249D01D
:10382000034948312068884244D006E0B804024089
:1038300010000240085402584FE0B449603120683B
:10384000884237D0B14978312068884232D0AF49B8
:103850009031206888422DD0AC49A8312068884238
:1038600028D0AB492068884224D0A9491831206863
:1038700088421FD0A6493031206888421AD000E023
:1038800025E0A34948312068884213D0A04960311F
:10389000206888420ED09E4978312068884209D03D
:1038A0009B4990312068884204D09949A83120680A
:1038B000884206D12068006820F00800216808606E
:1038C00005E02068006820F0040021680860206C92
:1038D00010B32046216C884715E194F85C0000F095
:1038E0001F010220884000EA0900E8B305F0020049
:1038F000D0B394F85C0000F01F0102208840C8F8A3
:10390000040005F4004070B105F4803028B9606C03
:1039100010B12046616C8847F5E0E06BF0B32046BB
:10392000E16B8847EFE005F02000C0BB77492068D5
:1039300088424ED0754918312068884249D0734971
:1039400030312068884244D070494831206888422C
:103950003FD06E496031206888423AD06B49783157
:103960002068884235D000E04EE0684990312068F8
:1039700088422ED06549A8312068884229D0644900
:103980002068884225D0624918312068884220D0BA
:103990005F493031206888421BD001E06EE02DE0A5
:1039A0005B4948312068884213D05949603120680A
:1039B00088420ED0564978312068884209D054494F
:1039C00090312068884204D05149A831206888424B
:1039D00006D12068006820F014002168086005E026
:1039E0002068006820F00A0021680860012084F83F
:1039F000350000BF002084F8340000BFE06BE8B35E
:103A00002046E16B88477EE094F85C0000F01F01DF
:103A10000820884000EA090080B305F0080068B378
:103A20003A49206888424BD038491831206888428A
:103A300046D0364930312068884241D03349483138
:103A4000206888423CD0314960312068884237D0B4
:103A50002E4978312068884232D02C499031206834
:103A600088422DD02949A8312068884228D0284989
:103A70002068884224D02649183100E043E02068BD
:103A800088421DD0224930312068884218D0204910
:103A900048312068884213D01D496031206888422F
:103AA0000ED01B4978312068884209D018499031DE
:103AB0002068884204D01649A8312068884206D17F
:103AC0002068006820F01C002168086005E020687C
:103AD000006820F00E002168086094F85C0000F097
:103AE0001F0101208840C8F804000120606584F8A7
:103AF000350000BF002084F8340000BFE06C10B136
:103B00002046E16C884700BF65E5000010000240D8
:103B1000100402402DE9F041044601F0F1FB80461B
:103B200014B90120BDE8F081FE492068884249D0DF
:103B3000FC4918312068884244D0FA493031206865
:103B400088423FD0F7494831206888423AD0F54949
:103B500060312068884235D0F24978312068884247
:103B600030D0F0499031206888422BD0ED49A831FF
:103B70002068884226D0EC492068884222D0EA4951
:103B80001831206888421DD0E749303120688842CA
:103B900018D0E54948312068884213D0E2496031A5
:103BA000206888420ED0E04978312068884209D0E8
:103BB000DD4990312068884204D0DB49A831206873
:103BC000884201D1012000E00020002873D0606A03
:103BD00000B100BF022084F8350000BF002084F847
:103BE000340000BFCF492068884249D0CD49183100
:103BF0002068884244D0CB493031206888423FD089
:103C0000C8494831206888423AD0C64960312068A6
:103C1000884235D0C34978312068884230D0C149C4
:103C20009031206888422BD0BE49A8312068884254
:103C300026D0BD492068884222D0BB49183120686F
:103C400088421DD0B84930312068884218D0B64922
:103C500048312068884213D0B349603120688842D7
:103C60000ED0B14978312068884209D0AE499031F0
:103C70002068884204D0AC49A8312068884206D127
:103C80002068006820F001002168086005E02068D5
:103C9000006820F00100216808600DE001F030FBB1
:103CA000A0EB0800052807D920206065032084F8D0
:103CB0003500012036E76AE02068006800F0010066
:103CC0000028EBD12068056898480540D4E9020136
:103CD00008432169084361690843A1690843E16910
:103CE0000843216A08430543606A042803D1D4E9E4
:103CF0000B01084305438E4800686FF30F00B0F1D5
:103D0000005F1DD36068292802D360682E2811D96E
:103D100060683F2802D3606842280BD96068472852
:103D200002D36068482805D960684F2804D36068CA
:103D3000522801D8012000E0002008B145F4801588
:103D4000206805602068456925F00705606A05431D
:103D5000606A04280DD1A06A0543E06A48B1204694
:103D6000FDF75AFC28B140206065012084F8350039
:103D7000D8E6206845612046FDF72AFB064694F800
:103D80005C0000F01F013F208840B0609EE0694960
:103D90002068884222D067491431206888421DD0AB
:103DA000644928312068884218D062493C31206833
:103DB000884213D05F495031206888420ED05D4957
:103DC00064312068884209D05A4978312068884295
:103DD00004D058498C312068884201D1012000E08C
:103DE0000020E0B353492068884222D05149143161
:103DF000206888421DD04F4928312068884218D059
:103E00004C493C312068884213D04A4950312068DF
:103E100088420ED0474964312068884209D045491C
:103E200078312068884204D042498C312068884229
:103E300001D1012000E0002000B100BF022084F881
:103E4000350000BF002084F8340000BF20680568FA
:103E500039480540A068402802D1102106E02EE034
:103E6000A068802801D1C10100E00021E06841EA9A
:103E7000D001206941EAD001606941EAD001A0691E
:103E800041EAD001E06941EAD001206A41EA10101C
:103E900005432068056027492068401A1421B0FBBB
:103EA000F1F08000E0652046FDF792FA074694F8AD
:103EB0005C0000F01F0101208840786006E040208F
:103EC0006065032084F8350001202BE61549206841
:103ED00088427FD013491831206888427AD011492E
:103EE00030312068884275D00E49483120688842B8
:103EF00070D00C496031206888426BD00949783114
:103F00002068884266D0074990312068884261D095
:103F10000449A831206888425CD00349206888425F
:103F200058D00BE010000240100402403F8010FE09
:103F30000010005C085402580F00FEFF3B49183186
:103F40002068884246D0394930312068884241D0C3
:103F500036494831206888423CD034496031206875
:103F6000884237D0314978312068884232D02F4991
:103F70009031206888422DD02C49A8312068884291
:103F800028D02B492068884224D029491431206840
:103F900088421FD026492831206888421AD02449F7
:103FA0003C312068884215D0214950312068884230
:103FB00010D01F496431206888420BD01C497831E9
:103FC0002068884206D01A498C312068884200E077
:103FD00000E001D1012000E0002000B32046FDF701
:103FE0006DFAA068802801D1002060602079216EE0
:103FF0000860D4E919104860606860B160680828FA
:1040000009D82046FDF7BCFA0020E16E0860D4E92B
:104010001C10486003E00020E06620676067002015
:104020006065012084F8350000207BE51004024023
:10403000085402582DE9F04104460D4616461F4625
:104040004FF0000814B90120BDE8F08100BF94F8DA
:104050003400012801D10220F6E7012084F8340061
:1040600000BF94F8350001287ED1022084F8350085
:1040700000206065E4492068884249D0E24918314F
:104080002068884244D0E0493031206888423FD0DF
:10409000DD494831206888423AD0DB4960312068E8
:1040A000884235D0D84978312068884230D0D64906
:1040B0009031206888422BD0D349A83120688842AB
:1040C00026D0D2492068884222D0D04918312068B1
:1040D00088421DD0CD4930312068884218D0CB4964
:1040E00048312068884213D0C8496031206888422E
:1040F0000ED0C64978312068884209D0C349903132
:104100002068884204D0C149A8312068884206D17D
:104110002068006820F001002168086005E0206840
:10412000006820F00100216808603B4632462946BD
:104130002046FDF7C9FAB449206888424BD0B249FD
:1041400018312068884246D0AF4930312068884213
:1041500041D0AD494831206888423CD0AA496031FD
:104160002068884237D000E042E1A74978312068D2
:10417000884230D0A4499031206888422BD0A2498F
:10418000A8312068884226D0A0492068884222D0E1
:104190009E491831206888421DD09C4930312068E2
:1041A000884218D0994948312068884213D09749ED
:1041B0006031206888420ED0944978312068884266
:1041C00009D0924990312068884204D08F49A831A3
:1041D0002068884201D1012000E0002080B12068E1
:1041E000006820F01E0040F0160021680860206C76
:1041F000B0B12068006840F00800216808600FE056
:104200002068006820F00E0040F00A002168086075
:10421000206C28B12068006840F004002168086024
:1042200079492068884270D07749183120688842DF
:104230006BD0754930312068884266D07249483168
:104240002068884261D070496031206888425CD023
:104250006D4978312068884257D06B499031206889
:10426000884252D06849A831206888424DD06749B9
:104270002068884249D0654918312068884244D076
:1042800062493031206888423FD060494831206817
:1042900088423AD05D4960312068884235D05B4918
:1042A00078312068884230D058499031206888425F
:1042B0002BD05649A8312068884226D0544920681E
:1042C000884222D052491431206888421DD050497A
:1042D00028312068884218D04D493C3120688842F6
:1042E00013D04B495031206888420ED04849643180
:1042F0002068884209D0464978312068884204D035
:1043000043498C312068884201D1012000E000201F
:1043100090B1206E006800F4803028B1206E0068F3
:1043200040F48070216E0860E06E28B1E06E006895
:1043300040F48070E16E086033492068884249D0BB
:10434000314918312068884244D02F4930312068E3
:1043500088423FD02C494831206888423AD02A49C7
:1043600060312068884235D02749783120688842FA
:1043700030D025499031206888422BD02249A8317D
:104380002068884226D021492068884222D01F49CF
:104390001831206888421DD01C493031206888427D
:1043A00018D01A4948312068884213D01749603123
:1043B000206888420ED0154978312068884209D09B
:1043C000124990312068884204D01049A8312068F1
:1043D000884206D12068006840F00100216808602A
:1043E00010E02068006840F001002168086009E0E2
:1043F0004FF40060606500BF002084F8340000BF07
:104400004FF0010840461FE6100002401004024031
:104410000854025830B5034693F89840012C01D057
:10442000022C3ED11868806D084030B91868C06D04
:1044300040F001001D68E8650EE01868806D0840D6
:10444000884206D11868C06D40F002001D68E8651A
:1044500002E003201D68E86501F4007030B11868BF
:10446000D0F8E00010431D68C5F8E00001F480605A
:1044700030B11868D0F8E40010431D68C5F8E400B6
:1044800000BF1868406D0B4D0D4028431D686865DE
:104490000948006840EA9170074D286000BF00207D
:1044A00030BDD3F89C0040F00200C3F89C0001200E
:1044B000F6E70000FFFFCF3F14A800402DE9F041D0
:1044C00004460E461746706800B900E000BF94F835
:1044D0009800022832D12068D0F8C00000F07C504B
:1044E00040B9D4F89C0040F02000C4F89C000120A2
:1044F000BDE8F0812068D0F8C40000F4001038B1A5
:10450000D4F89C0040F40070C4F89C000120EFE750
:104510002068D0F8C400C0F304452B463A46314623
:104520002046FDF7EBFB0120A8402168C1F8D00030
:104530000120A840C4F894000020D9E7D4F89C00DA
:1045400040F00800C4F89C000120D1E77047F0B5A6
:10455000024692F89860012E01D0022E43D1C8681D
:10456000072800D100BF086818BBC868072800D01A
:1045700000BFC86807280BD1088A4FF0605747EA88
:104580000040CF6940EA07208F6940EA07040AE04B
:10459000087A80070F7B40EAC7600F8A40EA07402D
:1045A0004F6940EA0704D76E486807EB80031C6038
:1045B00017E0C868072800D000BF0F7B086940EAF1
:1045C0004774C868072801D18D6903E00F7A4869EC
:1045D00040EA8775176F486807EBC0031C601B1D16
:1045E0001D600020F0BDD2F89C0040F00200C2F82F
:1045F0009C000120F6E7704770470246402905D12C
:104600001368D3F8A43003F07F0004E01368D3F8F4
:10461000B43003F07F0070472DE9F04304460D46A7
:104620009C46002394F89880B8F1020F74D1402D75
:1046300038D12068D0F8A00000F4FE0040B9D4F8CA
:104640009C0040F02000C4F89C000120BDE8F083ED
:104650002068D0F8A40000F07F0038B9D4F89C009E
:1046600040F48070C4F89C000120EFE72068D0F887
:10467000A400C0F3006040B12068D0F8A0004FF063
:104680000109B9EBD07F00D101232068D0F8A40044
:10469000C0F305200344606C5843D4F8749009EBD0
:1046A00080014BE0412D38D12068D0F8B00000F4F3
:1046B000FE0038B9D4F89C0040F02000C4F89C00FB
:1046C0000120C3E72068D0F8B40000F07F0038B9BB
:1046D000D4F89C0040F48070C4F89C000120B5E739
:1046E0002068D0F8B400C0F3006040B12068D0F872
:1046F000B0004FF00109B9EBD07F00D10123206851
:10470000D0F8B400C0F305200344E06C5843D4F85B
:10471000789009EB800111E06DE0206DA84207D888
:10472000D4F89C0040F02000C4F89C0001208DE7E4
:10473000606D6843D4F87C9009EB8001086800F054
:1047400080405060506820B90868C0F38A4010600B
:1047500003E0086820F060401060086800F0005036
:104760009060086800F000401061091D088880B260
:10477000D0610868C0F30340D060086800F480107E
:104780005061086800F4001090610868C0F306608A
:1047900010620868C00F5062091D0F46002603E032
:1047A000B85D0CF80600761CDFF85C90D06819F84C
:1047B0000000B042F4D8402D03D12068C0F8A830E2
:1047C00017E0412D03D12068C0F8B83011E0202D4A
:1047D00006D20120A840D4F80090C9F8980008E05B
:1047E00005F01F09012000FA09F0D4F80090C9F87B
:1047F0009C0000202AE7D4F89C0040F00800C4F890
:104800009C00012022E70000D8ED0008704700005E
:104810002DE9F04F8DB00446EF4800688707EE4859
:10482000001D006807EA80772068006D00F470487A
:104830002068406D00EA08082068006D00F00F094C
:104840002068406D00EA09092068006D00F0F00A58
:104850002068406D00EA0A0A2068006D00F0715B74
:104860002068406D00EA0B0B2068006D00F060705E
:104870000C902068406D0C9908400C902068456DA4
:104880002068066DC5F3002070B1C6F3002058B152
:1048900000BF4FF48070216808650020CE49086091
:1048A00000BF2046FFF7B2FFC5F38020C8B1C6F3B2
:1048B0008020B0B12068D0F8DC000A902068D0F8E1
:1048C000E4000A9908400A9000BF4FF48060216814
:1048D00008650020C049086000BF20460A9900F022
:1048E00001FC67B100BFBD48384021680865B80FBA
:1048F000B949086000BF39462046FFF727FEB8F1E6
:10490000000F0ED000BFB54808EA00002168086516
:104910004FEA9870B049086000BF4146204600F059
:10492000E3FBB9F1000F0ED000BFAC4809EA00006C
:10493000216808654FEA9970A749086000BF494699
:10494000204600F07FFBBAF1000F0ED000BFA34855
:104950000AEA0000216808654FEA9A709E490860DB
:1049600000BF5146204600F085FBC5F3C02070B162
:10497000C6F3C02058B100BF4FF40060216808653D
:1049800000209549086000BF204600F0AEFBC5F34B
:104990004020C8B1C6F34020B0B12068D0F8D8009C
:1049A0000B902068D0F8E0000B9908400B9000BFF6
:1049B0004FF400702168086500208749086000BF37
:1049C00020460B9900F08FFBC5F3C04070B1C6F3D1
:1049D000C04058B100BF4FF4002021680865002096
:1049E0007D49086000BF204600F02AFBC5F3004067
:1049F00070B1C6F3004058B100BF4FF48030216859
:104A0000086500207449086000BF204600F069FB7B
:104A1000C5F3804070B1C6F3804058B100BF4FF479
:104A200080202168086500206B49086000BF20468F
:104A300000F056FBC5F3404088B1C6F3404070B16A
:104A400000BF4FF40030216808650020624908600B
:104A500000BFD4F89C0040F08000C4F89C000C9883
:104A600070B100BF5D490C980840216808650C983A
:104A7000800F5949086000BF20460C99FFF7BCFD24
:104A8000BBF1000F10D000BF54480BEA00002168B2
:104A900008654FEA9B705049086000BFD4F89C003D
:104AA00040EA0B00C4F89C004D49206888427DD143
:104AB0006068806800F00300002877D06068006AB2
:104AC00000F00F0009906068406A09990840099059
:104AD0006068006A00F0300008906068406A0899D9
:104AE000084008906068006A00F4C0700790606831
:104AF000406A0799084007906068006A00F4FC402B
:104B000006906068406A0699084006906068006AEE
:104B100000F4F02005906068406A0599084005900F
:104B20006068406A02906068006A0190099830B13C
:104B30000998616808622046099900F0CEFA089841
:104B400030B10898616808622046089900F0C7FAF9
:104B50000298C0F38010A0B10198C0F3801080B11A
:104B60006068C06B000C04906068C06B00F03F0090
:104B700003904020616808622046DDE9032100F0CF
:104B8000ADFA079830B10798616808622046079926
:104B900000F0A2FA069840B1069861680862D4F85D
:104BA0009C0006990843C4F89C0000E00AE00598C0
:104BB00040B1059861680862D4F89C0005990843E3
:104BC000C4F89C00D4F89C0010B12046FFF713FDF8
:104BD0000DB0BDE8F08F000010A80040FFFFCF3FF0
:104BE00000A0004070B594B004464C22B34901A81F
:104BF000FBF701FC14B9012014B070BDB049206866
:104C0000884203D1206800F580706060A068B0F52C
:104C1000407F00D100BF206C00B100BFA06C00B18C
:104C200000BF206D00B100BF206E00B100BFD4E90D
:104C30001710084400B100BF94F8980028B900206C
:104C400084F89900204600F03DF92068806920F042
:104C500010002168886100F053FB05460EE000F06B
:104C60004FFB401B0A2809D99834606840F00100C6
:104C70006060032004F898090120BDE7206880697E
:104C800000F008000828EAD02068806940F00100A0
:104C90002168886100F034FB05460EE000F030FB2F
:104CA000401B0A2809D99834606840F00100606010
:104CB000032004F8980901209EE72068806900F02D
:104CC00001000028EAD02068806940F002002168D5
:104CD0008861207C012806D12068806920F040008E
:104CE0002168886105E02068806940F04000216803
:104CF0008861607C012806D12068806940F480408A
:104D00002168886105E02068806920F4804021687E
:104D10008861A07C012806D12068806920F4805039
:104D20002168886105E02068806940F4805021682E
:104D300088612068806920F44070A1680843216878
:104D400088612068806920F0A4002168886120685B
:104D5000006920F0100021680861E068012806D190
:104D60002068806940F004002168886120E0E068E4
:104D7000F0B1E068022815D02068806940F080001A
:104D8000216888612068006940F01000216808618E
:104D9000E06803280CD12068806940F02000216879
:104DA000886105E02068806940F020002168886102
:104DB000207E401E4106E069401E41EA0020216A33
:104DC000491E0843A18A491E40EA01402168C86182
:104DD000A068B0F5407F0FD1A06A401EE16A491E6D
:104DE00040EA0121206B401E41EA0011A08C401EC8
:104DF00041EA00402168C860206E38B12068D0F8D0
:104E0000C000616E08432168C1F8C000D4E91710E2
:104E1000084460B12068D0F8C80020F0070001AA5B
:104E2000A16E52F8211008432168C1F8C800206C17
:104E300060B12068D0F8BC0020F0070001AA616CC6
:104E400052F8211008432168C1F8BC00A06C68B179
:104E50002068D0F8BC0020F0700101AAE06C52F884
:104E6000200041EA00102168C1F8BC00206D68B143
:104E70002068D0F8BC0020F4E06101AA606D52F80F
:104E8000200041EA00202168C1F8BC000C492068DC
:104E9000884205D16068806820F0030061688860FE
:104EA000002044F8940FA06001202071943C20461B
:104EB000FCF714FE064630469EE60000E8ED0008CA
:104EC00000A0004010B5B8B00446142132A8FBF78A
:104ED000ADFAC02102A8FBF7A9FA5449206888421C
:104EE00051D14FF400410020CDE9021048031E903B
:104EF00002A801F011FB08B1FCF76BFD4C480068FB
:104F0000401C4B4908600846006801280DD100BFCD
:104F10004848006840F480704649086008460068C8
:104F200000F48070019000BF00BF00BF41480C3802
:104F3000006840F002003F490C39086008460068EC
:104F400000F00200019000BF00BF4FF440703290AB
:104F500002203390012034900320359009203690B0
:104F600032A9354800F0C2F8402000F0CFF9802087
:104F700000F0CCF900220521132000F099FA13204B
:104F800000F082FA50E02D49206888424CD14FF45D
:104F900000410020CDE9021048031E9002A801F054
:104FA000BBFA08B1FCF715FD21480068401C2049F8
:104FB00008600846006801280DD100BF1D48006840
:104FC00040F480701B4908600846006800F4807057
:104FD000019000BF00BF00BF16480C38006840F0C9
:104FE000020014490C3908600846006800F002000D
:104FF000019000BF00BF602032900220339001205A
:105000003490032035900920369032A90A4800F0E8
:105010006DF8102000F07AF900220521142000F02C
:1050200047FA142000F030FA38B010BD00A000405C
:1050300078000020EC4402580004025800A400400C
:105040007047000070B504460D4607492068884245
:1050500009D1064A4021204605F09EF90221044864
:10506000006807F04BF970BD00A00040C4070020A5
:105070004C00002070B504460D4607492068884260
:1050800009D1064A4121204605F086F9022104484B
:10509000006807F033F970BD00A400404C140020F4
:1050A00050000020014691F8980001280CD1022000
:1050B00081F898000868806920F001000A68906112
:1050C0000020C1F89C007047D1F89C0040F004001B
:1050D000C1F89C000120F6E77047704770477047A1
:1050E000704770477047704770477047F8B5024681
:1050F0000B4600216F4DD7E001278F401E6806EA5E
:105100000704002C72D01E7906F00306012E04D08D
:105110001E7906F00306022E13D190684F00032675
:10512000BE40B0434F00DE68BE40304390605068E0
:1051300001268E40B0431E79C6F300168E403043E0
:1051400050601E7906F00306032E09D0D0684F0088
:105150000326BE40B0434F009E68BE403043D0603F
:105160001E7906F00306022E13D1CF0802F12006A5
:1051700056F827004E07F70E0F26BE40B0434F07E4
:10518000FF0E1E69BE403043CF0802F1200646F8EC
:10519000270010684F000326BE40B0431E7906F07A
:1051A00003064F00BE40304310605E6806F4403690
:1051B000002E78D000BF404E366846F002063E4FC3
:1051C0003E603E46366806F00206009600BF00BF0D
:1051D0003A4E8F0856F827008E07370F0F26BE402D
:1051E000B043374EB24202D100262EE05BE0354E8E
:1051F000B24201D1012628E0334EB24201D102264B
:1052000023E0324EB24201D103261EE0304EB242BC
:1052100001D1042619E02F4EB24201D1052614E037
:105220002D4EB24201D106260FE02C4EB24201D1E2
:1052300007260AE02A4EB24201D1082605E0294E8F
:10524000B24201D1092600E00A268F073F0FBE4077
:1052500030431A4E8F0846F827004FF0B0463068AA
:10526000A0435E6806F4801606B120434FF0B046B6
:1052700030607068A0435E6806F4001606B12043F3
:105280004FF0B04670606868A0435E6806F4003670
:1052900006B1204368602868A0435E6806F4803643
:1052A00006B120432860491C1E68CE40002E7FF4C2
:1052B00023AFF8BD80000058F44402580804005899
:1052C000000002580004025800080258000C02585E
:1052D000001002580014025800180258001C02580E
:1052E00000200258002402580AB1816101E00B0439
:1052F0008361704701480068000C70470010005C33
:1053000001480068704700008400002008B500BF15
:105310000949096841F00201074A1160114609680C
:1053200001F00201009100BF00BF04490968014378
:10533000024A116008BD0000F444025804040058F9
:105340000348006803490978084401490860704728
:10535000840000208C00002010B5032000F0E6F847
:1053600002F09EF910490968C1F303210F4A515C0C
:1053700001F01F0120FA01F40B48006800F00F0053
:105380001146085C00F01F0024FA00F0084908608C
:10539000084804600F2000F00FF808B1012010BD8C
:1053A00000F05AF80020FAE7184402585CEE0008B2
:1053B0009400002090000020F0B58BB00446102C23
:1053C0000AD200222146362000F072F8362000F082
:1053D0005BF81C48046002E001200BB0F0BD00BF88
:1053E0001948006840F01000174908600846006836
:1053F00000F01000019000BF00BF02A903A802F056
:10540000CFF8089E1EB902F027F9054602E002F027
:1054100023F945000D48B5FBF0F0471E0C480D4937
:10542000086040F2E7310B48C1604760002101612C
:10543000816003F006FA18B9064803F03BFACCE79E
:105440000120CAE788000020E844025840420F00CB
:1054500000100040683C002008B500BF0948006803
:1054600040F00200074908600846006800F00200AA
:10547000009000BF00BF00220F21901E00F018F81E
:1054800008BD0000F44402580146084600280DDB20
:1054900000BF00BF00F01F0301229A4043099B0098
:1054A00003F1E023C3F8002100BF00BF00BF704735
:1054B0002DE9F05F80460D46164606F039FA07469C
:1054C00039462A46334601F00700C0F1070ABAF10F
:1054D000040F02D94FF0040A01E0C0F1070AD146D7
:1054E00000F1040ABAF1070F02D24FF0000A01E0FE
:1054F000A0F1030AD4464FF0010A0AFA09FAAAF108
:10550000010A0AEA020A0AFA0CFA4FF0010B0BFA36
:105510000CFBABF1010B0BEA030B4AEA0B0421462F
:10552000404606F00DFABDE8F09F000000BF00F015
:105530000702064B19684FF6FF031940044B0B4353
:1055400043EA0221014B196000BF70470CED00E0F7
:105550000000FA0570B5044615480068C0F38000E5
:1055600048B91348006800F00700A04201D00120AC
:1055700070BD0020FCE70E48006820F007002043C3
:105580000B490860FFF7BCFE054607E0FFF7B8FED1
:10559000401BB0F57A7F01D90120E9E704480838BB
:1055A0000068C0F340300028F0D00020E0E70000A1
:1055B0000C48025810B502F029F805490968C1F3F2
:1055C0000211044A515C01F01F01C84010BD0000E7
:1055D000204402585CEE000870B50146844D2D68E9
:1055E00005F00303824D2D68C5F30510804D2D1D78
:1055F0002D6805F001047E4D0C352D68C5F3CC05F2
:1056000015FB04F501EE105AB8EE411AF0EE410A0E
:1056100000286FD023B1012B4ED0022B6BD16BE051
:10562000734D283D2D68C5F340153DB3704D283DA1
:105630002D68C5F3C1066F4D25FA06F201EE102A5A
:10564000F8EE411A01EE100AB8EE411A81EE812AF5
:105650009FED691AC0EE811A654D08352D68C5F3B6
:10566000080501EE105AB8EE411A31EE811AF7EE34
:10567000001A31EE211A22EE010A1CE001EE100A96
:10568000B8EE411ADFED5D1A81EE812A9FED5A1ABC
:10569000C0EE811A564D08352D68C5F3080501EE98
:1056A000105AB8EE411A31EE811AF7EE001A31EEB7
:1056B000211A22EE010A5BE001EE100AB8EE411A4F
:1056C000DFED4F1A81EE812A9FED4B1AC0EE811A51
:1056D000474D08352D68C5F3080501EE105AB8EEA0
:1056E000411A31EE811AF7EE001A31EE211A22EE3C
:1056F000010A3DE077E01DE001EE100AB8EE411A24
:105700009FED402AC2EE011A9FED3B1A80EE812ADE
:10571000374D08352D68C5F3080501EE105AB8EE6F
:10572000411A32EE011AB7EE002A31EE021A21EECA
:10573000810A1DE001EE100AB8EE411ADFED2F1AC2
:1057400081EE812A9FED2C1AC0EE811A284D083572
:105750002D68C5F3080501EE105AB8EE411A31EE76
:10576000811AF7EE001A31EE211A22EE010A00BF6B
:1057700000BF1F4D08352D68C5F3462501EE105AB0
:10578000B8EE411AF7EE001A31EE211AC0EE011AF6
:10579000BCEEE11A81ED001A154D08352D68C5F3F0
:1057A000064501EE105AB8EE411AF7EE001A31EE36
:1057B000211AC0EE011ABCEEE11A81ED011A0C4D5E
:1057C00008352D68C5F3066501EE105AB8EE411A8A
:1057D000F7EE001A31EE211AC0EE011ABCEEE11A02
:1057E00081ED021A03E000250D604D608D6070BDF3
:1057F000284402580090D003000000460024744C56
:105800000024744A0024F44A70B50146844D2D6882
:1058100005F00303824D2D68C5F30530804D2D1D25
:105820002D68C5F300147E4D14352D68C5F3CC05E5
:1058300015FB04F501EE105AB8EE411AF0EE410ADC
:1058400000286FD023B1012B4ED0022B6BD16BE01F
:10585000734D283D2D68C5F340153DB3704D283D6F
:105860002D68C5F3C1066F4D25FA06F201EE102A28
:10587000F8EE411A01EE100AB8EE411A81EE812AC3
:105880009FED691AC0EE811A654D10352D68C5F37C
:10589000080501EE105AB8EE411A31EE811AF7EE02
:1058A000001A31EE211A22EE010A1CE001EE100A64
:1058B000B8EE411ADFED5D1A81EE812A9FED5A1A8A
:1058C000C0EE811A564D10352D68C5F3080501EE5E
:1058D000105AB8EE411A31EE811AF7EE001A31EE85
:1058E000211A22EE010A5BE001EE100AB8EE411A1D
:1058F000DFED4F1A81EE812A9FED4B1AC0EE811A1F
:10590000474D10352D68C5F3080501EE105AB8EE65
:10591000411A31EE811AF7EE001A31EE211A22EE09
:10592000010A3DE077E01DE001EE100AB8EE411AF1
:105930009FED402AC2EE011A9FED3B1A80EE812AAC
:10594000374D10352D68C5F3080501EE105AB8EE35
:10595000411A32EE011AB7EE002A31EE021A21EE98
:10596000810A1DE001EE100AB8EE411ADFED301A8F
:1059700081EE812A9FED2C1AC0EE811A284D103538
:105980002D68C5F3080501EE105AB8EE411A31EE44
:10599000811AF7EE001A31EE211A22EE010A00BF39
:1059A00000BF1F4D10352D68C5F3462501EE105A76
:1059B000B8EE411AF7EE001A31EE211AC0EE011AC4
:1059C000BCEEE11A81ED001A154D10352D68C5F3B6
:1059D000064501EE105AB8EE411AF7EE001A31EE04
:1059E000211AC0EE011ABCEEE11A81ED011A0C4D2C
:1059F00010352D68C5F3066501EE105AB8EE411A50
:105A0000F7EE001A31EE211AC0EE011ABCEEE11ACF
:105A100081ED021A03E000250D604D608D6070BDC0
:105A2000284402580090D003000000460024744C23
:105A30000024744A0024F44A70B50146844D2D6850
:105A400005F00303824D2D68C5F30550804D2D1DD3
:105A50002D68C5F300247E4D1C352D68C5F3CC059B
:105A600015FB04F501EE105AB8EE411AF0EE410AAA
:105A700000286FD023B1012B4ED0022B6BD16BE0ED
:105A8000734D283D2D68C5F340153DB3704D283D3D
:105A90002D68C5F3C1066F4D25FA06F201EE102AF6
:105AA000F8EE411A01EE100AB8EE411A81EE812A91
:105AB0009FED691AC0EE811A654D18352D68C5F342
:105AC000080501EE105AB8EE411A31EE811AF7EED0
:105AD000001A31EE211A22EE010A1CE001EE100A32
