:020000040800F2
:10000000B844072471030008F7DC000829C600087B
:1000100095D90008A1140008F900010800000000AB
:10002000000000000000000000000000B102000815
:10003000B3430008000000000D030008DDEE0008D7
:100040008B0300088B0300088B0300088B03000858
:100050008B0300088B0300088B0300088B03000848
:100060008B0300088B0300088B030008893D000800
:10007000993D0008A93D0008B93D0008C93D0008A8
:10008000D93D00088B0300088B030008F9430008E2
:10009000754400088B0300088B0300088B030008DD
:1000A0008B0300088B0300088B0300088B030008F8
:1000B0008B0300088B0300088B0300088B030008E8
:1000C0008B0300088B0300088B0300088B030008D8
:1000D0008B030008D1FF00088B030008E1FF000834
:1000E0008B0300088B030008000000008B0300084E
:1000F0008B0300088B0300088B0300088B030008A8
:100100008B0300088B0300088B0300088B03000897
:10011000FDF300088B03000869F100088B03000859
:100120008B0300088B0300088B0300088B03000877
:100130008B0300088B0300088B0300088B03000867
:1001400000000000000000000000000000000000AF
:100150008B0300088B0300088B0300088B03000847
:100160008B0300088B0300088B0300088B03000837
:100170008B0300088B0300088B03000800000000BD
:100180008B0300088B0300088B0300088B03000817
:100190008B0300088B0300088B0300088B03000807
:1001A0008B0300088B0300088B0300088B030008F7
:1001B0008B0300088B0300088B0300088B030008E7
:1001C0008B0300088B0300088B0300088B030008D7
:1001D0008B0300088B0300088B0300088B030008C7
:1001E0008B0300088B0300088B0300088B030008B7
:1001F0008B0300088B0300088B0300088B030008A7
:100200008B0300088B0300088B0300088B03000896
:100210008B0300088B0300088B0300088B03000886
:100220008B0300088B0300088B030008000000000C
:100230008B0300088B030008000000008B030008FC
:100240008B0300088B0300088B0300088B03000856
:100250008B0300088B0300088B0300088B03000846
:100260008B0300088B0300088B0300088B03000836
:100270008B0300088B0300088B03000800000000BC
:100280008B0300088B0300088B03000800000000AC
:10029000000000008B030008DFF810D000F04CFDD8
:1002A00000480047B9200108AFF30080B844072494
:1002B0002C4B19680868B0E8F04F80F30988BFF349
:1002C0006F8F4FF0000080F311887047000000002E
:1002D00008480068006880F308884FF0000080F349
:1002E000148862B661B6BFF34F8FBFF36F8F00DF24
:1002F00000BF00BF08ED00E0DFF80C00016841F42A
:1003000070010160704700BF88ED00E0EFF30980E5
:10031000BFF36F8F134B1A681EF0100F08BF20ED4C
:10032000108A20E9F04F106009B44FF0500080F3BC
:100330001188BFF34F8FBFF36F8F13F045FF4FF05E
:10034000000080F3118809BC19680868B0E8F04F14
:100350001EF0100F08BFB0EC108A80F30988BFF3BD
:100360006F8F7047B8000024EFF3058070470000DE
:100370000648804706480047FEE7FEE7FEE7FEE73F
:10038000FEE7FEE7FEE7FEE7FEE7FEE731F00008E6
:10039000990200082DE9F05F0546002092469B4631
:1003A00088460646814640241BE02846414647468B
:1003B000224600F0A2F853465A46C01A914110D383
:1003C00011461846224600F089F82D1A67EB0108FD
:1003D0004F4622460120002100F080F817EB00096B
:1003E0004E41201EA4F10104DFDC484631462A4676
:1003F0004346BDE8F09FA0F14101192900D8203003
:10040000704710B540EA01040346A40703D009E091
:1004100010C9121F10C3042AFAD203E011F8014BCD
:1004200003F8014B521EF9D210BDD2B201E000F820
:10043000012B491EFBD270470022F6E710B5134688
:100440000A4604461946FFF7F0FF204610BD421C3D
:1004500010F8011B0029FBD1801A704710B500224B
:1004600000E0521C835C8C5CA34201D1002BF8D1CC
:10047000D8B2E1B2401A10BD30B50546002003469F
:1004800000E05B1C934205D2EC5CC85C201A01D1F1
:10049000002CF6D130BD70B506460FF093FF04680E
:1004A00005460A220021304600F056FA2C6070BD45
:1004B00030B50B46014600202022012409E021FA34
:1004C00002F59D4205D303FA02F5491B04FA02F531
:1004D0002844151EA2F10102F1DC30BD202A04DB04
:1004E000203A00FA02F1002070479140C2F1200347
:1004F00020FA03F3194390407047202A04DB203A86
:1005000021FA02F00021704721FA02F3D040C2F133
:100510002002914008431946704700002DE9FF4F23
:10052000087883B09946FF2805D0491C2D2804D0AF
:100530000024002008E000200BE00124F9E700EB94
:10054000800003EB4000491C0B78FF2BF7D104B16E
:10055000404200230293147819461D462D2C01D0E9
:100560002B2C04D1521C2D2C13D000240294AA460B
:100570001478FF2C0FD00A25A3FB057801FB058119
:100580004FF0000C03FB0C11521CE3194AEB010164
:10059000EEE70124EAE7814453EA010002D019F5AD
:1005A000C87F06DA03980021C0E9001107B0BDE852
:1005B000F08F0025AE4E2F46DFF8B882184600F0C7
:1005C000A6FCCDE90001B9F1000002DAC9F100048E
:1005D00000E004460023A74A1AEB030B42EB045A3F
:1005E00012E0E00707D02A4633463846414600F07D
:1005F00092FA074688462A4633461046194600F0C6
:100600008AFA05460E466410002CEAD1DDE90001A5
:10061000B9F1000F5A46534606DA00F0EEFA3A46B0
:10062000434600F0EAFA05E000F075FA3A46434620
:1006300000F071FA029A0AB181F00041039AC2E90E
:100640000001B3E72DE9FF4F1F468DB0D7E9014602
:100650004FF0FF382E2045464FF000090B90B96946
:100660006D1C0E988847396A824688470028F6D163
:10067000BAF1FF3F0AD024F4D064002E11DDBAF1A4
:100680002B0F08D0BAF12D0F0BD102E0404611B06C
:100690008DE744F48064B9696D1C0E9888478246E2
:1006A000761E6946600501D52D2000E02B208DF8CF
:1006B000000001F1010B0DF1200809E0B9696D1C82
:1006C0000E98884782460F9844F40074761E0560A1
:1006D000002E02DDBAF1300FF0D00B998A453ED1E1
:1006E00044F0800406E00F99681CA9F1010944F464
:1006F00000740860B9696D1C761E0E9888478246A2
:100700003028F0D02BE00B998A4505D1200603D480
:1007100044F08004761E18E050460FF083FF08B3C3
:100720000DF11301761E44F400748B4508D2AAF132
:1007300030000BF8010B200607D5A9F1010003E0FA
:10074000200602D409F101008146A00502D50F99C7
:10075000681C0860B9696D1C0E9888478246002E97
:10076000D1DC53E0002E51DDBAF1650F02D0BAF1B1
:10077000450F4BD1A00549D5B9696D1C24F44074CF
:10078000761E0E9888478246002E0CDD2B2804D05A
:10079000BAF12D0F07D144F48074B9696D1C0E981D
:1007A00088478246761EE00501D52D2100E02B21E9
:1007B00008F8011BCDF82C8021E00DF12901761EEF
:1007C00044F4007488450CD2AAF1300010F0FF0008
:1007D00088F8000002D10B99884509D908F1010871
:1007E00006E0E00501D5244801E042F20F708146A1
:1007F000B9696D1C0E98884782460F980560002ED7
:1008000004DD50460FF00EFF0028D6D1F9690E988E
:100810008847FF208BF8000088F800000020069031
:1008200007904B466A4608A906A8FFF777FEA00581
:1008300002D46FF001002AE714F0240F0AD0E00779
:1008400014D1DDE906123868031D3B600068C0E979
:1008500000120BE0DDE9060100F065FB0146E00750
:1008600004D13868021D3A600068016028460EE72E
:10087000000014400000F03FF1D8FFFF426842B191
:10088000016811F8013B23B1521EC0E9001218465D
:1008900070470121C160881E704742685AB1C36821
:1008A000016843B983688B4205D0491E521CC0E9D8
:1008B0000012002070474FF0FF3070470FB4002344
:1008C00000B589B00CA900910B996FF00042CB6084
:1008D0001E4B06931E4B07930423CDE901321D4A9C
:1008E000089202466B460020FFF7ACFE09B05DF8A7
:1008F00014FB70B586B006464FF0FF300091CDE98D
:100900000101002015460C4604903246694604A8B1
:10091000FFF7D4FF02460498211825B108B1084614
:1009200000E020462860049800280DD0002A02DD4F
:100930000098884208D0081B0094CDE90104324693
:10094000694604A8FFF7BAFF06B070BD7D0800082D
:100950009B080008890D00082DE9F04791460F46D5
:1009600080460446002614F8015B2DB100F008FA19
:100970000068405DC007F6D12B2D02D02D2D18D078
:10098000641E4A463946204600F015FA27B13968F8
:10099000A14201D1C7F8008071054FF002040BD5C8
:1009A0004042002803DD0FF00DFD0460A007BDE804
:1009B000F08746F48066E4E70028F8DA0FF002FDDD
:1009C00004606FF00040F2E72DE9FE4F804681EAB7
:1009D0000300C00F0C46009021F0004123F00045B9
:1009E000B8EB0200A94105D24046214690461C467C
:1009F0000B46024623F00040104347D0270DC7F3B3
:100A00000A00C3F30A510290401A019040286BDAA1
:100A1000C3F3130040F4801B0098924620B10023DA
:100A2000D2EB030A63EB0B0B01985946C0F140026D
:100A30005046FFF753FD06460D4650465946019A6B
:100A400000F08CF910EB08006141002487EA115294
:100A500084EAE7731A4340D0009A62B3019A012AEC
:100A60004FEA075215DC001B61EB02014FF0004218
:100A700002EA0752CDE90042001C41F580113246DE
:100A80002B4600F0F6F903B0BDE8F08F4046214652
:100A9000F9E7001B61EB0201001C41F5801300180F
:100AA0005B412018A2F5001747EB030140EAD5701F
:100AB000B6196D4111E06D084FEA360645EAC0757A
:100AC0004FEA0752001B61EB0201001C41F5801147
:100AD00049084FEA30000019514132462B4603B015
:100AE000BDE8F04F00F0B6B90098012240000023A5
:100AF000D0EB020263EBE073009821464FEAE0740A
:100B0000B8EB000061EB0401E9E783F000435BE729
:100B100081F0004158E72DE9FE4F81EA030404F01B
:100B2000004421F0004100944FF0000B23F00043FB
:100B300050EA01045ED052EA03045BD0C3F30A54C6
:100B4000C1F30A552C44A4F2F3340194A0FB0254DF
:100B5000C1F3130141F48011C3F3130343F4801371
:100B600001FB024400FB034E840A970A44EA8154C5
:100B700047EA8357A4FB076802958D0A05FB0785A2
:100B80004FEA932C04FB0C542705029D4FEA0658AC
:100B900047EA1637B5EB08056EEB070C870E920E89
:100BA00047EA811742EA8312A7FB0201B6EB0B0169
:100BB00064EB00042B0D43EA0C335E1844EB1C502D
:100BC000DA465146E7FB0201C5F313044FEA0B3343
:100BD00043EA14534FEA0432019C43EA0603A4F1AA
:100BE0000C040294009CCDE900B400F042F903B07B
:100BF000BDE8F08F00200146F9E72DE9F04D81EACC
:100C0000030404F0004B21F0004514464FF0000AA5
:100C100023F0004150EA050220D054EA01021DD021
:100C2000C5F30A570246C5F31303C1F31300C1F31A
:100C30000A5640F4801543F48013A7EB0608101BF6
:100C4000D64608F2FD3873EB050002D308F101081F
:100C500001E092185B41B8F1000F03DA0020014671
:100C6000BDE8F08D00204FF48011064684460EE06A
:100C7000171B73EB050705D3121B63EB0503064334
:100C80004CEA010C49084FEA300092185B4150EAE7
:100C90000107EDD152EA030012D082EA040083EA90
:100CA0000501084305D0101BAB4106D201220023E9
:100CB00006E000224FF0004302E06FF00102531003
:100CC0001AEB06004CEB085110EB0A0041EB0B014C
:100CD000BDE8F04D00F0BEB8C1F30A52C1F31301F4
:100CE00040F2FF3341F480119A4202DA00200146BB
:100CF000704740F233439A42A2F2334202DC52423E
:100D0000FFF7FBBBFFF7EABB30B5041E71F100042F
:100D100004DB4FF00044404264EB0101141E73F108
:100D2000000405DB1C464FF00043524263EB040312
:100D3000994208BF904230BD064C074D06E0E0687E
:100D400040F0010394E8070098471034AC42F6D312
:100D5000FFF7A6FAE06A0108006B0108202A06DB0B
:100D6000CB17203A41FA02F043EAE07306E041FA79
:100D700002F3D040C2F12002914008431946704767
:100D8000004870478C65010810B50446FFF7F8FF6E
:100D90000068005D00F0010010BD3A2800D2303834
:100DA00020F02002412A01D3A2F13700884201D36A
:100DB0004FF0FF3070472DE9F05F82460078002742
:100DC00015468B460AF10104B946302801D09DB181
:100DD00013E014F8010B0127782803D0582801D01C
:100DE00045B10AE00DB1102D07D10027102514F8E8
:100DF000010B02E0082500E00A250026B0460EE0BF
:100E000005FB080005FB06F1012701EB10461FFA60
:100E100080F8B6F5803F00D3B94614F8010B294697
:100E2000FFF7BBFF0028EBDABBF1000F05D00FB1D5
:100E3000641E00E05446CBF80040B9F1000F06D024
:100E40000FF0C0FA02210160C81EBDE8F09F48EA19
:100E50000640FAE710B5141E73F1000408DA401CCE
:100E600041F1000192185B411A4301D120F00100C9
:100E700010BD2DE9F04D92469B4611B1B1FA81F2B9
:100E800002E0B0FA80F220329046FFF727FB0446DA
:100E90000F4640EA0A0041EA0B0153465A4608430E
:100EA00013D0114653EA010019D0C8F14002504650
:100EB000FFF723FB05460E46504659464246FFF7CC
:100EC0000DFB084305D0012004E020463946BDE86B
:100ED000F08D0020054346EAE0762C4337430A981C
:100EE0006305E40AA0EB08000022FD0A44EA475427
:100EF0000A3002D500200146E9E7010510196941D1
:100F0000DDE9084500196941BDE8F04DA2E70EB5DD
:100F100040F2334202920022CDE900221346FFF74D
:100F2000A8FF03B000BD01F0004330B421F0004140
:100F300050EA010206D00A0DA2F56072C1F3130156
:100F4000002A02DC30BC00207047440F44EAC10490
:100F5000C100E01830BC00EBC250AFF300800029A4
:100F6000A8BF7047401C490008BF20F0010070472F
:100F700010B4B0FA80FC00FA0CF050EA010404BF8F
:100F800010BC704749B1CCF1200421FA04F411FAE5
:100F90000CF118BF012121430843A3EB0C01CB1D29
:100FA0004FEA00614FEA102042BF002010BC70479A
:100FB00000EBC35010440029A4BF10BC7047401C74
:100FC000490008BF20F0010010BC704770B58C18B4
:100FD00010F8015B15F0070301D110F8013B2A114D
:100FE00006D110F8012B03E010F8016B01F8016B3A
:100FF0005B1EF9D12B0705D40023521E0DD401F836
:10100000013BFAE710F8013BCB1A921C03E013F8FE
:10101000015B01F8015B521EF9D5A142D8D3002033
:1010200070BD000070B504464F492068884203D067
:101030004E492068884208D14D48006800F440308D
:1010400008B1012009E0002007E04A48006800F4E8
:10105000403008B1012000E00020B8B109F0C4FA26
:1010600005466068B0F5803F06D0B0F5003F04D07B
:10107000B0F5403F08D105E000BF6068000CB5FB4B
:10108000F0F502E0AD0800E000BF2BE04FF40020D7
:10109000002107F0D7FD05466068C0F31101F9B9DA
:1010A00080140C281CD2DFE800F01B060708090A90
:1010B0000B111315171900BF00BF00BF00BF00BF01
:1010C0006068800C4000B5FBF0F50AE02D0908E0EF
:1010D0006D0906E0AD0904E0ED0902E02D0A00E02B
:1010E00000BF00BF07F0F4F841F20301884210D8B6
:1010F0002148854206D92068806840F480702168C4
:1011000088602FE02068806820F480702168886003
:1011100028E06D081948854206D82068806820F4C8
:101120004070216888601DE01548854208D8206815
:10113000806820F4407040F480702168886011E07D
:101140001048854208D82068806820F4407040F438
:1011500000702168886005E02068806840F4407075
:101160002168886070BD000000200240002102401C
:101170000823024008630258002D3101105E5F0011
:1011800020BCBE0040787D012DE9F05F0446884612
:101190004FF00009474620680BF08CFE824620681D
:1011A0000BF074FE8346BAF1000F02D1BBF1000FC1
:1011B00072D02068C06800F0007000B3607D012824
:1011C0001DD1207D01281AD101270FE03348814528
:1011D0000AD3606D40F010006065A06D40F0010022
:1011E000A0650120BDE8F09F09F1010920680068B1
:1011F000C0F380100028E9D0402021680860022F49
:1012000010D020680BF056FE60B120680BF043FE52
:1012100040B920688168224A114041F01001816084
:1012200000BF00BF012F10D020680BF02FFE60B16F
:1012300020680BF030FE40B920688168184A1140E0
:1012400041F02001816000BF00BF022F03D0032FB7
:1012500003D10C2503E0082501E0042500BF00BFF1
:1012600007F03CF8064612E007F038F8801B052826
:101270000DD920688068284048B1606D40F01000AA
:101280006065A06D40F00100A0650120AAE720681C
:10129000806828400028E7D10020A3E700DC0C008C
:1012A000C0FFFF7F70B5044620680BF0F4FD0646D2
:1012B00020680BF0F5FD98B396BB2068806800F0BD
:1012C0000D0001280AD1206881681A4A1140891C42
:1012D000816000BF03202168086009E0606D40F074
:1012E00010006065A06D40F00100A065012070BD98
:1012F00006F0F4FF054614E006F0F0FF401B02285C
:101300000FD92068806800F0010050B1606D40F096
:1013100010006065A06D40F00100A0650120E6E7C7
:1013200005E02068806800F001000028E4D100207A
:10133000DDE70000C0FFFF7F70B5044620680BF0BA
:10134000AFFD002851D1206880682949084048B184
:10135000606D40F010006065A06D40F00100A06578
:10136000012070BD20680BF07FFD06F0B7FF054639
:10137000204A2168914203D01F4A2168914201D13D
:101380001E4900E01E4908460BF07BFD06461A493F
:101390002068884201D1174800E02068216888420F
:1013A00000D00EBB1AE020680BF07AFD10B920685F
:1013B0000BF05AFD06F092FF401B02280ED9206860
:1013C000006800F0010048B9606D40F010006065F1
:1013D000A06D40F00100A0650120C2E72068006810
:1013E00000F001000028DED000BF0020B9E70000B7
:1013F0003F00008000200240002102400023024004
:10140000006302582DE9F04107468846144600253E
:10141000002609E04146384603F04EFB054405200E
:1014200010F0AAFE701CC6B2A642F3DBB5FBF4F0C6
:1014300080B2BDE8F081000010B50446022C05D151
:10144000032203490348FFF7DDFF10BD0020FCE73E
:10145000002090369C6B012419E04FF0FF330022EE
:1014600001210B48006810F0E7FE054605F0010079
:1014700060B1012404E020460DF058FE601CC4B2A7
:10148000022CF8DD034904A00EF070FF00BFE4E772
:1014900078000024E85B010825730D0A00000000B5
:1014A00000BFFEE72DE9F04106460C46B5780DB1C8
:1014B000022D01DDBDE8F081681EC5B2314620680D
:1014C00000F0BAF85949084400287DD1607900F04D
:1014D0008000002864D103F035FA00F548604FF42D
:1014E0007A716943627902F00F02521E20F81120CE
:1014F00003F028FA00F6A2704FF47A71694362791A
:10150000C2F3011220F8112003F01CFA00F6A470B7
:101510004FF47A716943A27902F0030220F8112096
:1015200003F010FA00F6A6704FF47A716943A279BD
:10153000C2F3810220F8112003F004FA00F6A8702B
:101540004FF47A716943A279C2F3011220F8112095
:1015500003F0F8F900F6AA704FF47A716943A279A2
:10156000920920F81120217A607A41EA002703F0DD
:10157000E9F900F682404FF47A716943A7F1280235
:1015800020F8112003F0DEF900F684404FF47A7160
:101590006943A37AE27A43EA022220F8112040E06C
:1015A00003F0D0F900F548604FF47A71694362792D
:1015B00002F00F02521E20F8112003F0C3F900F6CA
:1015C000A2704FF47A7100E02CE069436279C2F3B3
:1015D000011220F8112003F0B5F900F686404FF40F
:1015E0007A716943A379E27943EA022220F8112053
:1015F00003F0A8F900F688404FF47A716943237A22
:10160000627A43EA022200EE102AB8EEC00B9FED88
:10161000081B20EE010BBCEEC00B10EE102A20F8C8
:10162000112000E000BF00BF00BF43E7FF4300E719
:10163000FA7E6ABC7493583F0246487910B101287B
:1016400008D101E0104670470B79C87803EB002001
:10165000101AF8E71046F6E72DE9F04107460C4668
:10166000BD780DB1022D01DDBDE8F081681EC5B267
:1016700039462068FFF7E0FFFE4A811A90427CD08D
:101680001DDC81B2002941F0BB820014A0F5C050DE
:101690001038112881F0B482DFE810F02F005B00D1
:1016A0008C00BB00E6001F0158019101CA01B20A7B
:1016B000B20AB20AB20AB20AB20AB20A0602B1F514
:1016C000441F73D00CDCB1F5702F70D0B1F5F81F4A
:1016D0006ED0B1F53C1F6CD0B1F5401FD3D1ACE258
:1016E000B1F5481F7ED0B1F59E0F7CD0B1F5A00FAB
:1016F0007AD0B1F5500FC6D1FEE303F023F947F2DB
:10170000102142184FF4FA6068436379A17943EAE3
:10171000012122F8101003F015F947F212214218A6
:101720004FF4FA606843E379217A43EA012122F811
:10173000101003F007F947F2142142184FF4FA6031
:101740006843637AA17A43EA012122F8101001F07C
:1017500058BA03F0F7F847F2162142184FF4FA602E
:1017600068436379A17943EA012122F8101003F05C
:10177000E9F847F21821421800E0C0E14FF4FA609E
:101780006843E379217A43EA012122F8101003F03B
:10179000D9F847F21A2142184FF4FA606843637A85
:1017A000A17A43EA012122F81010D0E77EE2DFE1BE
:1017B00009E209E203F0C6F847F21C2142184FF48F
:1017C000FA6068436379A17943EA012122F8101095
:1017D00003F0B8F847F21E2142184FF4FA6068434C
:1017E000E37902E09BE2D2E2FDE3217A43EA0121C0
:1017F00022F8101003F0A6F847F2202142184FF407
:10180000FA606843637AA17A43EA012122F8101052
:101810009DE703F097F847F2222142184FF4FA604F
:1018200068436379A17943EA012122F8101003F09B
:1018300089F847F2242142184FF4FA606843E379AB
:10184000217A43EA012122F8101003F07BF847F2D5
:10185000262142184FF4FA606843637AA17A43EA7A
:10186000012122F8101072E703F06CF847F22821EA
:1018700042184FF4FA6068436379A17943EA012181
:1018800022F8101003F05EF847F22A2142184FF4B4
:10189000FA606843E379217A43EA012122F81010C3
:1018A00003F050F847F22C2142184FF4FA606843D5
:1018B000637AA17A43EA012122F8101003F042F87A
:1018C00047F22E2142184FF4FA606843E37A217BF5
:1018D00043EA012122F8101039E703F033F847F208
:1018E000302142184FF4FA6068436379A17943EAE2
:1018F000012122F8101003F025F847F23221421896
:101900004FF4FA606843E379217A43EA012122F82F
:10191000101003F017F847F2342142184FF4FA6020
:101920006843637AA17A43EA012122F8101003F098
:1019300009F847F2362142184FF4FA606843E37A17
:10194000217B43EA012122F8101000E702F0FAFFA0
:1019500047F2382142184FF4FA6068436379A1795D
:1019600043EA012122F8101002F0ECFF47F23A217D
:1019700042184FF4FA606843E379217A43EA01217F
:1019800022F8101002F0DEFF47F23C2142184FF41B
:10199000FA606843637AA17A43EA012122F81010C1
:1019A00002F0D0FF47F23E2142184FF4FA6068433C
:1019B000E37A217B43EA012122F81010C7E602F006
:1019C000C1FF47F2402142184FF4FA60684363793F
:1019D000A17943EA012122F8101002F0B3FF47F287
:1019E000422142184FF4FA606843E379217A43EACE
:1019F000012122F8101002F0A5FF47F244214218FD
:101A00004FF4FA606843637AA17A43EA012122F82D
:101A1000101002F097FF47F2462142184FF4FA6087
:101A20006843E37A217B43EA012122F810108EE615
:101A300002F088FF47F2482142184FF4FA606843E9
:101A40006379A17943EA012122F8101002F07AFFAC
:101A500047F24A2142184FF4FA606843E379217A49
:101A600043EA012122F8101002F06CFF47F24C21EA
:101A7000421801E0000021184FF4FA606843637ACD
:101A8000A17A43EA012122F8101002F05BFF47F22D
:101A90004E2142184FF4FA606843E37A217B43EA0F
:101AA000012122F8101052E602F04CFF47F25021BB
:101AB00042184FF4FA6068436379A17943EA01213F
:101AC00022F8101002F03EFF47F2522142184FF464
:101AD000FA606843E379217A43EA012122F8101081
:101AE00002F030FF47F2542142184FF4FA60684385
:101AF000637AA17A43EA012122F8101027E602F066
:101B000021FF47F2562142184FF4FA606843637987
:101B1000A17943EA012122F8101002F013FF47F2E5
:101B2000582142184FF4FA606843E379217A43EA76
:101B3000012122F8101002F005FF47F25A21421845
:101B40004FF4FA606843637AA17A43EA012122F8EC
:101B5000101002F0F7FE47F25C2142184FF4FA60D1
:101B60006843E37A217B43EA012122F81010EEE575
:101B700002F0E8FE47F25E2142184FF4FA60684333
:101B80006379A17943EA012122F8101002F0DAFE0C
:101B900047F2602142184FF4FA606843E379217AF2
:101BA00043EA012122F8101002F0CCFE47F2622134
:101BB00042184FF4FA606843637AA17A43EA01213C
:101BC00022F81010C3E5C2E502F0BCFE47F268211E
:101BD00042184FF4FA6068436379A17943EA01211E
:101BE00022F8101002F0AEFE47F26A2142184FF4BC
:101BF000FA606843E379217A43EA012122F8101060
:101C000002F0A0FE47F26C2142184FF4FA606843DC
:101C1000637AA17A43EA012122F8101002F092FEC1
:101C200047F26E2142184FF4FA606843E37A217B51
:101C300043EA012122F8101089E502F083FE47F201
:101C4000702142184FF4FA6068436379A17943EA3E
:101C5000012122F8101002F075FE47F2722142189D
:101C60004FF4FA606843E379217A43EA012122F8CC
:101C7000101002F067FE47F2742142184FF4FA6028
:101C80006843637AA17A43EA012122F8101002F036
:101C900059FE47F2762142184FF4FA606843E37A1E
:101CA000217B43EA012122F8101050E502F04AFEA0
:101CB00047F2782142184FF4FA6068436379A179BA
:101CC00043EA012122F8101002F03CFE47F27A218B
:101CD00042184FF4FA606843E379217A43EA01211C
:101CE00022F8101002F02EFE47F27C2142184FF429
:101CF000FA606843637AA17A43EA012122F810105E
:101D000002F020FE47F27E2142184FF4FA60684349
:101D1000E37A217B43EA012122F8101017E502F053
:101D200011FE00F5E5404FF4FA6169436379A27949
:101D300043EA022220F8112002F004FE47F2822139
:101D400042184FF4FA606843E379217A43EA0121AB
:101D500022F8101002F0F6FD47F2842142184FF4E9
:101D6000FA606843637AA17A43EA012122F81010ED
:101D700002F0E8FD47F2862142184FF4FA6068430A
:101D8000E37A217B43EA012122F81010DFE4617934
:101D9000A07941EA002602F0D5FD47F2C051014486
:101DA0004FF4FA60684306F0010221F8102002F0B7
:101DB000C9FD47F2C25101444FF4FA606843C6F3CB
:101DC000400221F8102002F0BDFD47F2C451014449
:101DD0004FF4FA606843C6F3800221F8102002F045
:101DE000B1FD47F2C65101444FF4FA606843C6F3AF
:101DF000001221F8102002F0A5FD47F2C85101445D
:101E00004FF4FA606843C6F3401221F81020E179DC
:101E1000207A41EA002602F095FD47F2CA510144BA
:101E20004FF4FA60684306F0010221F8102002F036
:101E300089FD47F2CC5101444FF4FA606843C6F380
:101E4000400221F8102002F07DFD47F2CE510144FE
:101E50004FF4FA606843C6F3800221F8102002F0C4
:101E600071FD47F2D05101444FF4FA606843C6F364
:101E7000801221F8102002F065FD47F2D251014492
:101E80004FF4FA606843C6F3C01221F8102002F044
:101E900059FD47F2D45101444FF4FA606843C6F348
:101EA000002221F8102002F04DFD47F2D6510144E6
:101EB0004FF4FA606843C6F3402221F8102002F084
:101EC00041FD47F2D85101444FF4FA606843C6F32C
:101ED000802221F8102002F035FD47F2DA5101444A
:101EE0004FF4FA606843C6F3C02221F8102002F0D4
:101EF00029FD47F2DC5100E05AE301444FF4FA6057
:101F00006843C6F3003221F8102002F01BFD47F2AF
:101F1000DE5101444FF4FA606843C6F3403221F8C1
:101F2000102002F00FFD47F2E05101444FF4FA6037
:101F30006843C6F3803221F8102002F003FD47F217
:101F4000E25101444FF4FA606843F20B21F810208B
:101F5000617AA07A41EA002602F0F4FC47F2E451EB
:101F600001444FF4FA60684306F0010221F81020A2
:101F700002F0E8FC47F2E65101444FF4FA6068438E
:101F8000C6F3400221F8102002F0DCFC47F2E851D1
:101F900001444FF4FA606843C6F3800221F8102030
:101FA00002F0D0FC47F2EA5101444FF4FA60684372
:101FB000C6F3C00221F8102002F0C4FC47F2EC5135
:101FC00001444FF4FA606843C6F3001221F8102070
:101FD00002F0B8FC47F2EE5101444FF4FA60684356
:101FE000C6F3401200E024E121F8102002F0AAFC20
:101FF00047F2F05101444FF4FA606843C6F380128F
:1020000021F8102002F09EFC47F2F25101444FF4F7
:10201000FA606843C6F3C01221F8102002F092FC67
:1020200047F2F45101444FF4FA606843C6F30022CA
:1020300021F8102002F086FC47F2F65101444FF4DB
:10204000FA606843C6F3402221F8102002F07AFCBF
:1020500047F2F85101444FF4FA606843C6F3802216
:1020600021F8102002F06EFC47F2FA5101444FF4BF
:10207000FA606843C6F3C02221F8102002F062FC27
:1020800047F2FC5101444FF4FA606843C6F3003252
:1020900021F8102002F056FC47F2FE5101444FF4A3
:1020A000FA606843C6F3403221F8102002F04AFC7F
:1020B00000F5EC404FF4FA616943C6F3803220F832
:1020C000112002F03FFC47F2026101444FF4FA6034
:1020D0006843F20B21F81020E17A207B41EA0026C8
:1020E00002F030FC47F2046101444FF4FA606843A7
:1020F00006F0010221F8102002F024FC47F20661EC
:1021000001444FF4FA606843C6F3400221F81020FE
:1021100002F018FC47F2086101444FF4FA6068438A
:10212000C6F3800221F8102002F00CFC47F20A618D
:1021300001444FF4FA606843C6F3C00221F810204E
:1021400002F000FC47F20C6101444FF4FA6068436E
:10215000C6F3001221F8102002F0F4FB47F20E61E2
:1021600001444FF4FA606843C6F3401221F810208E
:1021700002F0E8FB47F2106101444FF4FA60684353
:10218000C6F3801221F8102002F0DCFB47F2126146
:1021900001444FF4FA606843C6F3C01221F81020DE
:1021A00002F0D0FB47F2146101444FF4FA60684337
:1021B000C6F3002221F8102002F0C4FB47F216619A
:1021C00001444FF4FA606843C6F3402221F810201E
:1021D00002F0B8FB47F2186101444FF4FA6068431B
:1021E000C6F3802221F8102002F0ACFB47F21A61FE
:1021F00001444FF4FA606843C6F3C02221F810206E
:1022000002F0A0FB47F21C6101444FF4FA606843FE
:10221000C6F3003221F8102002F094FB47F21E6151
:1022200001444FF4FA606843C6F3C03221F810202D
:1022300039E46179A07941EA002602F083FB47F294
:10224000206101444FF4FA60684306F0010221F86E
:10225000102002F077FB47F2226101444FF4FA604C
:102260006843C6F3400221F8102002F06BFB47F2EE
:10227000246101444FF4FA606843C6F3800221F8F8
:10228000102002F05FFB47F2266101444FF4FA6030
:102290006843C6F3C00221F81020E179207A41EAB0
:1022A000002602F04FFB47F2286101444FF4FA6028
:1022B0006843C6F3400221F8102002F043FB47F2C6
:1022C0002A6101444FF4FA606843C6F3800221F8A2
:1022D000102002F037FB47F22C6101444FF4FA6002
:1022E0006843C6F3C00221F8102002F02BFB47F22E
:1022F0002E6101444FF4FA606843C6F3002221F8CE
:10230000102002F01FFB47F2306101444FF4FA60E5
:102310006843C6F3C02221F8102002F013FB47F2F5
:10232000326101444FF4FA606843C6F3003221F889
:10233000102002F007FB47F2346101444FF4FA60C9
:102340006843C6F3403221F8102002F0FBFA47F24E
:10235000386101444FF4FA606843C6F3803221F8D3
:10236000102002F0EFFA47F2366101444FF4FA60B0
:102370006843F20B21F81020617AA07A41EA002626
:1023800002F0E0FA47F23A6101444FF4FA60684320
:1023900006F0010221F8102002F0D4FA47F23C6165
:1023A00001444FF4FA606843C6F3400221F810205C
:1023B00002F0C8FA47F23E6101444FF4FA60684304
:1023C000C6F3800221F8102002F0BCFA47F2406107
:1023D00001444FF4FA606843C6F3C00221F81020AC
:1023E00002F0B0FA47F2426101444FF4FA606843E8
:1023F000C6F3001221F8102002F0A4FA47F244615B
:1024000001444FF4FA606843C6F3401221F81020EB
:1024100002F098FA47F2466101444FF4FA606843CB
:10242000C6F3801221F8102002F08CFA47F24861BE
:1024300001444FF4FA606843C6F3C01221F810203B
:1024400002F080FA47F24A6101444FF4FA606843AF
:10245000C6F3002221F8102002F074FA47F24C6112
:1024600001444FF4FA606843C6F3402221F810207B
:10247000E17A207B41EA002602F064FA47F24E61DD
:1024800001444FF4FA60684306F0010221F810207D
:1024900002F058FA47F2506101444FF4FA60684381
:1024A000C6F3400221F8102002F04CFA47F25261C4
:1024B00001444FF4FA606843C6F3800221F810200B
:1024C00002F040FA47F2546101444FF4FA60684365
:1024D000C6F3C00221F8102002F034FA47F2566128
:1024E00001444FF4FA606843C6F3401221F810200B
:1024F00002F028FA47F2586101444FF4FA60684349
:10250000C6F3801221F8102002F01CFA47F25A613B
:1025100001444FF4FA606843C6F3002221F810200A
:1025200002F010FA47F25C6101444FF4FA6068432C
:10253000C6F3402221F8102002F004FA47F25E614F
:1025400001444FF4FA606843C6F3802221F810205A
:1025500002F0F8F947F2606101444FF4FA60684311
:10256000C6F3C02221F8102002F0ECF947F26261B4
:1025700001444FF4FA606843C6F3003221F810209A
:1025800002F0E0F947F2646101444FF4FA606843F5
:10259000C6F3803221F8102002F0D4F947F26661C8
:1025A00001444FF4FA606843F20B21F8102028E34D
:1025B0006079002879D1A179E07941EA002141F2DE
:1025C0000462881A914271D05FDC41F21002A1EBE3
:1025D000020091426BD033DC40F2AA22A1EB020050
:1025E000914272D017DC40F2A722A1EB0200914287
:1025F0006CD00BDCA1F20310002868D0B0F5C77FC7
:1026000079D0A0F2A310002876D11CE1012874D063
:102610000228F9D144E140F6AE22811A90426DD0F1
:1026200006DC01286BD0A0F6AD200028ECD180E0BC
:10263000B1F52B7F73D0A1F2AF210029E4D19AE24A
:1026400015286DD00EDC12286BD006DC012869D06D
:10265000102868D01128D7D1CAE2132879D01428BD
:10266000D2D1C8E2B0F5BE6F74D007DCB0F57C7F84
:1026700071D0A0F2F5300028C6D16CE2A0F2F15082
:10268000002869D00228BFD1EAE1442874D024DCB4
:102690002F2872D011DC1C2870D009DC01286ED0E4
:1026A0000D286DD00E28AFD19EE1A8E224E153E2BF
:1026B0002D2875D02E28A7D14BE13D2871D007DCFD
:1026C00030286FD03C289FD170E1F7E0CAE0ABE042
:1026D0003F2868D0402897D1EFE143F61722811AAE
:1026E00090424ED013DC4F287CD009DC4C287AD0A5
:1026F0004D2889D1FFE12BE27FE2C2E01AE0ECE055
:10270000502871D0A0F6234000288FD17DE04B29BE
:1027100023D009DC392969D0452987D144E048E232
:102720006AE266E236E262E24D294CD0502985D158
:102730000FE263E202F006F947F66A5142184FF4DD
:10274000FA606843637AA17A43EA012122F8101003
:1027500054E24FE266E1FDE173E102F0F3F847F67F
:102760006C5142184FF4FA606843637AA17A43EAE5
:10277000012122F8101041E22AE2F9E07FE1CAE0EB
:1027800023E102F0DFF847F66E5142184FF4FA6089
:102790006843637AA17A43EA012122F810102DE2FE
:1027A000C8E030E1F3E079E102F0CCF847F670518F
:1027B00042184FF4FA606843637AA17A43EA012130
:1027C00022F810101AE202F0BDF847F672514218D2
:1027D0004FF4FA606843637AA17A43EA012122F850
:1027E00010100BE296E177E1A3E1FFE702F0AAF80F
:1027F00047F6745142184FF4FA606843637AA17A3D
:1028000043EA012122F81010F8E102F09BF847F6A4
:10281000765142184FF4FA606843637AA17A43EA2A
:10282000012122F81010E9E102F08CF847F6785106
:1028300042184FF4FA606843637AA17A43EA0121AF
:1028400022F81010DAE102F07DF847F67A514218CA
:102850004FF4FA606843637AA17A43EA012122F8CF
:102860001010CBE102F06EF847F67C5142184FF49D
:10287000FA606843637AA17A43EA012122F81010D2
:10288000BCE102F05FF847F67E5142184FF4FA605F
:102890006843637AA17A43EA012122F81010ADE17E
:1028A00002F050F800F5FB404FF4FA616943637A97
:1028B000A27A43EA022220F811209FE102F042F8B6
:1028C00047F6825142184FF4FA606843637AA17A5E
:1028D00043EA012122F8101090E102F033F847F6A4
:1028E000845142184FF4FA606843637AA17A43EA4C
:1028F000012122F8101081E102F024F847F68651F8
:1029000042184FF4FA606843637AA17A43EA0121DE
:1029100022F8101072E102F015F847F688514218BB
:102920004FF4FA606843637AA17A43EA012122F8FE
:10293000101063E102F006F847F68A5142184FF48E
:10294000FA606843637AA17A43EA012122F8101001
:1029500054E101F0F7FF47F68C5142184FF4FA604A
:102960006843637AA17A43EA012122F8101045E115
:1029700001F0E8FF47F68E5142184FF4FA606843C1
:10298000637AA17A43EA012122F8101036E101F0BE
:10299000D9FF47F6905142184FF4FA606843637AC2
:1029A000A17A43EA012122F8101027E101F0CAFFC1
:1029B00047F6925142184FF4FA606843637AA17A5D
:1029C00043EA012122F8101018E101F0BBFF47F69D
:1029D000945142184FF4FA606843637AA17A43EA4B
:1029E000012122F8101009E101F0ACFF47F69651E1
:1029F00042184FF4FA606843637AA17A43EA0121EE
:102A000022F81010FAE001F09DFF47F698514218A5
:102A10004FF4FA606843637AA17A43EA012122F80D
:102A20001010EBE001F08EFF47F69A5142184FF478
:102A3000FA606843637AA17A43EA012122F8101010
:102A4000DCE001F07FFF47F69C5142184FF4FA603A
:102A50006843637AA17A43EA012122F81010CDE09D
:102A600001F070FF47F69E5142184FF4FA60684338
:102A7000637AA17A43EA012122F81010BEE001F046
:102A800061FF47F6A05142184FF4FA606843637A39
:102A9000A17A43EA012122F81010AFE001F052FFC1
:102AA00047F6A25142184FF4FA606843637AA17A5C
:102AB00043EA012122F81010A0E001F043FF47F69D
:102AC000A45142184FF4FA606843637AA17A43EA4A
:102AD000012122F8101091E001F034FF47F6A651D1
:102AE00042184FF4FA606843637AA17A43EA0121FD
:102AF00022F8101082E001F025FF47F6A851421895
:102B00004FF4FA606843637AA17A43EA012122F81C
:102B1000101073E001F016FF47F6AA5142184FF467
:102B2000FA606843637AA17A43EA012122F810101F
:102B300064E001F007FF47F6AC5142184FF4FA6029
:102B40006843637AA17A43EA012122F8101055E024
:102B500054E053E052E051E001F0F4FE47F6AC518E
:102B600042184FF4FA606843637AA17A43EA01217C
:102B700022F8101042E001F0E5FE47F6B05142188D
:102B80004FF4FA606843637AA17A43EA012122F89C
:102B9000101033E001F0D6FE47F6B25142184FF460
:102BA000FA606843637AA17A43EA012122F810109F
:102BB00024E001F0C7FE47F6B45142184FF4FA6022
:102BC0006843637AA17A43EA012122F8101015E0E4
:102BD00001F0B8FE47F6B65142184FF4FA60684368
:102BE000637AA17A43EA012122F8101006E005E099
:102BF00004E003E002E001E000E000BF00BF00E00D
:102C000000BF00BF00BFFEF72FBD000010B5044697
:102C10000CB1022C00DB10BD611ECCB201F048FFEC
:102C2000012104EB4402C2EBC41243F6AE7303EB82
:102C30000212074B0344995404EB4402C2EBC41242
:102C400043F6AE7303EB021220F8121000BFE2E766
:102C5000C82C010010B504460CB1022C00DB10BDDD
:102C6000611ECCB201F024FF012104EB4402C2EB4F
:102C7000C41243F6AF7303EB0212074B034499549B
:102C800004EB4402C2EBC41243F6AF7303EB02122F
:102C900020F8121000BFE2E7C82C010010B504466E
:102CA0000CB1022C00DB10BD611ECCB201F000FFA4
:102CB000012104EB4402C2EBC41243F6AD7303EBF3
:102CC0000212074B0344995404EB4402C2EBC412B2
:102CD00043F6AD7303EB021220F8121000BFE2E7D7
:102CE000C82C010010B504460CB1022C00DB10BD4D
:102CF000611ECCB201F0DCFE012104EB4402C2EB08
:102D0000C41243F6AC7303EB0212074B034499540D
:102D100004EB4402C2EBC41243F6AC7303EB0212A1
:102D200020F8121000BFE2E7C82C010010B50446DD
:102D30000CB1022C00DB10BD611ECCB201F0B8FE5C
:102D4000012104EB4402C2EBC41243F6B47303EB5B
:102D50000212074B0344995404EB4402C2EBC41221
:102D600043F6B47303EB021220F8121000BFE2E73F
:102D7000C82C010070B504460D460CB1022C00DBD6
:102D800070BD611ECCB201F093FE012104EB440240
:102D9000C2EBC41243F6B27303EB0212074B0344B7
:102DA000995404EB4402C2EBC41243F6B27303EB32
:102DB000021220F8125000BFE2E70000C82C010008
:102DC00015E04FF0FF3300220321094800680FF09F
:102DD00033FA044604F0010040B1064906A00DF0A4
:102DE000C5FA074A0749012000F090F900BFE8E75B
:102DF000540000248E5B010825730D0A00000000BA
:102E000054DA012454D6012410E04FF0FF3300229D
:102E10000321074800680FF00FFA044604F0010090
:102E200018B1044904A00DF0A1FA00BFEDE70000BD
:102E3000580000249D5B010825730D0A0000000066
:102E400010E04FF0FF3300220321074800680FF025
:102E5000F3F9044604F0010018B1044904A00DF090
:102E600085FA00BFEDE700005C000024AC5B0108C0
:102E700025730D0A0000000010B515E00F4890F80A
:102E800041060E4A02EB0011012000F088FA0B48BF
:102E900090F84106401CC0B2084981F841066428F8
:102EA00002DB002081F84106044890F841060349FE
:102EB00091F840168842E1D110BD0000447201240F
:102EC00010B519E0114991F84116104A02EB0110B2
:102ED00001F09AFA18B10EA00DF048FA14E00B4870
:102EE00090F84106401CC0B2084981F841066428A8
:102EF00002DB002081F84106044890F841060349AE
:102F000091F840168842DDD100BF10BD006C01244D
:102F1000464443414E315F53656E645F4D73672095
:102F20006572726F720A000017E04FF0FF330022E3
:102F300003210A4800680FF07FF9044604F00200FC
:102F400008B1FFF799FF04F0010018B1044905A08A
:102F50000DF00CFAFFF7B4FF00BFE6E760000024B5
:102F6000BB5B010825730D0A0000000010B515E0D9
:102F70000F4890F841060E4A02EB0011022000F0C3
:102F80000EFA0B4890F84106401CC0B2084981F87F
:102F90004106642802DB002081F84106044890F8CD
:102FA0004106034991F840168842E1D110BD000066
:102FB000CC7E012410B51BE0124991F84116114A4C
:102FC00002EB011001F05EFA18B10FA00DF0CEF97E
:102FD00016E00C4890F84106401C0A4981F8410669
:102FE000084690F84106642802DB002081F841067B
:102FF000044890F84106034991F840168842DBD115
:1030000000BF10BD88780124464443414E325F53CF
:10301000656E645F4D7367206572726F720A00009F
:1030200017E04FF0FF33002203210A4800680FF039
:1030300003F9044604F0020008B1FFF797FF04F01B
:10304000010018B1044905A00DF090F9FFF7B2FF97
:1030500000BFE6E764000024CA5B010825730D0A7F
:103060000000000010E04FF0FF330022012107486C
:1030700000680FF0E1F8044604F0010018B10449BB
:1030800004A00DF073F900BFEDE700006800002414
:10309000D95B010825730D0A0000000010E04FF015
:1030A000FF3300220121074800680FF0C5F80446ED
:1030B00004F0010018B1044904A00DF057F900BF55
:1030C000EDE700006C000024685B010825730D0A21
:1030D0000000000010E04FF0FF33002201210748FC
:1030E00000680FF0A9F8044604F0010018B1044983
:1030F00004A00DF03BF900BFEDE7000070000024D4
:10310000775B010825730D0A000000002DE9F74FD9
:1031100088B08A469146089801F052FC064616B9D6
:103120000BB0BDE8F08F307800B9F9E7002730E147
:1031300007EB470106F10C0000EBC10040780028C6
:1031400070D107EB470206F10C0111F8320001F0D3
:1031500057FC044604B91AE1002512E1A01C00EB5B
:10316000C500C088642190FBF1F107EB470206F12E
:103170000C0000EBC200001D30F81500401C82B2AC
:1031800007EB470306F10C0000EBC300001D20F81D
:10319000152091427DDC002107EB470206F10C006F
:1031A00000EBC200001D20F8151000200790401E03
:1031B0000490A01C10F83500012834D107A8A31CE6
:1031C00003EBC50300909A88A31C03EBC503598841
:1031D00007EB470C06F10C0303EBCC03D8785346FE
:1031E0000AF0DAFB4FF480604B460090BDF81C20DB
:1031F000514608980DF090F8804605A806A9CDE93B
:103200000010A01C00EBC500838807EB470106F106
:103210000C0000EBC100C278414648460AF030FC81
:1032200004903AE0B2E0A01C10F83500032834D135
:1032300007A8A31C03EBC50300909A88A31C03EB0B
:10324000C503598807EB470C06F10C0303EBCC03CD
:10325000D87853460AF0CCFB4FF480604B46009080
:10326000BDF81C20514608980DF056F8804605A878
:1032700006A9CDE90010A01C00EBC500838807EB70
:10328000470106F10C0000EBC100C27841464846F8
:1032900000E074E00AF042FC0490049800286DD12C
:1032A000A01C00EBC500408803904FF0000B5EE0CF
:1032B0004FF000084CE008EB480000EBC80104F1B7
:1032C000540000EBC100C188039881423CD108EB57
:1032D000480000EBC80104F1540000EBC100417943
:1032E000A01C10F8350081422ED10020029008EB7E
:1032F000480303EBC80C04F1540333F83C2007EBFC
:10330000470C06F10C0303EBCC03997807EB470C51
:1033100006F10C0313F83C0002AB0AF06AFC90B112
:1033200001F010FBBDF8081000EB4100019008EB24
:10333000480000EBC80104F1540000EBC1020699FB
:10334000019800F0EDFA00BF08F101001FFA80F8C3
:10335000B4F852004045AEDC0698801C06900398F5
:10336000401C80B203900BF101001FFA80FBA01CEF
:1033700000EBC500808858459ADC00BF00BF681C80
:10338000C5B22078A8423FF7E9AE00BF00BF781C65
:10339000C7B2F07AB8423FF7CBAE00BFC0E62DE926
:1033A000F84F81468846484601F0D0FA04460CB9E9
:1033B000BDE8F88F207800B9FAE7002584E005EB36
:1033C000450104F1090000EB41004078012853D188
:1033D00005EB450204F1090111F8120001F002FBAE
:1033E000064606B96EE0002742E005EB450304F10E
:1033F000090202EB4301D8F80000FEF71DF9C7EB04
:10340000C70101EB0712311D01EB82018968884277
:103410002CD100200090C7EBC70303EB071C331D22
:1034200033F82C2005EB450C04F1090303EB4C03A6
:10343000997805EB450C04F1090313F81C006B4661
:103440000AF0D7FB88B101F07DFABDF8001000EB5F
:10345000410AC7EBC70000EB0711301D00EB8102EA
:1034600008F10501504600F04BF800BF781C87B208
:103470003088B842B9DC24E005EB450104F10900CD
:1034800000EB41004078022809D105EB450204F128
:10349000090101EB42004146FEF704F811E005EB9B
:1034A000450104F1090000EB41004078032808D1F0
:1034B00005EB450204F1090101EB42004146FEF72C
:1034C000CBF800BF681CC5B2207AA8423FF777AF9F
:1034D00000BF6DE78178012901D0017819B9002179
:1034E0004160417009E04168491C41608268914235
:1034F00003D38168416001214170002181707047D0
:10350000F0B506460D4614469FEDFB0BB0EE402B82
:10351000207913287ED2DFE800F00A21395269832E
:10352000A5C7F4F2F1F0EFEEEDECEBEAE900A27BD7
:10353000617B237BE85C01F0DFF900EE100AD4ED3B
:10354000050AB7EEE01AD4ED040AB7EEE03AB8EE99
:10355000404B04EE031BB0EE412BD9E1207B401C15
:10356000285C217B695C40EA012000EE100AD4ED62
:10357000050AB7EEE01AD4ED040AB7EEE03AB8EE69
:10358000404B04EE031BB0EE412BC1E1207B401CFD
:10359000285C217B695C40EA012000B200EE100A41
:1035A000D4ED050AB7EEE01AD4ED040AB7EEE03A1E
:1035B000B8EEC04B04EE031BB0EE412BA8E1207B1C
:1035C000295C401C285C41EA002000EE100AD4ED82
:1035D000050AB7EEE01AD4ED040AB7EEE03AB8EE09
:1035E000404B04EE031BB0EE412B91E1207B295CA4
:1035F000401C285C41EA002000B200EE100AD4ED25
:10360000050AB7EEE01AD4ED040AB7EEE03AB8EED8
:10361000C04B00E07BE104EE031BB0EE412B77E1F1
:10362000207B285C0106207B401C285C41EA00418D
:10363000207B801C285C41EA0020217BC91C695C3E
:10364000084300EE100AD4ED050AB7EEE01AD4EDF7
:10365000040AB7EEE03AB8EE404B04EE031BB0EEBE
:10366000412B55E1207B285C0106207B401C285C17
:1036700041EA0041207B801C285C41EA0020217B3C
:10368000C91C695C084300EE100AD4ED050AB7EEC8
:10369000E01AD4ED040AB7EEE03AB8EEC04B04EEFF
:1036A000031BB0EE412B33E1207B401C285C00065D
:1036B000217B695C40EA0141207BC01C285C41EA17
:1036C0000021207B801C285C014300EE101AD4ED01
:1036D000050AB7EEE01AD4ED040AB7EEE03AB8EE08
:1036E000404B04EE031BB0EE412B11E1DEE0B6E0EF
:1036F000B4E0B2E0B0E0AEE08BE068E045E022E0AC
:10370000FFE7207B401C285C0006217B695C40EAC7
:103710000141207BC01C285C41EA0020217B891CE0
:10372000695C084300EE100AD4ED050AB7EEE01A12
:10373000D4ED040AB7EEE03AB8EEC04B04EE031B3A
:10374000B0EE412BE4E0207B801C285C0106207B4E
:10375000C01C285C41EA0040217B695C40EA0120F2
:10376000217B491C695C084300EE100AD4ED050A70
:10377000B7EEE01AD4ED040AB7EEE03AB8EE404BEB
:1037800004EE031BB0EE412BC2E0207B801C285CC2
:103790000106207BC01C285C41EA0040217B695C5B
:1037A00040EA0121207B401C285C014300EE101AF6
:1037B000D4ED050AB7EEE01AD4ED040AB7EEE03A0C
:1037C000B8EEC04B04EE031BB0EE412BA0E0207B13
:1037D000C01C285C0106207B801C285C41EA00415B
:1037E000207B401C285C41EA0020217B695C084367
:1037F00000EE100AD4ED050AB7EEE01AD4ED040A83
:10380000B7EEE03AB8EE404B04EE031BB0EE412BAE
:103810007EE0207BC01C285C0106207B801C285C8D
:1038200041EA0041207B401C285C41EA0020217BCA
:10383000695C084300EE100AD4ED050AB7EEE01A01
:10384000D4ED040AB7EEE03AB8EEC04B04EE031B29
:10385000B0EE412B5CE05BE05AE059E058E0207BA1
:10386000295C00201DE004F11A0232F820208A426F
:1038700015D194ED050AB7EEC01A04F11A0202EB55
:103880008002528800EE102AB8EE403B94ED040A04
:10389000B7EEC00A03EE001BB0EE412B04E0421C61
:1038A00090B2228B8242DEDC00BF31E0A27B617BE2
:1038B000237BE85C01F020F80746002022E004F1B9
:1038C0001A0131F82010B9421AD194ED050AB7EE69
:1038D000C01A04F11A0101EB8001498800EE101AA8
:1038E000B8EE403B94ED040AB7EEC00A03EE001BAD
:1038F000B0EE412B09E000000000000000000000D5
:10390000411C88B2218B8142D9DC00BF00E000BF9E
:1039100000BFA178B0EE420B304600F01BFDF0BDB9
:10392000F0B506460C4615469FEDE30BB0EE402B76
:103930002879132877D2DFE800F00A20354B60772A
:1039400092ADC8E3FCFBFAF9F8F7F6F5F4006A7AF1
:10395000297A207800F0D0FF00EE100AD5ED040A95
:10396000B7EEE01AD5ED030AB7EEE03AB8EE404BF9
:1039700004EE031BB0EE412B95E16078217840EA1C
:10398000012000EE100AD5ED040AB7EEE01AD5EDDD
:10399000030AB7EEE03AB8EE404B04EE031BB0EE7C
:1039A000412B80E16078217840EA012000B200EEEE
:1039B000100AD5ED040AB7EEE01AD5ED030AB7EE0A
:1039C000E03AB8EEC04B04EE031BB0EE412B6AE1C7
:1039D0002078617840EA012000EE100AD5ED040A53
:1039E000B7EEE01AD5ED030AB7EEE03AB8EE404B79
:1039F00004EE031BB0EE412B55E12078617840EADC
:103A0000012000B200EE100AD5ED040AB7EEE01A6C
:103A1000D5ED030AB7EEE03AB8EEC04B04EE031B57
:103A2000B0EE412B3FE13DE120780006617840EAAD
:103A30000140A17840EA0120E178084300EE100A35
:103A4000D5ED040AB7EEE01AD5ED030AB7EEE03A79
:103A5000B8EE404B04EE031BB0EE412B23E120787F
:103A60000006617840EA0140A17840EA0120E1784F
:103A7000084300EE100AD5ED040AB7EEE01AD5EDC2
:103A8000030AB7EEE03AB8EEC04B04EE031BB0EE0B
:103A9000412B08E160780006217840EA0140E17896
:103AA00040EA0120A178084300EE100AD5ED040A8F
:103AB000B7EEE01AD5ED030AB7EEE03AB8EE404BA8
:103AC00004EE031BB0EE412BEDE060780006217898
:103AD00040EA0140E17840EA0120A178084300EE85
:103AE000100AD5ED040AB7EEE01AD5ED030AB7EED9
:103AF000E03AB8EEC04B04EE031BB0EE412BD2E02F
:103B0000A0780006E17840EA0140217840EA0120EF
:103B10006178084300EE100AD5ED040AB7EEE01A0A
:103B200008E090E066E064E062E060E05EE042E0D1
:103B300026E00AE0D5ED030AB7EEE03AB8EE404BD6
:103B400004EE031BB0EE412BADE0A0780006E17857
:103B500040EA0140217840EA01206178084300EE04
:103B6000100AD5ED040AB7EEE01AD5ED030AB7EE58
:103B7000E03AB8EEC04B04EE031BB0EE412B92E0EE
:103B8000E0780006A17840EA0140617840EA01202F
:103B90002178084300EE100AD5ED040AB7EEE01ACA
:103BA000D5ED030AB7EEE03AB8EE404B04EE031B46
:103BB000B0EE412B77E0E0780006A17840EA0140C2
:103BC000617840EA01202178084300EE100AD5ED23
:103BD000040AB7EEE01AD5ED030AB7EEE03AB8EE04
:103BE000C04B04EE031BB0EE412B5CE05BE05AE0FF
:103BF00059E058E06078227840EA022100201DE078
:103C000005F1160232F820208A4215D195ED040AFA
:103C1000B7EEC01A05F1160202EB8002528800EEE0
:103C2000102AB8EE403B95ED030AB7EEC00A03EE4A
:103C3000001BB0EE412B04E0421C90B2AA8A8242E3
:103C4000DEDC00BF2FE0637894F800C043EA0C206C
:103C50006A7A297A00F046FE074600201DE005F149
:103C6000160131F82010B94215D195ED040AB7EECE
:103C7000C01A05F1160101EB8001498800EE101A07
:103C8000B8EE403B95ED030AB7EEC00A03EE001B09
:103C9000B0EE412B04E0411C88B2A98A8142DEDCEF
:103CA00000BF00E000BF00BFA978B0EE420B304675
:103CB00000F050FBF0BD000000000000000000001C
:103CC00070B50646304600F051FE054605B970BD98
:103CD000287800B9FBE7687800F018FE044604B9BC
:103CE000F5E730460AF07AFC2070607898B92078C1
:103CF000A97888420CD1A888642190FBF1F16088F2
:103D0000401C80B26080814218DC0120607015E0A8
:103D10000020608012E02078A97888420CD0E888E2
:103D2000642190FBF1F16088401C80B26080814288
:103D300004DC0020607001E00020608000BFC6E766
:103D400019E04FF0FF33002201210B4800680EF00C
:103D500073FA054605F0010060B1012404E0204635
:103D6000FFF7AEFF601CC4B2062CF8DD034904A0C7
:103D70000CF0FCFA00BFE4E774000024865B010845
:103D800025730D0A0000000010B5024802F02CF95E
:103D900010BD00004C8A012410B5024802F024F93D
:103DA00010BD0000C48A012410B5024802F01CF9BD
:103DB00010BD00003C8B012410B5024802F014F93C
:103DC00010BD0000B48B012410B5024802F00CF9BC
:103DD00010BD00002C8C012410B5024802F004F93B
:103DE00010BD0000A48C01240146374A08689042A7
:103DF00049D0354A18320868904244D0324A3032AD
:103E0000086890423FD0304A4832086890423AD021
:103E10002D4A60320868904235D02B4A78320868C3
:103E2000904230D0284A9032086890422BD0264ADF
:103E3000A8320868904226D0244A0868904222D0CE
:103E4000224A1832086890421DD0204A3032086851
:103E5000904218D01D4A48320868904213D01B4A3D
:103E60006032086890420ED0184A78320868904252
:103E700009D0164A90320868904204D0134AA832FA
:103E80000868904201D1012000E00020B0B10A781A
:103E9000103A1823B2FBF3F000F007020C4B9A5CC7
:103EA000CA65032805D90A686FF30902121D8A65DD
:103EB00003E00A686FF309028A6503E0086820F0EE
:103EC000FF008865886D70471000024010040240B2
:103ED000CC5A010810B502682B4C0368A34222D0CB
:103EE000294C14340368A3421DD0274C283403689E
:103EF000A34218D0244C3C340368A34213D0224C74
:103F000050340368A3420ED01F4C64340368A342AC
:103F100009D01D4C78340368A34204D01A4C8C3469
:103F20000368A34201D1012300E000238BB1037891
:103F3000083B1424B3FBF4F1144B03EB8103036639
:103F4000124B8033436601F01F040123A3408366B4
:103F500018E00378103B1824B3FBF4F10C4B9A42A1
:103F600004D80B4BA83B9A4200D30831094B03EB12
:103F700081030366074B8033436601F01F0401236E
:103F8000A340836610BD0000085402580058025830
:103F9000B8040240000802400179A9B3082940D8BA
:103FA000204B02689A4222D01E4B143302689A4278
:103FB0001DD01C4B283302689A4218D0194B3C3351
:103FC00002689A4213D0174B503302689A420ED0BF
:103FD000144B643302689A4209D0124B783302685A
:103FE0009A4204D00F4B8C3302689A4201D10122CD
:103FF00000E000224AB14A1E0B4B03EB8202C2666C
:10400000094A4032026708E00BE04A1E074B03EB07
:104010008202C266054A403202674A1E012393406B
:10402000436770470854025800590258000902407B
:10403000014600208A69D2B98A6A32B1012A0DD0BC
:10404000022A03D0032A10D10EE000BFCA6A02F090
:104050008072B2F1807F00D1012007E0CA6AB2F11C
:10406000C07F00D1012001E000E000BF36E08A6996
:10407000B2F5005F1BD18A6A32B1012A07D0022A49
:1040800003D0032A11D10AE000BF01200EE0CA6A62
:1040900002F08072B2F1807F00D1012006E0CA6A8E
:1040A000B2F1C07F00D1012000E000BF16E08A6AB3
:1040B00032B1012A05D0022A04D0032A0CD103E030
:1040C00000BF00BF012008E0CA6A02F08072B2F1AE
:1040D000807F00D1012000E000BF00BF70470000DA
:1040E000F0B5856D846D984F0668BE4270D0964FCE
:1040F00018370668BE426BD0934F30370668BE4211
:1041000066D0914F48370668BE4261D08E4F603707
:104110000668BE425CD08C4F78370668BE4257D0E6
:10412000894F90370668BE4252D0874FA83706683D
:10413000BE424DD0854F0668BE4249D0834F1837E6
:104140000668BE4244D0814F30370668BE423FD039
:104150007E4F48370668BE423AD07C4F60370668CB
:10416000BE4235D0794F78370668BE4230D0774F9F
:1041700090370668BE422BD0744FA8370668BE42FF
:1041800026D0734F0668BE4222D0714F143706689E
:10419000BE421DD06E4F28370668BE4218D06C4F05
:1041A0003C370668BE4213D0694F50370668BE429E
:1041B0000ED0674F64370668BE4209D0644F783727
:1041C0000668BE4204D0624F8C370668BE4201D1F9
:1041D000012600E000263EB1D0E919767E60C66E69
:1041E00016B1D0E91C767E60574F0668BE4249D0B2
:1041F000554F18370668BE4244D0534F30370668D3
:10420000BE423FD0504F48370668BE423AD04E4F6C
:1042100060370668BE4235D04B4F78370668BE42DD
:1042200030D0494F90370668BE422BD0464FA83752
:104230000668BE4226D0454F0668BE4222D0434F94
:1042400018370668BE421DD0404F30370668BE4260
:1042500018D03E4F48370668BE4213D03B4F6037F8
:104260000668BE420ED0394F78370668BE4209D084
:10427000364F90370668BE4204D0344FA8370668E0
:10428000BE4201D1012600E00026DEB190F85C605C
:1042900006F01F073F26BE40AE600668366826F46B
:1042A000802607683E60066873608668402E04D1E9
:1042B0000668B2600668F16044E00668B1600668AE
:1042C000F2603FE0224F0668BE4222D0204F1437F2
:1042D0000668BE421DD01E4F28370668BE4218D061
:1042E0001B4F3C370668BE4213D0194F5037066843
:1042F000BE420ED0164F64370668BE4209D0144F36
:1043000078370668BE4204D0114F8C370668BE422B
:1043100001D1012600E00026A6B190F85C6006F00D
:104320001F070126BE406660066873608668402EDF
:1043300004D10668B2600668F16003E00668B16007
:104340000668F260F0BD0000100002401004024058
:104350000854025831B101290BD0022910D0032989
:1043600024D118E0BCEEC01B11EE103A9AB20280C4
:104370001DE0BDEEC01B11EE103A1AB2028016E02D
:10438000BCEEC01B11EE102A4FF6FF7303EA124376
:10439000038042800BE0BDEEC01B11EE102A4FF6E9
:1043A000FF7303EA22430380428000E000BF00BFA6
:1043B0007047704772B600BFFEE7000000B589B0D5
:1043C0004FF08040019000200290022003900120D5
:1043D000049000200590069001A9064803F09DF87E
:1043E00001A9044803F099F808B1FFF7E3FF09B009
:1043F00000BD00001085012410B5024803F0EEF95D
:1044000010BD00001085012410B58AB00446206854
:1044100001904FF0804002900020039020790AF034
:104420003DF90490002005900690079008900990AF
:10443000621D01A9024803F027F80AB010BD000070
:104440001085012400B589B04FF080400190002014
:10445000029002200390049000200590069001A98C
:10446000034803F05AF808B1FFF7A4FF09B000BDF4
:10447000B085012410B5024803F0B0F910BD00006A
:10448000B085012410B58AB00446206801904FF031
:10449000804002900020039020790AF0FFF80490F9
:1044A000002005900690079008900990621D01A9D0
:1044B000024802F0E9FF0AB010BD0000B0850124F7
:1044C00010B501464A6B0868D0F884004FF6FC74BA
:1044D000A04340EA82000C68C4F884000868D0F861
:1044E000840020F47F04088F44EA00400C68C4F87C
:1044F0008400886B02440868D0F888004FF6FC748A
:10450000A04340EA82000C68C4F888000868D0F82C
:10451000880020F4FE04888F44EA00400C68C4F848
:104520008800C86B02EB40020868D0F8A0004FF684
:10453000FC74A04340EA82000C68C4F8A00008683C
:10454000D0F8A00020F4FE044020405A44EA004085
:104550000C68C4F8A000D1E9104004FB00220868F0
:10456000D0F8B0004FF6FC74A04340EA82000C681B
:10457000C4F8B0000868D0F8B00020F4FE04B1F828
:10458000480044EA00400C68C4F8B000D1E9124089
:1045900004FB00220868D0F8AC004FF6FC74A0437E
:1045A00040EA82000C68C4F8AC00D1E9144004FB76
:1045B00000220868D0F8F0004FF6FC74A04340EAEF
:1045C00082000C68C4F8F0000868D0F8F00020F40D
:1045D0007C14B1F8580044EA00400C68C4F8F000BC
:1045E000886D02EB40020868D0F8C0004FF6FC74FA
:1045F000A04340EA82000C68C4F8C0000868D0F804
:10460000C00020F47C14B1F85C0044EA00400C685F
:10461000C4F8C0000868D0F8C00020F07C5491F8BD
:10462000600044EA00600C68C4F8C0002A4C486B83
:1046300004EB8000C866CC6E886B04EB80040C67CA
:104640000C6FC86B04EBC0044C67D1E910046043E5
:104650004C6F04EB80048C67D1E9120460438C6FCB
:1046600004EB8004CC67D1E914046043CC6F04EB05
:104670008004802044504458886D04EBC00484209A
:1046800044508C6EC86D60438424645804EB8004ED
:10469000882044508C6E086E60438824645804EB74
:1046A00080049020445040580C4CA04209D99831C5
:1046B000486840F020004860032001F89809012074
:1046C00010BDCB6E02E0002018601B1D90204058EA
:1046D0009842F8D80020F3E700AC0040FCD300403B
:1046E0002DE9F041054614461E46D1F804C0BCF140
:1046F000000F0AD1D1F810C0D1F808804CEA080C9C
:10470000B1F800804CEA88430BE0D1F810C04CF0BF
:10471000804CD1F808804CEA080CD1F800804CEAB3
:10472000080391F82080D1F81CC04CEA086CD1F83D
:1047300018804CEA080CD1F814804CEA080CB1F847
:104740000C804CEA0847D5F868C00CFB06FCD5F88D
:10475000848008EB8C021360121D1760121D00206C
:1047600019E000F1030C14F80CC04FEA0C6800F1DA
:10477000020C14F80CC048EA0C4800F1010C14F8C3
:104780000CC048EA0C2C14F800804CEA080CC2F863
:1047900000C0121D001DDFF81480D1F80CC018F8FD
:1047A0000CC08445DDD8BDE8F0810000D45A010872
:1047B00070B505460E46012D02D0022D15D109E037
:1047C000444C454820600021616340212164002160
:1047D000A1640BE0414C424820604FF4A06161634A
:1047E000002121644021A16400E070BD00BF706819
:1047F000A0F57430903820B1A0F57430903808BB23
:104800000FE00C2161610821A1611F21E1610821F4
:10481000216261620C21A1621F21E16208212163F2
:1048200011E0062161610821A1611F21E1610821D8
:104830002162062161620821A1621F21E162082133
:10484000216300E0D1E700BF0020A0600021E1600B
:1048500021746174A1740121A163E1630421616485
:10486000E16400212165042161650021A165E16504
:1048700020212166002161660421A166204603F003
:1048800097F908B1FFF796FD012D02D0022D06D150
:1048900002E0FFF793FD03E0FFF7D4FD00E0A4E79B
:1048A00000BF204603F0E4FB012D02D0022D0CD105
:1048B00005E000220121204602F092FD06E00022E0
:1048C0001021204602F08CFD00E08EE700BF00BF03
:1048D0008BE700001085012400A00040B085012472
:1048E00000A40040C1F10F0300FA03F398B2C1F134
:1048F0000F03134418417047C1F1070300FA03F393
:10490000D8B2C1F107031344184170470146062984
:1049100001DB00207047024800EB8100FAE700004D
:104920003CD601240146012901DB002070470248E2
:1049300000EB4100FAE7000038010024004870470E
:104940005E2E0324004870475E2E0324014609B101
:10495000032901DD00207047481EC0EBC000024A59
:1049600002EB8000F7E70000C82D0324014609B1DF
:10497000062901DD00207047481E024A02EBC000F4
:10498000F9E700001C2E0324014609B1062901DDC8
:1049900000207047481E00EB4000014A1044F8E731
:1049A0004C2E0324014609B1022901DD0020704785
:1049B000481E00EB4000014A1044F8E75001002473
:1049C000014609B1032901DD00207047481EC0EBF4
:1049D000C00000EB4000024A02EB8000F5E7000057
:1049E000CC2C03240146082901DB0020704740F24B
:1049F00009504843014A02EB8000F7E7AC8B0224E0
:104A00000146082901DB0020704740F2E540484399
:104A1000014A02EB8000F7E70CEF012400487047E1
:104A200056010024F0B503460D460022002615B9B4
:104A30001D4AA12601E00020F0BD00BF1068984289
:104A400001D81A4C2DE0701E52F82000984206D36F
:104A500015B940F2E24424E040F2E24421E00021B2
:104A600006E052F82100984200D203E0481CC1B28F
:104A7000B142F6DB00BF481E52F8200052F8217008
:104A8000C71B481E52F82000C01A00EB80004000EF
:104A9000B0FBF7F7A1F1290000EB800007EB400025
:104AA00004B22046C8E700008462010870FEFFFFE0
:104AB000004870478AF1042470B588B004460D465A
:104AC0000026124884421ED101950620029005203E
:104AD000039040F2FF70049004200590002006909F
:104AE00001A9204600F070F8204600F07FFD0A2161
:104AF000204600F0C9FC204600F00CFB86B22046A0
:104B000000F00EFE00BF304608B070BD9C6B012463
:104B1000F8B504460D4616460020009000BF94F8F4
:104B20005000012801D10220F8BD012084F8500076
:104B300000BF2046FCF7B6FB0746A7BB606D20F41C
:104B4000885040F002006065206805F4803141F033
:104B5000004106F0804211438268194B1A4011430C
:104B6000816000BF13E00098401C00901549009838
:104B700088420CD3606D20F0020040F010006065A8
:104B800000BF002084F8500000BF0120CCE720685F
:104B90008168C90F0029E6D1606D20F0020040F065
:104BA0000100606504E0FFE7606D40F010006065A3
:104BB00000BF002084F8500000BF3846B4E7000072
:104BC000C0FFFE3F00F8C3252DE9F84F04460D460F
:104BD0004FF0000A0020009094F83800012800D11E
:104BE00000E000BFFA49E868884200D00EE0F949C9
:104BF0002068884200D100BFF7492068884200D170
:104C000000BFF6492068884200D100BF00BF94F879
:104C10005000012802D10220BDE8F88F012084F85D
:104C2000500000BF206808F045F900287ED12868B0
:104C300000F00040A8B92068C1692868C0F31300DB
:104C400018B92868C0F3846004E0286890FAA0F0DE
:104C5000B0FA80F000F01F0201209040014320686C
:104C6000C1612168D5E9002001F1300CC0F3012BAE
:104C70000CEB8B03D3F800C000F01F0E4FF01F0B9E
:104C80000BFA0EFB2CEA0B0C00F01F0BC2F3846E28
:104C90000EFA0BFE4CEA0E0CC3F800C000BF2068F1
:104CA00008F008F98146206808F0F0F88046B9F16C
:104CB000000F6FD1B8F1000FFBD1AA6829682068F6
:104CC00008F00EF9C648006800F07040B0F1805F4F
:104CD00007D168692168C968C1F382014900884029
:104CE00014E02068C06800F0100038B968692168D5
:104CF000C968C1F382014900884007E068692168FA
:104D0000C96801F0100189084900884007462869F0
:104D1000042840D020682A68296900F1600C0CEB57
:104D20008103D3F800C00CF0004C00E0D0E102F0A9
:104D3000F84B4BEA070B4CEA0B0CC3F800C000BF62
:104D400020686A7E2969012A01D1D20700E0002289
:104D5000134600F1600C0CEB8102D2F800C02CF07D
:104D6000004C4CEA030CC2F800C000BF20682B7E48
:104D70002969012B01D1DB0200E000231A460369F7
:104D800023F4F04301F01F0C02FA0CFC43EA0C037D
:104D9000036100BF37E02068006E00F0F84029781A
:104DA000B0EB816F05D12068006E20F000402168D3
:104DB00008662068406E00F0F8402978B0EB816FFB
:104DC00005D12068406E20F00040216848662068C8
:104DD000806E00F0F8402978B0EB816F05D1206833
:104DE000806E20F00040216888662068C06E00F068
:104DF000F8402978B0EB816F05D12068C06E20F0B3
:104E000000402168C866206808F04AF8002872D17E
:104E10002068EA682968D0F8C030C1F3130C23EA8F
:104E20000C0302F0180BDFF8BCC12CFA0BFC0CEAE7
:104E3000010C43EA0C03C0F8C03000BF6449E868C5
:104E400088427DD12B68C3F313031BB92B68C3F3CE
:104E5000846304E02B6893FAA3F3B3FA83F35B1C37
:104E600003F01F03092B3ED82B68C3F313031BB9B0
:104E70002B68C3F3846304E02B6893FAA3F3B3FABB
:104E800083F35B1C03F01F034FF0010C0CFA03FCCF
:104E90002B68C3F313031BB92B68C3F3846304E0CB
:104EA0002B6893FAA3F3B3FA83F35B1C03F01F039D
:104EB0004CEA836C2B68C3F313031BB92B68C3F351
:104EC000846304E02B6893FAA3F3B3FA83F35B1CC7
:104ED00003F01F0303EB43034FF0000B4BEA0353B4
:104EE0004CEA030341E02B68C3F3130323B92B6897
:104EF000C3F3846305E0A9E02B6893FAA3F3B3FA44
:104F000083F35B1C03F01F034FF0010C0CFA03FC4E
:104F10002B68C3F313031BB92B68C3F3846304E04A
:104F20002B6893FAA3F3B3FA83F35B1C03F01F031C
:104F30004CEA836C2B68C3F313032BB92B6800E096
:104F400018E0C3F3846304E02B6893FAA3F3B3FA85
:104F500083F35B1C03F01F030A3B03EB43034FF097
:104F6000007B4BEA03534CEA03031946AA68206806
:104F700007F0B6FF286800F00040002866D0154A08
:104F80002168914203D0144A2168914201D1164907
:104F900000E016490846816801F0E07600BF0D493F
:104FA0002068884203D00C492068884201D10E480D
:104FB00000E00E480C4988421AD1064807F070FFFD
:104FC0008346054807F06CFF4BEA000013E0000041
:104FD0000000FF470020024000210240006002580C
:104FE0000010005CFFFF0F00002302400063025826
:104FF0003E4807F055FFE8BB3D492868884226D166
:1050000006F4000018BB39492068884266D1394B44
:1050100022689A4203D0384B22689A4201D1374A1B
:1050200000E0374A104646F4000107F06DFF3548AE
:1050300000683549B0FBF1F0401C4000009002E0F0
:105040000098401E009000980028F9D146E02F49B2
:105050002868884219D106F08070B0B923492068C9
:1050600088423BD1234B22689A4205D0224B2268CA
:105070009A4200E025E001D1204A00E0204A104693
:1050800046F0807107F040FF28E0214928688842F7
:1050900024D106F4800008BB1449206888421DD141
:1050A000144B22689A4203D0134B22689A4201D1D2
:1050B000124A00E0124A104646F4800107F024FF2D
:1050C0000CE0606D40F0200060654FF0010A05E0E3
:1050D000606D40F0200060654FF0010A00BF0020C5
:1050E00084F8500000BF504696E50000006002586A
:1050F000000084CB00200240002102400023024037
:1051000000630258B0000024400D0300000052C7A5
:105110000000B8CF01460868006C70472DE9F84FD1
:1051200004464FF000090020009014B90120BDE8AA
:10513000F88FE06818B1207F012800D100BF606DB2
:1051400030B9204600F030F90020A06584F8500006
:1051500020688168C1F3407131B120688168874A55
:105160001140816000BF00BF206807F09EFEA8B913
:1051700020688168824A114041F08051816000BFFF
:10518000804800688049B0FBF1F0401C009002E0CC
:105190000098401E009000980028F9D1206807F080
:1051A00084FE48B9606D40F010006065A06D40F06D
:1051B0000100A0654FF00109206807F07BFE06465C
:1051C000606D00F0100000287ED1002EFCD1606DD3
:1051D00020F4807040F002006065206807F060FEF7
:1051E00078BB6A492068884203D0694920688842B0
:1051F00001D1684800E068486649884209D163489F
:1052000007F04EFE8246624807F04AFE4AEA000076
:1052100002E0624807F044FE98B95C4B22689A426B
:1052200003D05B4B22689A4201D15A4A00E05A4AA5
:1052300010466168826822F47C120A43826000BFD3
:1052400000BF03F045F841F2030188420ED9A0687F
:1052500010280BD1607D216B41EA4030A1680843E2
:1052600040F00C01207F41EA004508E0607D216BA1
:1052700041EA4030A1680843217F40EA0145207F90
:10528000012803D1208C401E45EA4045606A28B1C0
:10529000A08C00F47870A16A084305432068C068B8
:1052A0003F49084028432168C860206807F002FE93
:1052B0008046206807F0EAFD0746B8F1000F3BD1B1
:1052C000D7BB207DE16A00E050E041EA80352068EC
:1052D000C06844F20301884328432168C86094F8F9
:1052E0003800012817D1606A08B1A06A00B900BF70
:1052F000A08F401E012141EA0041206C0843616CEF
:105300000843A16C084321680969264A11400843F3
:105310002168086105E02068006920F0010021682B
:1053200008612068006920F07040616B08432168C3
:1053300008612046FBF776FEE068012809D1206865
:10534000006B20F00F00A169491E08432168086323
:1053500005E02068006B20F00F0021680863606D95
:1053600020F0020040F00100606505E0606D40F053
:10537000100060654FF001094846D8E6C0FFFF5FA6
:10538000C0FFFF7FB0000024400D0300002002405A
:1053900000210240002302400063025800600258CE
:1053A00003C0F0FF1EF800FC10B5B8B0044614218D
:1053B00032A8FBF741F8C02102A8FBF73DF82E49BF
:1053C0002068884256D14FF400210020CDE9021018
:1053D000022004903C2105910321069102210791AE
:1053E00008918021099100210A910B9100202B90B6
:1053F00002A804F07FF808B1FEF7DCFF00BF1F48E9
:10540000006840F080701D4908600846006800F0A0
:105410008070019000BF00BF00BF0846006840F0E8
:10542000200008600846006800F02000019000BFDE
:1054300000BF00BF0846006840F0800008600846D2
:10544000006800F08000019000BF00BF182032907B
:10545000032033900020349032A9094802F02CFE3A
:105460003C203290032033900020349032A905482C
:1054700002F022FE38B010BD00600258E04402582D
:1054800000140258001C02582DE9F04704460F464C
:10549000524A2168914203D0514A2168914201D178
:1054A000504900E05049084607F0EBFC05462069EA
:1054B000082801D1082628E01DB1052D01D0092DAD
:1054C0000DD12068C06800F0010030B1606D40F07F
:1054D000200060650120BDE8F087042615E03F4A02
:1054E0002168914203D03E4A2168914201D13D4951
:1054F00000E03D49084607F0BFFC28B1606D40F070
:10550000200060650120E6E7042602F0E7FE804601
:1055100017E0781CA8B102F0E1FEA0EB0800B84249
:1055200000D877B920680068304050B9606D40F00D
:105530000400606500BF002084F8500000BF032015
:10554000C9E72068006830400028E2D0606D40F470
:1055500000706065206807F0B2FC98B1607D88B982
:105560002068006800F0080008280BD1606D20F466
:1055700080706065606D00F4805018B9606D40F017
:105580000100606516492068884201D1134800E097
:1055900020682168884204D01DB1052D01D0092D55
:1055A00003D12068D0F80C9009E00D4920688842AA
:1055B00001D10A4800E020688246DAF80C90082EF3
:1055C00003D108202168086005E009F4804010B983
:1055D0000C202168086000207DE7000000200240C8
:1055E0000021024000230240006302582DE9F041EF
:1055F0000446474A2168914203D0464A21689142B5
:1056000001D1454900E04549084607F03AFC054606
:10561000206807F04FFC002877D100BF94F85000B5
:10562000012802D10220BDE8F081012084F8500059
:1056300000BF2046FBF780FE0646002E60D1606D5D
:1056400040F60161884340F480706065314920680C
:10565000884201D12E4800E020682168884200D0AD
:105660001DB9606D20F480106065606D00F480509D
:10567000B0F5805F04D1A06D20F00600A06501E0C8
:105680000020A0651C202168086000BF002084F86D
:10569000500000BF1F492068884201D11C4800E02B
:1056A00020682168884204D01DB1052D01D0092D44
:1056B0000ED12068C06800F0007028B1606D20F441
:1056C000005040F480506065206807F001FC1DE048
:1056D000606D40F4801060650E492068884201D1F9
:1056E0000B4800E020680746F86800F0007068B1D9
:1056F000606D20F4005040F48050606506E004E0E6
:1057000000BF002084F8500000E0022630468AE7FF
:1057100000200240002102400023024000630258A2
:1057200070B5044600BF94F85000012801D1022052
:1057300070BD012084F8500000BF03212046FBF714
:1057400023FD054655B92046FBF7ACFD05462DB9AE
:10575000606D20F4885040F00100606500BF0020BB
:1057600084F8500000BF2846E2E700002DE9F04130
:10577000044602F0B3FD804614B90120BDE8F08173
:1057800094F83500022808D08020606500BF002012
:1057900084F8340000BF0120F0E7FE492068884209
:1057A00049D0FC4918312068884244D0F949303149
:1057B000206888423FD0F7494831206888423AD073
:1057C000F44960312068884235D0F2497831206848
:1057D000884230D0EF499031206888422BD0ED4983
:1057E000A8312068884226D0EB492068884222D020
:1057F000E9491831206888421DD0E74930312068D6
:10580000884218D0E44948312068884213D0E249E0
:105810006031206888420ED0DF49783120688842A4
:1058200009D0DD4990312068884204D0DA49A83196
:105830002068884201D1012000E0002068B1206882
:10584000006820F01E00216808602068406920F090
:10585000800021684861256806E02068006820F023
:105860000E00216808602568CA492068884270D007
:10587000C8491831206888426BD0C6493031206849
:10588000884266D0C34948312068884261D0C14906
:105890006031206888425CD0BE49783120688842F7
:1058A00057D0BC4990312068884252D0B949A831BC
:1058B000206888424DD0B8492068884249D0B6490E
:1058C00018312068884244D0B3493031206888427A
:1058D0003FD0B1494831206888423AD0AE49603162
:1058E0002068884235D0AC4978312068884230D071
:1058F000A9499031206888422BD0A749A831206857
:10590000884226D0A5492068884222D0A349143174
:10591000206888421DD0A14928312068884218D0CB
:105920009E493C312068884213D09C495031206800
:1059300088420ED0994964312068884209D097493D
:1059400078312068884204D094498C31206888429C
:1059500001D1012000E0002028B1206E006820F471
:105960008070216E08608B492068884249D089493F
:1059700018312068884244D08649303120688842F6
:105980003FD084494831206888423AD0814960310B
:105990002068884235D07F4978312068884230D0ED
:1059A0007C499031206888422BD07A49A831206800
:1059B000884226D078492068884222D0764918311A
:1059C000206888421DD0744930312068884218D040
:1059D000714948312068884213D06F49603120688E
:1059E00088420ED06C4978312068884209D06A49D3
:1059F00090312068884204D06749A83120688842E5
:105A000006D12068006820F001002168086005E0E8
:105A10002068006820F001002168086011E002F0B1
:105A20005DFCA0EB080005280BD920206065032051
:105A300084F8350000BF002084F8340000BF012046
:105A40009CE6286800F001000028E8D15149206850
:105A5000884249D04F4918312068884244D04D4986
:105A60003031206888423FD04A4948312068884216
:105A70003AD0484960312068884235D0454978316C
:105A80002068884230D043499031206888422BD02A
:105A90004049A8312068884226D03F492068884282
:105AA00022D03D491831206888421DD03A49303112
:105AB0002068884218D0384948312068884213D07D
:105AC00035496031206888420ED0334978312068EA
:105AD000884209D0304990312068884204D02E494C
