:020000040800F2
:10000000786801247103000853640008EB5B000862
:1000100051640008C1050008A57100080000000037
:10002000000000000000000000000000B102000815
:10003000C10B0008000000000D030008AF670008B6
:100040008B0300088B0300088B0300088B03000858
:100050008B0300088B0300088B0300088B03000848
:100060008B0300088B0300088B0300082907000896
:1000700035070008410700084D0700085907000828
:1000800065070008710700088B0300088B03000850
:100090008B0300088B0300088B0300088B03000808
:1000A0008B0300088B0300088B0300088B030008F8
:1000B0008B0300088B0300088B0300088B030008E8
:1000C0008B0300088B0300088B0300088B030008D8
:1000D0008B0300088D7100088B03000899710008DC
:1000E0008B0300088B030008000000008B0300084E
:1000F0008B0300088B0300088B0300087D070008B2
:100100008B0300088B0300088B0300088B03000897
:10011000596A00088B0300087D6900088B030008FA
:100120008B0300088B0300088B0300088B03000877
:100130008B0300088B0300088B0300088B03000867
:1001400000000000000000000000000000000000AF
:100150008B0300088B0300088B0300088B03000847
:100160008B0300088B0300088B0300088B03000837
:100170008B0300088B0300088B03000800000000BD
:100180008B0300088B0300088B0300088B03000817
:10019000956600088B030008A16600088B03000821
:1001A0008B0300088B0300088B0300088B030008F7
:1001B0008B0300088B0300088B0300088B030008E7
:1001C0008B0300088B0300088B0300088B030008D7
:1001D0008B0300088B0300088B0300088B030008C7
:1001E0008B0300088B0300088B0300088B030008B7
:1001F0008B0300088B0300088B0300088B030008A7
:100200008B0300088B0300088B0300088B03000896
:100210008B0300088B0300088B0300088B03000886
:100220008B0300088B0300088B030008000000000C
:100230008B0300088B030008000000008B030008FC
:100240008B030008A9050008B50500088B0300080A
:100250008B0300088B0300088B0300088B03000846
:100260008B0300088B0300088B0300088B03000836
:100270008B0300088B0300088B03000800000000BC
:100280008B0300088B0300088B03000800000000AC
:10029000000000008B030008DFF810D000F0EEF83B
:1002A0000048004781760008AFF300807868012499
:1002B0002C4B19680868B0E8F04F80F30988BFF349
:1002C0006F8F4FF0000080F311887047000000002E
:1002D00008480068006880F308884FF0000080F349
:1002E000148862B661B6BFF34F8FBFF36F8F00DF24
:1002F00000BF00BF08ED00E0DFF80C00016841F42A
:1003000070010160704700BF88ED00E0EFF30980E5
:10031000BFF36F8F134B1A681EF0100F08BF20ED4C
:10032000108A20E9F04F106009B44FF0500080F3BC
:100330001188BFF34F8FBFF36F8F08F043F94FF071
:10034000000080F3118809BC19680868B0E8F04F14
:100350001EF0100F08BFB0EC108A80F30988BFF3BD
:100360006F8F704778000024EFF30580704700001E
:100370000648804706480047FEE7FEE7FEE7FEE73F
:10038000FEE7FEE7FEE7FEE7FEE7FEE7A1680008FE
:10039000990200082DE9F05F0546002092469B4631
:1003A00088460646814640241BE02846414647468B
:1003B000224600F053F853465A46C01A914110D3D2
:1003C00011461846224600F03AF82D1A67EB01084C
:1003D0004F4622460120002100F031F817EB0009BA
:1003E0004E41201EA4F10104DFDC484631462A4676
:1003F0004346BDE8F09F40EA01039B0703D009E0B4
:1004000008C9121F08C0042AFAD203E011F8013B00
:1004100000F8013B521EF9D27047D2B201E000F859
:10042000012B491EFBD270470022F6E710B5134698
:100430000A4604461946FFF7F0FF204610BD202A61
:1004400004DB203A00FA02F1002070479140C2F12B
:10045000200320FA03F3194390407047202A04DB5D
:10046000203A21FA02F00021704721FA02F3D0402D
:10047000C2F120029140084319467047064C074DCF
:1004800006E0E06840F0010394E807009847103464
:10049000AC42F6D3FFF704FF8C960008AC96000838
:1004A00070B53A4905460068884202D0384A904201
:1004B00002D1D1F8080302E03648D0F8080310F45E
:1004C000403F11D003F0D8FE04466868B0F5803F85
:1004D00006D0B0F5003F03D0B0F5403F27D101E092
:1004E000000C18E0A40822E000214FF4002002F0E4
:1004F0002DFF044668688103890B18D181140C29EB
:1005000015D2DFE801F0140606060606060B0D0FED
:100510001113800C4000B4FBF0F408E0240906E05D
:10052000640904E0A40902E0E40900E0240A02F0FE
:10053000FBFB41F20301884208D81748844228682F
:10054000816813D821F48071816070BD13496008FF
:10055000884204D82868816821F44071F4E7104982
:10056000884206D82868816821F4407141F480717E
:10057000EAE70C4988422868816804D821F4407170
:1005800041F40071E0E741F44071DDE700200240F2
:100590000021024000600258002D3101105E5F0012
:1005A00020BCBE0040787D01014801F03DBA00004A
:1005B000440D0124014801F037BA0000BC0D0124AC
:1005C000FEE700004FF47A74204607F07EF80249F7
:1005D00002A006F0E9FDF7E7909400085F5F46553A
:1005E0004E435F5F3A2025730D0A00000B4900203F
:1005F0004FF480620854401C9042FBDB4FF47A7445
:10060000204607F062F8064906A006F0CDFD034932
:100610006422084805F092FAF2E7000074600124B1
:100620009F9400085F5F46554E435F5F3A202573F5
:100630000D0A0000C81201244FF47A74204607F016
:1006400044F8024902A006F0AFFDF7E7AE940008B7
:100650005F5F46554E435F5F3A2025730D0A0000E9
:100660004FF47A74204607F030F8024902A006F0F1
:100670009BFDF7E7BD9400085F5F46554E435F5F03
:100680003A2025730D0A00004FF47A74204607F0D3
:100690001CF8024902A006F087FDF7E7CC94000899
:1006A0005F5F46554E435F5F3A2025730D0A000099
:1006B0004FF47A74204607F008F8024902A006F0C9
:1006C00073FDF7E7DB9400085F5F46554E435F5FBD
:1006D0003A2025730D0A00004FF47A74204606F084
:1006E000F4FF024902A006F05FFDF7E7EA94000874
:1006F0005F5F46554E435F5F3A2025730D0A000049
:100700004FF47A74204606F0E0FF024902A006F09A
:100710004BFDF7E7F99400085F5F46554E435F5F76
:100720003A2025730D0A0000014801F07DB9000050
:1007300084140124014801F077B90000FC1401245D
:10074000014801F071B9000074150124014801F05D
:100750006BB90000EC150124014801F065B90000F7
:1007600064160124014801F05FB90000DC16012481
:10077000014801F059B90000540C0124014801F06E
:1007800053B90000CC0C0124294A016891423AD0A7
:10079000274A1832914236D0254A3032914232D01F
:1007A000234A483291422ED0214A603291422AD0C7
:1007B0001F4A7832914226D01D4A9032914222D06F
:1007C0001B4AA83291421ED01A4A91421BD0194AA4
:1007D0001832914217D0174A3032914213D0154A3D
:1007E000483291420FD0134A603291420BD0114AE5
:1007F0007832914207D00F4A9032914203D00D4A8D
:10080000A832914211D1CAB21823103AB2FBF3F2C6
:100810006FF30901032A02F00703074AD25CC2659D
:1008200000D9091D81650846704721F0FF01F9E7ED
:100830001000024010040240F493000830B5224A30
:10084000012301689142CAB21BD01F4C1434A1424B
:1008500017D01D4C2834A14213D01B4C3C34A1426C
:100860000FD0194C5034A1420BD0174C6434A14224
:1008700007D0154C7834A14203D0134C8C34A142DC
:100880000CD11421114C083AB2FBF1F10F4A80321D
:1008900001F01F0504EB8101AB4010E00C4D182462
:1008A000103A0D44B2FBF4F1A82D00D80831094AE2
:1008B00001F01F0402EB8101064AA3408032603040
:1008C00080E80E0030BD000008540258005802585D
:1008D000F0FBFDBF0008024010B50279531E072B44
:1008E0002DD8174C0168A1421BD0154C1434A142DD
:1008F00017D0134C2834A14213D0114C3C34A142E0
:100900000FD00F4C5034A1420BD00D4C6434A14297
:1009100007D00B4C7834A14203D0094C8C34A1424F
:1009200003D10849074C443102E00749064C4431E1
:1009300004EB8202C0E91B2101219940416710BDEF
:1009400008540258FC580258FC08024010B583694C
:100950004FF0C074826A0146002053B1B3F5005FC6
:1009600015D072B1012A0CD0022A0AD0032A09D16B
:1009700004E01AB1012A06D0022A03D1C96AC901CA
:1009800000D5012010BDC96AA142FAD010BD002ACD
:10099000F7D0012AF2D0022AF3D0032AF3D010BDF7
:1009A0002DE9F04F804E804FDFF8FC911836DFF8CC
:1009B000F8A148370468856D0AF1300ADFF8ECB118
:1009C0004C45DFF8ECC1DFF8ECE16DD0B4426BD000
:1009D000544569D0BC4267D0DFF8D081A8F118082F
:1009E000444561D05C455FD064455DD074455BD0C3
:1009F000DFF8C481444557D0DFF8BC8108F11808FE
:100A0000444551D0DFF8B08108F1300844454BD05F
:100A1000DFF8A48108F14808444545D0DFF8988103
:100A200008F1600844453FD0DFF88C8108F1780870
:100A3000444539D0DFF8808108F19008444533D02F
:100A4000DFF8748108F1A80844452DD0DFF86C81E7
:100A5000444529D0DFF8648108F11408444523D0C7
:100A6000DFF8588108F1280844451DD0DFF84C8193
:100A700008F13C08444517D0DFF8408108F15008E0
:100A8000444511D0DFF8348108F1640844450BD0A7
:100A9000DFF8288108F17808444505D0DFF81C818B
:100AA00008F18C08444509D1D0E91948C4F80480FC
:100AB000C46E1CB1D0E91C48C4F8048004684C45DD
:100AC0002ED0B4422CD054452AD0BC4228D0374E28
:100AD000183EB44224D05C4522D0644520D07445F1
:100AE0001ED0354EB4421BD0334E1836B44217D008
:100AF000314E3036B44213D02F4E4836B4420FD068
:100B00002D4E6036B4420BD02B4E7836B44207D00F
:100B1000294E9036B44203D0274EA836B44215D1A0
:100B200090F85C603F2406F01F06B440AC60046897
:100B3000256825F4802525602EE09A600068C16054
:100B4000BDE8F08F99600068C260F9E71B4EB442BF
:100B50001BD01A4E1436B44217D0184E2836B44261
:100B600013D0164E3C36B4420FD0144E5036B44219
:100B70000BD0124E6436B44207D0104E7836B442D1
:100B800003D00E4E8C36B442DAD190F85C6001246A
:100B900006F01F06B4406C60046863608368402BF5
:100BA0000368CFD1C9E7000010000240880002406E
:100BB000A0000240B800024010040240085402584D
:100BC000704772B6FEE70000F0B503684FF6FC719F
:100BD0006D4C426BD3F884508D4345EA8205C3F8CF
:100BE0008450036853F8845F068F25F47F0545EA37
:100BF00006451D60836B654D9F180268D2F88830EA
:100C00008B4343EA8703C2F88830026852F8883F72
:100C1000868F23F4FE0343EA06431360066856F802
:100C2000A03FC26B8B4307EB420243EA820333606F
:100C3000076857F8A03FB0F8406023F4FE0343EA8A
:100C400006433B60D0E9103603FB06220368D3F865
:100C5000B0608E4346EA8206C3F8B0600368B0F81D
:100C60004860D3F8B07027F4FE0747EA0646C3F899
:100C7000B060D0E91267036806FB0722D3F8AC60C6
:100C80008E4346EA8206C3F8AC60D0E91467036875
:100C900006FB0722D3F8F0608E4346EA8206C3F8CB
:100CA000F0600368B0F85860D3F8F07027F47C1750
:100CB00047EA0646C3F8F0600368876D53F8C06FD3
:100CC00002EB47028E4346EA820119600168B0F8E0
:100CD0005C20D1F8C03023F47C1343EA0242C1F80F
:100CE000C020016890F86020D1F8C03023F07C5318
:100CF00043EA0262C1F8C020416B04EB8101C16686
:100D0000826B01EB82020267C36B02EBC302426794
:100D1000D0E91034634302EB83028267D0E91234D6
:100D2000634302EB8302C267D0E91434634302EBEE
:100D30008302C0F88020836D02EBC303C0F88430C7
:100D4000C46D826E544303EB8403C0F88830046E94
:100D5000544303EB8402C0F89020AA420AD9D0F889
:100D60009C20032142F02002C0F89C2080F89810BB
:100D70000120F0BD002200E004C1D0F890308B4289
:100D8000FAD80020F0BD000000AC0040FCD30040C9
:100D90002DE9F84F4FF0000B0D46E54F0446CDF816
:100DA00000B0D94690F85010DFF888A3012907D089
:100DB000012684F85060206804F01CFF18B168E137
:100DC0000220BDE8F88F286800280DDB21680303A6
:100DD000CA6927D090FAA0F0B0FA80F000F01F00A6
:100DE00006FA00F00243CA61D5E900124FF00C0C7C
:100DF00020681F23C1F384610CEA921C02F01F02D9
:100E0000604493409140026B9A430A430263206816
:100E100004F0F0FE8046206804F0E8FE58EA000086
:100E200003D07FE0C0F38460D8E72068AA6829680F
:100E300004F0E4FEC0480068B6EB107F06D12168DC
:100E40006869C968C1F38201490008E02068C16887
:100E5000C906C1686869F5D501F0100149088840E4
:100E6000296904292ED023682A6803EB810102F046
:100E7000F8420B6E024303F0004010430866697E9F
:100E800022682869012917D05FF0000102EB800079
:100E9000026E22F000420A430266297E20682A6917
:100EA00001290CD00021036902F01F02914023F4B4
:100EB000F0420A43026135E04FF00041E6E74FF4AB
:100EC0000061F0E720682978026E02F0F842B2EB88
:100ED000816F03D1016E21F00041016620682978FD
:100EE000426E02F0F842B2EB816F03D1416E21F005
:100EF0000041416620682978826E02F0F842B2EB28
:100F0000816F03D1816E21F00041816620682978CC
:100F1000C26E02F0F842B2EB816F03D1C16E21F0D4
:100F20000041C1662068816811F0010F76D150F848
:100F3000C02F95F80CC0814B29680CF0180823FAD3
:100F400008F3C1F3130C0B4022EA0C021A430260AF
:100F50007B48E968814277D1286801031BD090FA69
:100F6000A0F1B1FA81F1491C01F01F0109294FEAF2
:100F7000003131D8002911D090FAA0F1B1FA81F1F5
:100F800001F1010101F01F0106FA01F609D100BFCC
:100F9000C0F3846109E0C0F38461E4E7C0F38461D5
:100FA000EEE790FAA0F1B1FA81F101F1010101F04F
:100FB0001F0146EA816102D1C0F3846003E090FA28
:100FC000A0F0B0FA80F000F1010000F01F0000EB8B
:100FD000400041EA005133E000290ED090FAA0F120
:100FE000B1FA81F101F1010101F01F0106FA01F6E8
:100FF00006D100BFC0F3846106E0C0F38461F1E76D
:1010000090FAA0F1B1FA81F101F1010101F01F01A3
:1010100046EA816103D1C0F3846004E03FE090FAC6
:10102000A0F0B0FA80F0474A00F1010000F01F0084
:1010300000EB400002EB005041EA000141F000717A
:10104000AA68206804F0DAFD2E68002E27DA3E4AEE
:1010500020683E49DFF8F8C0904201D0B84201D183
:101060000B4600E063469B68904203F0E07301D0BA
:10107000B84209D19568D7F8088005F0010508F055
:10108000010845EA080503E0DAF8085005F0010513
:101090004DB1616D4FF0010941F020006065484697
:1010A00084F850B08DE62B4DAE421CD11D021AD4EF
:1010B0005045F4D1904202D0B84200D061468A68CF
:1010C00043F4000022F0E07202438A602349224880
:1010D0000968B1FBF0F04000801C00E0401E009069
:1010E0000028FBD1DBE71E4DAE420CD1DD010AD456
:1010F0005045D4D1904202D0B84200D061468A68AF
:1011000043F080700EE0174DAE42C8D15D02C6D4E8
:101110005045C4D1904202D0B84200D061468A689E
:1011200043F4800022F0E07202438A60B7E70000D7
:1011300000210240006002580010005CFFFF0F0019
:101140000000FF47000020FE002002400023024074
:1011500000630258000084CB400D0300700000249F
:10116000000052C70000B8CFF8B54FF000060400E9
:101170003546009602D0606D10B107E00120F8BD41
:10118000204600F005F9A66584F850602068816863
:10119000C1F3407119B18168704A114081602068C3
:1011A0008168C1F3007181B981686D4A114041F0D5
:1011B000805181606C496B480968B1FBF0F0401CBC
:1011C00000E0401E00900028FBD120688168C1F338
:1011D000007141B9616D012541F010016165A16D9A
:1011E00041F00101A16504F005FD616DC90600D45F
:1011F00020B1606D012540F0100093E0606D20F497
:10120000807040F0020060652068816811F0010F75
:101210001FD1564A564B904201D0984207D191684F
:101220009E6801F0010106F00106314303E05149D7
:10123000896801F0010161B9904201D0984201D161
:101240004D4800E04D488268616822F47C120A43F0
:10125000826001F069FD41F20301884202D9A06871
:1012600010280CD0617D227FA368206B490341EADE
:10127000024118430843217F01290CD010E0607D12
:10128000227F216B400340EA024241F010001043EC
:1012900040F00C00EFE7218C394A02EB4141084352
:1012A000616A29B1A26A01F47871014342EA01003E
:1012B0002168344BCA681A400243CA60206804F0AF
:1012C00099FC0646206804F091FC30431DD121684A
:1012D00044F20303267DE26AC86842EA86329843F4
:1012E0001043C86094F8380001281ED020680169B6
:1012F00021F0010101612068626B016921F07041F8
:10130000114301612046FFF7CBF8E068012820680F
:101310001CD0016B21F00F010163606D20F0020011
:1013200040F0010060652846F8BD2068A28F164F86
:10133000D4E9101C154E07EB0247A36C026941EA81
:101340000C013B43324019431143D3E7A269016BBF
:10135000521E21F00F011143DEE70000C0FFFF5FC6
:10136000C0FFFF7F400D03007000002400200240FA
:10137000002102400060025800230240006302582E
:101380000000FEFF03C0F0FF0100FFFF1EF800FC9D
:1013900070B5B6B00446142130A8FFF745F8C02157
:1013A0006846FFF741F82349206888423FD1022070
:1013B00000223C2603964FF400210091CDE9012044
:1013C000154606AA03248023CDE9044082E82900BB
:1013D00068460995299502F01DF908B1FFF7F1FB60
:1013E0001548016841F080710160016801F0807169
:1013F0003591016841F020010160016801F0200190
:101400003591016841F080010160006830A900F069
:1014100080003590182081E83100084801F068FB11
:10142000309630A90648CDE9314501F061FB36B070
:1014300070BD000000600258E044025800140258D9
:10144000001C02582DE9F84F044601F073FC00908F
:101450003CB194F83500022806D080216165002057
:10146000E4E00120BDE8F88FC74DC74EC6491835E6
:1014700020683036DFF81483DFF814938842DFF8F1
:1014800014A3DFF814B32ED0A8422CD0B0422AD037
:10149000404528D0484526D0504524D0584522D034
:1014A000BD4A183290421ED0BC4A90421BD0BB4A63
:1014B0001832904217D0B94A3032904213D0B74A0E
:1014C000483290420FD0B54A603290420BD0B34AB6
:1014D0007832904207D0B14A9032904203D0AF4A5E
:1014E000A832904209D1026822F01E0202602068F0
:1014F000426922F08002426103E0026822F00E029B
:10150000026027688F4238464DD0A8424BD0B04287
:1015100049D0404547D0484545D0504543D058452F
:1015200041D09D4A183290423DD09C4A90423AD0D8
:101530009A4A1832904236D0984A3032904232D08D
:10154000964A483290422ED0944A603290422AD035
:10155000924A7832904226D0904A9032904222D0DD
:101560008E4AA83290421ED08D4A90421BD08C4A9F
:101570001432904217D08A4A2832904213D0884AB7
:101580003C3290420FD0864A503290420BD0844A6F
:101590006432904207D0824A7832904203D0804A27
:1015A0008C32974204D1206E026822F4807202606D
:1015B00075492068884228D0A84226D0B04224D05D
:1015C000404522D0484520D050451ED058451CD01B
:1015D00071491831884218D07049884215D06F4936
:1015E0001831884211D06D49303188420DD06B4995
:1015F0004831884209D069496031884205D067493D
:101600007831884201D065499031016821F00101AB
:1016100001600EE001F08EFB0099401A052808D900
:10162000202262650321002084F8351084F83400FC
:1016300017E73868C007EDD1534A0121206890426E
:101640002ED0A8422CD0B0422AD0404528D04845C0
:1016500026D0504524D0584522D04F4B18339842BD
:101660001ED04E4B98421BD04C4B1833984217D08B
:101670004A4B3033984213D0484B483398420FD0EE
:10168000464B603398420BD0444B7833984207D096
:10169000424B9033984203D0404BA833984208D134
:1016A00094F85C703F23A06D07F01F07BB40836078
:1016B00007E094F85C30A06D03F01F0301FA03F318
:1016C0004360206890424DD0A8424BD0B04249D0F0
:1016D000404547D0484545D0504543D0584541D076
:1016E0002D4A183290423DD02C4A90423AD02B4A93
:1016F0001832904236D0294A3032904232D0274AAE
:10170000483290422ED0254A603290422AD0234A55
:101710007832904226D0214A9032904222D01F4AFD
:10172000A83290421ED01E4A90421BD01C4A14324E
:10173000904217D01A4A2832904213D0184A3C32AD
:1017400090420FD0164A503290420BD0144A643265
:10175000904207D0124A7832904203D0104A8C321D
:1017600090420BD1D4E919024260E06E30B10268B8
:1017700022F480720260D4E91C024260002084F8E6
:10178000351084F834006DE6100002405800024025
:101790007000024088000240A00002401004024095
:1017A000085402582DE9F05F28B190F8351002294D
:1017B00004D0802141650120BDE8F09F904C904B02
:1017C0000168183C18338E4ADFF83C92A1428D4CD8
:1017D000DFF838E28E4FDFF83CB2DFF83CA28F4DE5
:1017E0008F4E31D091422FD099422DD0A1422BD093
:1017F000494529D0714527D0B94225D0DFF810C21C
:101800000CF1180C61451FD0DFF808C2ACF1600C78
:10181000614519D0DFF8FCC1ACF1480C614513D02B
:10182000DFF8F0C1ACF1300C61450DD0DFF8E4C158
:10183000ACF1180C614507D0594505D0514503D08E
:10184000A94201D0B1422CD1DFF8B4C14FF0040855
:1018500080F83580ACF1180C61451DD091421BD049
:10186000994219D0A14217D0494515D0714513D0DE
:10187000B94211D06648183081420DD065486038B1
:10188000814209D063484838814205D061483038E8
:10189000814201D05F481838086820F001000860D4
:1018A000ABE0D1F800C02CF00E08DFF854C1C1F84D
:1018B0000080ACF1180C0168614527D0914225D019
:1018C000994223D0A14221D049451FD071451DD056
:1018D000B9421BD0DFF838C10CF1180C614515D0A6
:1018E000DFF830C1ACF1600C61450FD0DFF824C1E6
:1018F000ACF1480C614509D0DFF818C1ACF1300CEF
:10190000614503D0DFF80CC1ACF1180CD1F800C070
:101910002CF0010CC1F800C0DFF8E4804FF0010C9E
:101920000168A8F11808414546D0914244D0994237
:1019300042D0A14240D049453ED071453CD0B94249
:101940003AD0334A1832914236D0324A603A914204
:1019500032D0304A483A91422ED02E4A303A914203
:101960002AD02C4A183A914226D0594524D05145C4
:1019700022D0A94220D0B1421ED02A4A91421BD087
:10198000284A1432914217D0264A2832914213D065
:10199000244A3C3291420FD0224A503291420BD01D
:1019A000204A6432914207D01E4A7832914203D0D5
:1019B0001C4A8C32914218D1016E0A6822F480725E
:1019C0000A6090F85C20816D02F01F020CFA02F2AE
:1019D0004A60D0E919124A60C16E31B10A6822F436
:1019E00080720A60D0E91C124A600022016D80F802
:1019F00035C080F8342001B188470020DCE60000C3
:101A00002800024058000240700002408800024056
:101A1000A00002407004024088040240A00402407A
:101A2000B8040240085402582DE9FC5F0446F74E02
:101A30000020DFF8D88300904FF41652F44808F1E4
:101A40001808A56DDFF8C493DFF8C0A3016809F199
:101A5000300920680AF1480AB1FBF2F1B042019165
:101A60002F68D5F800C0DFF8ACB335D041468842C6
:101A700032D0484530D050452ED058452CD0E5497D
:101A80001831884228D0E3493031884224D0E149D6
:101A90004831884220D0E04988421DD0DE491831C3
:101AA000884219D0DC493031884215D0DA494831B2
:101AB000884211D0DFF860E30EF1600E70450BD064
:101AC000D54A7832904207D0D34B9033984203D016
:101AD000D149A83188427DD194F85C20082102F0D8
:101AE0001F0201FA02F23A424AD0B04232D04045D7
:101AF00030D048452ED050452CD058452AD0C54A24
:101B00001832904226D0C34A3032904222D0C14A85
:101B1000483290421ED0C04A90421BD0BE4A183272
:101B2000904217D0BC4A3032904213D0BA4A483261
:101B300090420FD0B84A603290420BD0B64A783209
:101B4000904207D0B44A9032904203D0B24AA832B1
:101B5000904203D1026802F0040202E0026802F03F
:101B600008026AB1026822F00402026094F85C0084
:101B700000F01F008140A960606D40F001006065C9
:101B800094F85C00012100F01F008140394240D0F0
:101B90002068B04234D0404532D0484530D050451E
:101BA0002ED058452CD09B4A1832904228D0994AC2
:101BB0003032904224D0974A4832904220D0964A00
:101BC00090421DD0944A1832904219D0924A303235
:101BD000904200E0AFE113D08F4A483290420FD0DC
:101BE0008D4A603290420BD08B4A7832904207D0B7
:101BF000894A9032904203D0874AA83290427DD1E0
:101C0000406910F0800F04D0A960606D40F00200C0
:101C1000606594F85C00042100F01F0081403942A7
:101C20003ED02068B04232D0404530D048452ED01A
:101C300050452CD058452AD0764A1832904226D0AA
:101C4000744A3032904222D0724A483290421ED0BA
:101C5000714A90421BD0704A1832904217D06E4A97
:101C60003032904213D06C4A483290420FD06A4AC8
:101C7000603290420BD0684A7832904207D0664A70
:101C80009032904203D0644AA83290424ED100680C
:101C900010F0020F04D0A960606D40F00400606590
:101CA00094F85C00102100F01F008140394258D0A8
:101CB0002068B04234D0404532D0484530D05045FD
:101CC0002ED058452CD0534A1832904228D0514A31
:101CD0003032904224D04F4A4832904220D04E4A6F
:101CE00090421DD04C4A1832904219D04A4A3032A4
:101CF000904215D0484A4832904200E014E00FD09C
:101D0000454A603290420BD0434A7832904207D025
:101D1000414A9032904203D03F4AA832904207D1C4
:101D2000006800F0080006E0006872E70068B7E7A6
:101D3000006800F00400A0B1A960206801684903B0
:101D400004D50068000308D5A16C07E00168C90547
:101D500003D4016821F008010160216C09B120461B
:101D6000884794F85C00202100F01F008140394230
:101D700079D02068B04232D0404530D048452ED08E
:101D800050452CD058452AD0224A1832904226D0AD
:101D9000204A3032904222D01E4A483290421ED011
:101DA0001D4A90421BD01C4A1832904217D01A4A42
:101DB0003032904213D0184A483290420FD0164A1F
:101DC000603290420BD0144A7832904207D0124AC7
:101DD0009032904203D0104AA832904203D100685A
:101DE00000F0100002E0006800F00200B0B3A9604B
:101DF00094F835000428206801680FD049037ED587
:101E0000006800032BD4616C2AE00000100002403F
:101E100070000024700002401004024021F01601FE
:101E200001602068416921F080014161206C08B99E
:101E3000A06C20B12068016821F00801016094F8CD
:101E40005C303F21012003F01F0300229940A9606C
:101E500084F8350084F83420216D65E003E0E16BFF
:101E600009B120468847606D00287DD0606DC007AD
:101E700059D02068042184F83510B0422BD0404559
:101E800029D0484527D0504525D0584523D09D49D5
:101E9000884220D09B49183188421CD09949303162
:101EA000884218D09849884215D0974918318842FD
:101EB00011D09549303188420DD09349483188423C
:101EC00009D091496031884205D08F4978318842E4
:101ED00001D08D499031016821F001010160206835
:101EE0000099019A491C0091914202D80168C907E2
:101EF000F6D10068C00710D003200FE0FFE70168AB
:101F0000C905ACD403680121002223F0100303604B
:101F100084F8351084F83420A1E7012084F83500D6
:101F2000002084F83400E16C00291DD002B0204666
:101F3000BDE8F05F0847754988421DD073491431E8
:101F4000884219D071492831884215D06F493C31F7
:101F5000884211D06D49503188420DD06B496431AF
:101F6000884209D0694900E084E07831884203D092
:101F700066498C3188427DD194F85C8004270168E1
:101F800008F01F0807FA08F717EA0C0F009746D069
:101F90004F0744D500980F04686003D5C8033CD4AC
:101FA000A16CC1E7880638D42068B0422DD05549CD
:101FB0006039884229D0484527D0504525D058451A
:101FC00023D05049884220D04E49183188421CD035
:101FD0004C493031884218D04B49884215D04A4983
:101FE0001831884211D04849303188420DD04649D5
:101FF0004831884209D0704507D0904205D09842B8
:1020000003D04149A831884203D1016821F0080179
:1020100002E0016821F004010160216C84E70227DD
:1020200007FA08F717EA0C0F00974ED08F074CD528
:1020300000980F04686003D5C80344D4616C73E74B
:10204000880640D42068B0422FD02E49603988429B
:102050002BD0484529D0504527D0584525D029496F
:10206000884222D02749183188421ED02549303174
:10207000884200E044E018D02349884215D0224924
:102080001831884211D02049303188420DD01E4984
:102090004831884209D0704507D0904205D0984217
:1020A00003D01949A831884203D1016821F01401F5
:1020B00002E0016821F00A010160012184F8351075
:1020C000002084F83400E16B2EE7082202FA08F2BF
:1020D00012EA0C0F14D0090712D5016821F00E0185
:1020E000016094F85C100120002201F01F0100FA49
:1020F00001F16960606584F8350084F8342012E7E6
:10210000BDE8FC9F880002401004024008540258B9
:102110002DE9F05F044600F00DFE002C07467DD04F
:10212000E34E022120684FF00308DFF888934FF058
:102130000005DFF884A3B042DFF880B334D0DC4A76
:102140001832904230D048452ED050452CD05845BA
:102150002AD0DA4A1832904226D0D84A30329042F9
:1021600022D0D64A483290421ED0D54A90421BD047
:10217000D34A1832904217D0D14A3032904213D00D
:10218000CF4A483290420FD0CD4A603290420BD0B5
:10219000CB4A7832904207D0C94A9032904203D05D
:1021A000C74AA83290427DD184F83510B04284F8F5
:1021B00034502ED0BE49183188422AD0484528D004
:1021C000504526D0584524D0BC491831884220D0EB
:1021D000BA49303188421CD0B8494831884218D0B9
:1021E000B749884215D0B6491831884211D0B44950
:1021F000303188420DD0B2494831884209D0B049C7
:102200006031884205D0AE497831884201D0AC496E
:102210009031016821F00101016008E027E100BF71
:1022200000F088FDC01B052801D920211CE1206891
:102230000068C007F4D104F108002168D4E9053C26
:102240008E4685C809681043D4E907281F43636A8E
:1022500038439C4F40EA0C001043394040EA0800E4
:10226000042B40EA010003D1D4E90B1211430843C7
:10227000954909686FF30F01B1F1005F0FD36168F1
:10228000A1F12902052A08D9163A032A05D9083AE4
:10229000012A02D94F39032901D840F48010CEF821
:1022A000000000E023E02068676A4069042F20F006
:1022B000070047EA00070DD1D4E90A01074349B1F5
:1022C0002046FEF743FB28B140206065012184F8D9
:1022D0003510CCE0206847612046FEF755FA94F8A7
:1022E0005C203F2102F01F029140816054E0774A58
:1022F00090421BD0754B1433984217D0734B283340
:10230000984213D0714B3C3398420FD06F4B5033EF
:1023100098420BD06D4B6433984207D06B4B7833A7
:10232000984203D0694B8C3398427DD184F83510A4
:1023300084F83450664B0168A26801EA030E402A13
:1023400073D0802A72D00022D4E90378D4E9053111
:1023500042EAD70242EAD8085C4AD4E9077C48EA54
:10236000D30848EAD10141EAD701524241EA1C119F
:10237000142341EA0E01016020681044B0FBF3F021
:102380008000E0652046FEF7FFF994F85C2001210B
:1023900002F01F02914041602068B04257D044498A
:1023A0001831884253D0484551D050454FD05845F8
:1023B0004DD042491831884249D040493031884295
:1023C00045D03E494831884241D03D4988423ED0BF
:1023D0003B49183188423AD039493031884236D0A9
:1023E00037494831884232D03549603188422ED051
:1023F0003349783188422AD031499031884226D0F9
:102400002F49A831884222D0304988421FD02F4915
:10241000143188421BD02D492831884217D02B49CE
:102420003C31884213D002E01DE017E018E0274954
:10243000503188420BD025496431884207D0234966
:102440007831884203D021498C31884229D12046F5
:10245000FEF7F4F9A06880280CD00CE0102273E796
:102460004FF4804270E74021616584F83580012097
:10247000BDE8F09F6560216E20790860D4E91901FC
:1024800041606068401E072808D82046FEF724FAFD
:10249000E06E0560D4E91C01416002E0E566256755
:1024A00065670120656584F835000020E0E70000DD
:1024B00010000240400002405800024070000240FC
:1024C000100402403F8010FE0010005C08540258C7
:1024D0000F00FEFF2DE9F84F04008C464FF000007E
:1024E000009014D094F83400012812D094F835509C
:1024F0000120002184F83400012D0CD0C002606559
:102500000120009084F834100098BDE8F88F012075
:10251000FBE70220F9E78C4D0226206884F835603D
:10252000A8428A4D61658A4E8A4FDFF82C82DFF817
:102530002C92DFF82CA2DFF82CB226D0A84224D0AF
:10254000B04222D0B84220D040451ED048451CD0D1
:1025500050451AD0584518D08349884215D0824931
:102560001831884211D08049303188420DD07E49DF
:102570004831884209D07C496031884205D07A4987
:102580007831884201D078499031016821F0010109
:10259000016061462046FEF703FA6B4920688842D5
:1025A0002CD0A8422AD0B04228D0B84226D04045EC
:1025B00024D0484522D0504520D058451ED06A4AE4
:1025C00090421BD0684A1832904217D0664A303287
:1025D000904213D0644A483290420FD0624A60322F
:1025E00090420BD0604A7832904207D05E4A9032D7
:1025F000904203D05C4AA83290420CD1026822F08B
:102600001E0242F016020260206C88B12068026847
:1026100042F008020BE0026822F00E0242F00A02C9
:102620000260206C20B12068026842F0040202605F
:10263000206888424BD0A84249D0B04247D0B84227
:1026400045D0404543D0484541D050453FD05845FE
:102650003DD0454A90423AD0434A1832904236D053
:10266000414A3032904232D03F4A483290422ED0D6
:102670003D4A603290422AD03B4A7832904226D07E
:10268000394A9032904222D0374AA83290421ED026
:10269000364A90421BD0354A1432904217D0334A02
:1026A0002832904213D0314A3C3290420FD02F4A08
:1026B000503290420BD02D4A6432904207D02B4AC0
:1026C0007832904203D0294A8C3290420DD1206E4C
:1026D0000268D20303D5026842F480720260E06EA1
:1026E00018B1026842F4807202602068884226D0E5
:1026F000A84224D0B04222D0B84220D040451ED0BB
:1027000048451CD050451AD0584518D01649884223
:1027100015D015491831884211D0134930318842FB
:102720000DD011494831884209D00F4960318842A3
:1027300005D00D497831884201D00B4990310168AC
:1027400041F001010160DFE6100002402800024074
:1027500040000240580002407000024088000240E1
:10276000A0000240B8000240100402400854025881
:102770002DE9F04194B08D494C2204466846FDF79E
:102780003AFE64B18A4D2068A84202D100F58070FB
:10279000606094F898004FF0000820B108E0012034
:1027A00014B0BDE8F081204684F8998000F002F969
:1027B0002068816921F01001816100F0BBFA0327D4
:1027C000064604E000F0B6FA801B0A2811D82068FB
:1027D00080690007F6D42068816941F001018161B8
:1027E00000F0A8FA06460DE000F0A4FA801B0A28C3
:1027F00008D9D4F89C0040F00100C4F89C0084F88B
:102800009870CCE720688069C007EDD020688169A6
:1028100041F002018161207C01282068816937D064
:1028200041F040018161607C01282068816932D0DB
:1028300021F480418161A07C0128206881692DD02C
:1028400041F4805181612068A268816921F440715E
:10285000114381612068816921F0A40181612068B0
:10286000016921F010010161E068012819D010B35D
:1028700002281BD02068816941F0800181612068B5
:10288000016941F010010161E06803280ED012E0F7
:1028900021F04001C6E741F48041CBE721F48051AB
:1028A000D0E72068816941F0040103E02068816974
:1028B00041F020018161207E6FF0FF02D4E90773AF
:1028C000A68A1102400602EB0727A0F100703843E8
:1028D00027685B1E184301EB06463043F861A06889
:1028E000B0F5407F11D104F12800A68C6FF00F0CD9
:1028F00089C801EB0641401E02EB03221043226807
:102900000CEB071318430843D060206E30B12068E9
:10291000626ED0F8C0101143C0F8C010D4E917128D
:102920006846D14209D02168A36E51F8C82F50F8EB
:10293000233022F007021A430A60216C49B1216852
:10294000626C51F8BC3F50F8226023F0070232431A
:102950000A60A16C51B12168E36C51F8BC2F50F8AA
:10296000233022F0700242EA03120A60216D51B155
:102970002168626D51F8BC3F50F8220023F4E062F8
:1029800042EA002008602068A84204D1606881689B
:1029900021F003018160C4F894800121C4F89C8077
:1029A00084F898102046FEF70FF9F9E60C94000819
:1029B00000A000402DE9F04FB7B08146142130A8A7
:1029C000FDF732FDC0216846FDF72EFD444D02277C
:1029D000D9F800004FF08051424A0C3D3F4E4FF075
:1029E000010A3F4C9042DFF800B14FF003084FF06E
:1029F000090930D100201C914A13CDE90020684616
:102A000000F008FE08B1FEF7DCF83068401C3060CA
:102A1000012807D1206840F480702060206800F40D
:102A200080703590286840F002002860286830AA3D
:102A30004FF44073CDF8CC8000F0020030A9CDE90E
:102A4000349082E88804584600F052F8402000F0A4
:102A500077F980203DE0254A90423CD100201C912E
:102A60004FF40042CDE90020684600F0D3FD08B1E4
:102A7000FEF7A7F83068401C3060012807D12068B5
:102A800040F480702060206800F4807035902868E1
:102A900040F002002860286830AA2021CDF8CC80C0
:102AA00000F00200444682E88204CDE9349030A967
:102AB0004D465E46584600F01BF832AA00214020E1
:102AC00082E83200CDE9300730A9304600F010F836
:102AD000102000F035F937B0BDE8F08F5C0000241D
:102AE000EC44025800A000400004025800A400403A
:102AF0002DE9F84F03247D4D00234FF001094FF0DD
:102B0000B04B4FF00F0AE9E009FA03F73A4076D0EC
:102B10000E7906F00306012E01D0022E18D1D0F84E
:102B200008C04FEA430ECE6804FA0EF82CEA080CEF
:102B300006FA0EF646EA0C068660D0F804C00E7956
:102B40002CEA070CC6F300169E4046EA0C064660C7
:102B50000E79F643B6070BD0C6684FEA43088F6874
:102B600004FA08FC26EA0C0607FA08F73743C760A0
:102B70000E7906F00306022E12D1DE080F694FEA25
:102B8000437C00EB8606B646366A4FEADC6C0AFAEE
:102B90000CF807FA0CF726EA08063743CEF820703F
:102BA0000F7906684FEA430807F0030704FA08FCA8
:102BB00007FA08F726EA0C06374307604E6816F452
:102BC000403F1CD04A4E376847F0020737603668EE
:102BD0009F0706F00206009623F0030606F1B046B2
:102BE000B6463F0FD6F80864DFF808810AFA07FCFA
:102BF000404526EA0C0603D14FF0000C41E06CE0A2
:102C0000DFF8F4C0604502D14FF0010C39E0DFF885
:102C1000ECC0604502D14FF0020C32E0DFF8E0C0BA
:102C2000604502D14FF0030C2BE0DFF8D8C06045BF
:102C300002D14FF0040C24E0DFF8CCC0604502D193
:102C40004FF0050C1DE0DFF8C4C0604502D14FF025
:102C5000060C16E0DFF8B8C0604502D14FF0070C53
:102C60000FE0DFF8B0C0604502D14FF0080C08E07B
:102C7000DFF8A4C0604502D14FF0090C01E04FF02D
:102C80000A0C0CFA07FC4CEA060CCEF808C44F6894
:102C9000DBF80060FF0226EA020600D516435F4615
:102CA000CBF80060D1F804C0DBF804605FEA8C2C3C
:102CB00026EA020600D516437E606E684F6826EA53
:102CC0000206BF0300D516436E602E684F6826EAE1
:102CD0000206FF0300D516432E605B1C0A6832FA19
:102CE00003F67FF411AFBDE8F88F000080000058B4
:102CF000F444025800000258000402580008025828
:102D0000000C025800100258001402580018025813
:102D1000001C025800200258002402580AB18161A8
:102D200070470904FBE7000001480068000C704789
:102D30000010005C014880687047000064000024B7
:102D4000074908B50A6842F002020A60096801F002
:102D50000201009103490A6802430A6008BD0000AD
:102D6000F44402580404005802488168027811446F
:102D70008160704764000024032010B500F0B0F8B3
:102D800001F0C0FA0F4A104914681368C4F3032213
:102D900003F00F038A5CC95C02F01F0201F01F01FF
:102DA000D0400A4A20FA01F11160094908600F2059
:102DB00000F010F808B1012010BD00F051F800201B
:102DC00010BD0000184402588094000874000024CC
:102DD0007000002410B5102804468AB02CD20022BE
:102DE0000146362000F05CF8362000F04BF817481A
:102DF00004601748016841F010010160006809A9EA
:102E000000F010000890684601F008FA0598B0B18B
:102E100001F054FA40000F4900220F4CB0FBF1F1D1
:102E20000E4840F2E7330460C0E90332491EC0E9AE
:102E3000011202F0CEF828B101200AB010BD01F055
:102E40003DFAE8E7054802F0F7F8F6E768000024E5
:102E5000E844025840420F0000100040541701247B
:102E6000074882B0016841F0020101600068002259
:102E70000F2100F002000090901E02B000F010B888
:102E8000F4440258002809DB410900F01F028900C0
:102E9000012001F1E0219040C1F8000170470000DD
:102EA0000E4BF0B41B680D46C3F30223C3F10706B3
:102EB000042E00D90426191D072901D2002300E0A1
:102EC000DB1E012404FA06F19C40491E2940641EC1
:102ED000994014402143F0BC04F076B90CED00E0B9
:102EE000064900F0070210B54FF6FF040868044BCE
:102EF000204040EA02201843086010BD0CED00E0BD
:102F00000000FA05134970B50A68D243520705D587
:102F1000096801F00701814213D118E00A6822F024
:102F2000070202430A60FFF705FF0A4D4FF47A7665
:102F30000446083D07E000BFFFF7FCFE001BB0425F
:102F400001D9012070BD2868C0438004F4D400205A
:102F500070BD00000C48025810B501F08DF905490C
:102F60000968054AC1F30211515C01F01F01C84014
:102F700010BD000020440258809400084A4930B532
:102F8000494C0B1D0A680C3409681D68246802F05E
:102F9000030305F00102C1F30511C4F3CC040029B9
:102FA00014FB02F200EE102AF8EE400A76D0414AF5
:102FB0009FED3E1ADFED3E1AB7EE000A23B1012B5A
:102FC0005AD0022B18D15CE0374C283C23689B0672
:102FD00012D5394B246801EE901A1168C4F3C1046C
:102FE000F8EE612AE34001EE903AC1F30801F8EEF1
:102FF000611A81EEA22A07E002EE101A1168F8EEBB
:10300000422A81EEA22A45E001EE901A1168F8EEFC
:10301000611A40EE811A71EE800A62EE200AC1F355
:10302000462101EE101AB8EE411A31EE001AC0EE38
:10303000811ABCEEE11A80ED001A1168C1F3064155
:1030400001EE101AB8EE411A31EE001AC0EE811AE4
:10305000BCEEE11A80ED011A1168C1F3066101EEC0
:10306000101AB8EE411A31EE000A80EE801ABCEE5A
:10307000C10A80ED020A30BD01EE901ADFED0F2A81
:1030800003E001EE901ADFED0E2A1168F8EE611AE6
:1030900082EEA12AC1F30801B6E7FFE70021016033
:1030A0004160816030BD00002844025800000039B2
:1030B0000024744C304402580090D0030024744A19
:1030C0000024F44A494930B5484C0B1D0A681434B1
:1030D00009681D68246802F00303C5F30012C1F3F8
:1030E0000531C4F3CC04002914FB02F200EE102ACF
:1030F000F8EE400A75D03F4A9FED3D1AB7EE000A40
:103100006BB1DFED3D1A012B01D0022B64D002EE32
:10311000101A1168F8EE422A81EEA22A21E0334CFF
:10312000283C23689B0612D5344B246801EE901A84
:103130001168C4F3C104F8EE612AE34001EE903A4D
:10314000C1F30801F8EE611A81EEA22A0BE001EE4C
:10315000901ADFED2B2A00BFF8EE611A116882EE9B
:10316000A12AC1F3080101EE901A1168F8EE611A64
:1031700040EE811A71EE800A62EE200AC1F3462108
:1031800001EE101AB8EE411A31EE001AC0EE811AA3
:10319000BCEEE11A80ED001A1168C1F3064101EEA0
:1031A000101AB8EE411A31EE001AC0EE811ABCEEC8
:1031B000E11A80ED011A1168C1F3066101EE101ADF
:1031C000B8EE411A31EE000A80EE801ABCEEC10A58
:1031D00080ED020A30BD04E001EE901ADFED092A0D
:1031E000BAE70021016041608160F3E7284402589A
:1031F00000000039384402580024744A0090D0037B
:103200000024744C0024F44A494930B5484C0B1D45
:103210000A681C3409681D68246802F00303C5F3BA
:103220000022C1F30551C4F3CC04002914FB02F2BF
:1032300000EE102AF8EE400A75D03F4A9FED3D1A85
:10324000B7EE000A6BB1DFED3D1A012B01D0022B66
:1032500064D002EE101A1168F8EE422A81EEA22A1A
:1032600021E0334C283C23689B0612D5344B24685C
:1032700001EE901A1168C4F3C104F8EE612AE3402C
:1032800001EE903AC1F30801F8EE611A81EEA22A2C
:103290000BE001EE901ADFED2B2A00BFF8EE611A69
:1032A000116882EEA12AC1F3080101EE901A11689B
:1032B000F8EE611A40EE811A71EE800A62EE200A81
:1032C000C1F3462101EE101AB8EE411A31EE001A90
:1032D000C0EE811ABCEEE11A80ED001A1168C1F34C
:1032E000064101EE101AB8EE411A31EE001AC0EE96
:1032F000811ABCEEE11A80ED011A1168C1F3066172
:1033000001EE101AB8EE411A31EE000A80EE801A72
:10331000BCEEC10A80ED020A30BD04E001EE901A55
:10332000DFED092ABAE70021016041608160F3E71F
:103330002844025800000039404402580024744ACE
:103340000090D0030024744C0024F44A2DE9F04F7F
:10335000AD4A0546DFF8ACA280F48070DFF8AC928D
:1033600089B01311AA4C0843AAF104064FF0805CFF
:103370004FF000584FEAE2002CD085F400770F435D
:1033800057D0DFF880B285F480670F430BF1080B4C
:1033900061D085F400670F4374D085F480570F43E4
:1033A0006ED085F400570F434FF480394FF4003E40
:1033B00067D085F400270F4371D085F480370F4321
:1033C0006ED085F480460E436BD085F400420A43EC
:1033D00068D02AE0DAF8001001F00701052924D2AC
:1033E000DFE801F075BC7D25B10006A8FFF7C6FD3A
:1033F000079809B0BDE8F08F6846FFF763FE0098B4
:10340000F7E703A8FFF700FF0398F2E72068C0F38F
:10341000C10022FA00F0ECE72268D20571D56145BF
:103420006FD11846E5E74145E3D00020E1E7484683
:10343000DFE7DAF8001001F4E07180294FD004DCF6
:10344000002944D04029F0D188E0C029EFD0B1F55F
:10345000807FEAD177E0DBF8001001F46001B1F57C
:10346000800F3CD004DC91B3B1F5001FDDD175E0D5
:10347000B1F5C00FDBD0B1F5000FD6D163E001E0AC
:1034800018E030E0DBF8001001F0E061B1F1007FFE
:1034900025D008DCD9B1B1F1807FC6D15EE049E02A
:1034A0006CE079E09CE0B1F1407FC0D0B1F1806F79
:1034B000BBD148E0DAF8001001F4E041B1F5005F5B
:1034C0000DD005DC19B1B1F5805FAED146E094E0D6
:1034D000B1F5405FABD0B1F5804FA6D133E02068A5
:1034E0008000A2D58DE7DAF8001001F4E021B1F5F3
:1034F000403F6CD006DC61B149457AD0714594D12A
:1035000057E037E0B1F5802F65D0B1F5A02F8CD111
:103510000CE000F0D3FE6CE76846FFF7D3FD01989E
:1035200067E703A8FFF770FE049862E72168890344
:10353000F1D47AE7DBF8001011F440310ED04945A0
:1035400010D07145F5D13168256801F040516D0703
:103550007FF562AF00297FF45FAF57E72068000175
:10356000E7D549E720688000E3D503A8FFF74CFEC4
:1035700005983EE722689203DBD554E7306810F4E3
:1035800080303AD04845D4D120680001D1D5684672
:10359000FFF798FD02982CE7DBF8001001F0E041FE
:1035A000B1F1405F13D008DC71B1614521D04145D4
:1035B000BFD120688000B4D437E7B1F1804F0AD082
:1035C000B1F1A04FB2D030E7FFF7C6FC11E7206899
:1035D0004007AED51AE72068C005AAD521E708E064
:1035E000DAF8001011F04051A0D0614505D04145F6
:1035F0009FD1206800018FD417E72068800198D5FB
:10360000F3E60000504402580090D0030080BB0055
:10361000004402582DE9FE4F0546DFF8E48350F8D8
:10362000081B0024F64FC943019005F128002646E7
:1036300008F12408009008011DD4A86E50B1B0F51F
:10364000801F0CD0B0F5001F0ED0B0F5401F1ED06B
:1036500001240FE0386840F40030386017E001982A
:10366000022102F0F7FE03E00098022102F082FF3F
:1036700004000CD026462888C043C00523D4A86D7A
:1036800005281ED2DFE800F00C11161B1B00AA6EE5
:10369000D8F8001021F440111143C8F80010EAE7EF
:1036A000386840F40030386009E00198002102F0E9
:1036B000D1FE03E00098002102F05CFF044674B1E3
:1036C00000E0012426462888C043800528D4E86D00
:1036D00080281ED00CDC90B140280ED114E0AA6DD9
:1036E000D8F8001021F007011143C8F80010EAE7EC
:1036F000C02813D0B0F5807F10D001240FE03868C7
:1037000040F40030386009E00198002102F0A2FE88
:1037100003E00098002102F02DFF04469CB12646EC
:103720002888DFF8DC92C04309F12C0940052CD42D
:10373000D5F8A800B0F5800F20D00DDCA0B1B0F511
:10374000001F0FD115E0EA6DD8F8001021F4E071E8
:103750001143C8F80010E3E7B0F5C00F13D0B0F57F
:10376000000F10D001240FE0386840F400303860BA
:1037700009E00198002102F06DFE03E000980021AD
:1037800002F0F8FE04467CB126462888C0430005B6
:103790002DD4D5F8AC00B0F1007F21D00EDCA8B15B
:1037A000B0F1807F10D116E0D5F8A820D9F800102C
:1037B00021F460011143C9F80010E6E7B0F1407F41
:1037C00013D0B0F1806F10D001240FE0386840F4BE
:1037D0000030386009E00198002102F03BFE03E070
:1037E0000098002102F0C6FE044674B126462868FF
:1037F000C04380011FD4E86CD8B110280FD0202816
:1038000012D0302815D0012414E0D5F8AC20D9F816
:10381000001021F0E0611143C9F80010E7E73868B3
:1038200040F40030386004E00198022102F012FEFA
:10383000044674B126462888C043C0042BD4286EA1
:10384000B0F5005F20D00DDCA0B1B0F5805F0FD1E6
:1038500015E06B48EA6C2030016821F0300111431B
:103860000160E8E7B0F5405F13D0B0F5804F10D0AD
:1038700001240FE0386840F40030386009E0019816
:10388000002102F0E7FD03E00098002102F072FE43
:1038900004468CB126462888C043800429D4686E2B
:1038A000B0F5403F23D010DC08B3B0F5803F14D012
:1038B000B0F5003F0FD115E02A6ED8F8001021F4C2
:1038C000E0411143C8F80010E5E7B0F5802F0ED0B5
:1038D000B0F5A02F0BD001240AE00198012102F0DD
:1038E000B9FD03E00098012102F044FE044694B1C2
:1038F00026462888C04340042AD4D5F8B000B0F149
:10390000405F23D010DC08B3B0F1805F14D0B0F179
:10391000005F0FD115E06A6ED8F8001021F4E021A5
:103920001143C8F80010E4E7B0F1804F0ED0B0F1B9
:10393000A04F0BD001240AE00198012102F08AFD7A
:1039400003E00098012102F015FE044674B12646FA
:103950002888C04300041FD4286FD8B1B0F1805F1D
:103960000ED0B0F1005F10D0012414E0D5F8B020E3
:10397000D9F8001021F0E0411143C9F80010E7E741
:10398000386840F40030386004E00198012102F00A
:1039900061FD044674B126462868C043C0011ED4A8
:1039A000A86CD0B101280ED0022811D0032814D061
:1039B000012413E02A6FD8F8001021F04051114380
:1039C000C8F80010E8E7386840F40030386004E0D8
:1039D0000198022102F03EFD0446ACB1264628685B
:1039E000DFF81CB0C043ABF11C0B400252D40548B9
:1039F000016841F480710160FFF79CF9824611E093
:103A00002C44025800480258FA48AA6C016821F078
:103A1000030111430160E2E7FFF78CF9A0EB0A0014
:103A2000642835D8F4480068C005F5D58CBBDFF8AC
:103A3000C4A3B5F8B4100AF1240ADAF8000001F4BE
:103A4000407100F44070884211D0DAF80010DAF8C2
:103A5000002021F4407142F48032CAF80020DAF8E4
:103A6000002022F48032CAF80020CAF80010D5F8ED
:103A7000B400B0F5807F1AD1FFF75CF9029012E034
:103A8000FFF758F90299411A41F2883081420AD968
:103A9000032426462878DFF85CA3C0430AF1080A0D
:103AA000C00721D03CE0DAF800008007E8D5D5F85F
:103AB000B410C1F30120032858460DD0016821F449
:103AC0007C510160B5F8B420DAF80010C2F30B02A3
:103AD0001143CAF80010DDE7C84A036802EA111270
:103AE00023F47C511143ECE7E86F182816D005DC6D
:103AF000A0B1082808D0102804D10AE020280DD051
:103B000028280BD001240AE00198012102F0A2FC30
:103B100003E00098012102F02DFD044664B1264621
:103B20002878C04380071ED4A86F062819D2DFE882
:103B300000F0160C11161616EA6FDAF8001021F0D4
:103B400038011143CAF80010EAE70198012102F098
:103B500081FC03E00098012102F00CFD04467CB1D9
:103B600000E0012426462878C04340071FD4D5F83A
:103B70009400062819D2DFE800F0160C111616166C
:103B8000AA6FDAF8001021F007011143CAF80010FB
:103B9000E9E70198012102F05DFC03E000980121B2
:103BA00002F0E8FC0446A4B100E00124264628788F
:103BB000C04380062BD4D5F89000B0F1405F24D0EC
:103BC00011DC10B3B0F1805F15D0B0F1005F10D1FF
:103BD00016E0D5F89420D9F8001021F00701114320
:103BE000C9F80010E3E7B0F1804F0ED0B0F1A04F5C
:103BF0000BD001240AE00198002102F02BFC03E025
:103C00000098022102F0B6FC044694B126462878BA
:103C1000C04340062BD4D5F89C00B0F5406F24D0AB
:103C200011DC10B3B0F5806F15D0B0F5006F10D176
:103C300016E0D5F89020DAF8001021F0E0411143A9
:103C4000CAF80010E3E7B0F5805F0ED0B0F5A05FD2
:103C50000BD001240AE00198002102F0FBFB03E0F5
:103C60000098022102F086FC044694B1264628788A
:103C7000C04300062BD4D5F8A000B0F5C04F24D027
:103C800011DC10B3B0F5005F15D0B0F5804F10D146
:103C900016E0D5F89C20D9F8001021F4E05111432A
:103CA000C9F80010E3E7B0F5004F0ED0B0F5204F93
:103CB0000BD001240AE00198002102F0CBFB03E0C5
:103CC0000098022102F056FC044654B1264628789A
:103CD000C04300071ED4D5F88400B0F5805F0AD039
:103CE0000FE0D5F8A020D9F8001021F4604111436D
:103CF000C9F80010EBE70098022102F03BFC00B18C
:103D00000126D5F88420DAF8001021F4405111433F
:103D1000CAF800102878C043C00613D4D5F898001C
:103D2000B0F5807F05D10098022102F023FC00B19C
:103D30000126D5F89820D9F8001021F440711143DC
:103D4000C9F800102868C043000316D4D5F8A400B1
:103D500038B1B0F5803F09D0B0F5003F0BD0012459
:103D60000AE00198002102F075FB03E000980221AF
:103D700002F000FC04468CB126462868C04340038C
:103D800022D4D5F88800B0F5801F11D0B0F5001FFF
:103D900013D0B0F5401F15D0012414E0D5F8A420AD
:103DA000D9F8001021F440311143C9F80010E4E7BC
:103DB000386840F40030386004E00098012102F0D7
:103DC000D9FB04465CB126462868C043C00323D40F
:103DD000286DA8B1B0F5803F17D001241BE0D5F8BD
:103DE0008820DAF8001021F440111143CAF80010BD
:103DF000EAE700004C44025800480258CFFFFF0099
:103E0000386840F40030386004E00198022102F084
:103E100021FB0446E4B126462868C043800005D44F
:103E20000098022102F0A6FB00B101262868C043D9
:103E300080031BD4D5F88000B0B1B0F5807F0FD0DF
:103E4000B0F5007F10D0B0F5407F0DD001240CE01C
:103E50005A482A6D016821F4803111430160DBE783
:103E6000386840F400303860ECB326462868C04318
:103E7000C00207D46A6FD8F8001021F00041114346
:103E8000C8F800102868C043C00008D4D5F8B8208E
:103E9000DBF8001021F480411143CBF800102868B2
:103EA000C043800207D4EA6ED8F8001021F0807178
:103EB0001143C8F800102868C04340000CD4DBF858
:103EC000001021F40041CBF80010DBF80010D5F809
:103ED000BC201143CBF800102868C04308D43748F1
:103EE0006A6D016800E018E021F040511143016063
:103EF0002868C043000208D4D5F88C20DAF80010F6
:103F000021F440011143CAF8001028790024C0436D
:103F100000F0010020430AD00FE0D5F88020DAF845
:103F2000001021F440711143CAF800109EE7019877
:103F3000002102F08FFA00B106462879C04300F054
:103F40000200204305D10198012102F083FA00B15B
:103F500006462879C04300F00400204305D10198AB
:103F6000022102F077FA00B106462879C04300F03A
:103F70000800204305D10098002102F0FBFA00B1AF
:103F800006462879C04300F01000204305D1009870
:103F9000012102F0EFFA00B106462879C04300F093
:103FA0002000044304D10098022102F0E3FA00B992
:103FB00016B10120BDE8FE8F0020FBE74C440258FB
:103FC0002DE9F05F04000F467ED0DFF83882D8F884
:103FD000000000F00F00B8420CD2D8F8001021F019
:103FE0000F013943C8F80010D8F8000000F00F00A6
:103FF000B84269D12078844D40070AD520692968E4
:1040000001F07001884204D9296821F07001014350
:10401000296020787C4E361D00070AD5606931681A
:1040200001F07001884204D9316821F07001014328
:1040300031602078C0060AD5A069316801F4E061DA
:10404000884204D9316821F4E0610143316020786D
:10405000DFF8B4B180060BF1080B0CD5E1695846C6
:10406000DBF8002002F07002914204D9026822F0CD
:1040700070020A430260207880070AD5E068296848
:1040800001F00F01884204D9296821F00F01014392
:1040900029602078C0073ED05B49A268286818399B
:1040A00020F47060104328606068022818D003284C
:1040B00019D00968012819D0490700294ADADFF820
:1040C00048A1AAF1080A00E044E0DAF8002022F052
:1040D00007020243CAF80020FEF72CFE814612E0D8
:1040E00009688903E9E709688901E6E7C905E4E7A2
:1040F000FEF720FEA0EB090141F28830814202D98F
:104100000320BDE8F09F6168DAF8000000F0380095
:10411000B0EBC10FECD1207880070AD5E0682968A0
:1041200001F00F01884204D2296821F00F010143F8
:104130002960D8F80010404601F00F01B9420BD9B0
:10414000016821F00F0139430160006800F00F00A1
:10415000B84201D00120D4E7207840070AD5206971
:10416000296801F07001884204D2296821F07001A9
:1041700001432960207800070AD56069316801F0A1
:104180007001884204D2316821F07001014331602E
:104190002078C0060AD5A069316801F4E061884240
:1041A00004D2316821F4E061014331602078800657
:1041B0000CD5E1695846DBF8002002F0700291420C
:1041C00004D2026822F070020A43026000F09AF8FA
:1041D0000E492A682B68C2F3032203F00F038A5C9E
:1041E000C95C02F01F0201F01F01D040084A20FA0A
:1041F00001F111600749086007480068BDE8F05FF9
:10420000FEF7E8BD002000521844025880940008D0
:1042100074000024700000246800002470B5144C61
:104220003F220260124A24680832131D114D04F027
:104230000704446016681C1D06F4706686601668E4
:1042400006F00F06C660126802F0700202611A687A
:1042500002F0700242611A6802F4E0628261226830
:1042600002F07002C261286800F00F00086070BDA3
:10427000104402580020005230B500F043F80B4AB9
:104280000B490C4B15681468C5F3032204F00F04A6
:104290008A5C095D02F01F0201F01F01D040064A4E
:1042A00020FA01F119601060084630BD1844025828
:1042B00080940008740000247000002400B5FFF70B
:1042C000DBFF05490968054AC1F30211515C01F0A1
:1042D0001F01C84000BD00001C4402588094000823
:1042E00000B5FFF7C9FF05490968054AC1F3022176
:1042F000515C01F01F01C84000BD00001C44025881
:1043000080940008454970B545480968434B103B07
:1043100011F0380208D00111082A03D0102A0BD05E
:10432000182A0BD0084670BD19688906FBD5196894
:10433000C1F3C101C84070BD3A4870BD3749374D1F
:1043400018310C1D24350A68096826682D6802F0AA
:10435000030406F00102C1F30511C5F3CC0515FBFA
:1043600002F200EE102AB8EE400AE9B32F4ADFED60
:104370002E0AB7EE001A6CB1DFED2D1A012C01D018
:10438000022C43D002EE101A1068F8EE422A81EE99
:10439000A22A1EE01C68A40611D51B6801EE901A23
:1043A0001168C3F3C103F8EE612AD84001EE900A08
:1043B000C1F30800F8EE611A81EEA22A0BE001EECB
:1043C000901ADFED1C2A00BFF8EE611A106882EE29
:1043D000A12AC0F3080001EE900AF8EE611A40EE3F
:1043E000201A31EE810A00E015E022EE000A106882
:1043F000C0F34620401C00EE900AF8EE600A80EE02
:10440000201ABCEEC10A10EE100A70BD01EE901A1F
:10441000DFED092AD8E7002070BD000010440258E3
:104420000090D00300127A00000000393044025896
:104430000024744A0024744C0024F44A2DE9F05FEF
:1044400004007DD0FF4F2078FE4D1837DFF8F4933D
:10445000103DC00748D0D9F80000396800F0380096
:10446000102815D0182803D101F0030002280FD01E
:104470006068B0F5803F12D010B1B0F5A02F18D011
:10448000286820F480302860286820F4802009E023
:104490002868800328D560680028D2D024E02868E6
:1044A00040F480302860606888B1FEF743FC06461F
:1044B00009E0286840F480202860F0E7FEF73AFC25
:1044C000801B64286FD828688003F7D50CE0FEF7BE
:1044D00031FC064605E000BFFEF72CFC801B64287B
:1044E000F0D828688003F7D4207841F20308D54E2D
:1044F0000C3E800769D5D9F80000396810F0380003
:104500000ED0182801D188070AD0E06890B3296836
:1045100021F0190101432960FEF70CFC824631E0CD
:104520002868400702D5E06800288AD0E16828683A
:1045300020F0190008432860FEF7FCFB824607E0E4
:10454000DFE000BFFEF7F6FBA0EB0A000228B9D8B7
:1045500028684007F6D500BFFEF7E6FB40451BD8AC
:104560002069402812D0316821F47C3141EA0030C2
:1045700030602AE018E000BFFEF7DCFBA0EB0A0089
:1045800002289FD828684007F6D5E5E7306820F470
:104590007C3040F40030EBE7207C316821F0FE41B4
:1045A00041EA0060E4E70DE1286820F0010028609E
:1045B000FEF7C0FB824605E0FEF7BCFBA0EB0A005D
:1045C00002288DD828684007F6D42078C0065DD52B
:1045D000D9F80000DFF86CB2396800F03800ABF1B0
:1045E000040B082810D0182803D101F0030001287B
:1045F0000AD0E0690028286838D040F080002860A0
:10460000FEF798FB824623E02868C00523D5E069C1
:10461000802876D11FE0206A202821D0316821F03F
:10462000F84141EA8060306030E000BF94F820102B
:10463000DBF8002022F07C5242EA0161CBF8001046
:1046400024E000BFFEF776FBA0EB0A00022898D812
:104650002868C005F6D5FEF767FB4045E6D8DAE7DF
:10466000306820F0F84040F08040DCE720F0800027
:104670002860FEF75FFB064605E000BFFEF75AFB29
:10468000801B02289DD82868C005F7D42078000731
:1046900029D56C486169643000298046016811D0D1
:1046A00041F001010160FEF745FB064605E000BF51
:1046B000FEF740FB801B0228C9D8D8F8000080070D
:1046C000F6D510E021F001010160FEF733FB06464C
:1046D00005E000BFFEF72EFB801B022872D8D8F839
:1046E00000008007F6D42078800623D5A069002832
:1046F000286810D040F480502860FEF71BFB064667
:1047000005E036E1FEF716FB801B02285AD8286820
:104710008004F7D50EE020F480502860FEF70AFBF5
:10472000064604E0FEF706FB801B02284AD82868EC
:104730008004F7D4207840074FD5DFF80C81D8F8F3
:10474000001041F48071C8F80010FEF7F3FA064635
:1047500005E000BFFEF7EEFA801B642832D8D8F8D7
:104760000000C005F6D5374EA068603601280AD093
:1047700008B1052813D0306820F00100306030689F
:1047800020F0040002E0306840F001003060A068D2
:1047900041F2883A90B1FEF7CDFA80460AE03068DF
:1047A00040F004003060EEE7FEF7C4FAA0EB080129
:1047B000514507D830688007F6D50EE0FEF7BAFA03
:1047C000804607E084E000BFFEF7B4FAA0EB0801E2
:1047D00051457DD830688007F6D4606AB0B3DFF801
:1047E0006480D9F8001008F120084FF6F87B08F132
:1047F0000409C1F3C2010329A8F1040A69D00228FF
:10480000286820F08070286003D0FEF793FA0446F1
:1048100084E0FEF78FFA064605E000BFFEF78AFA4D
:10482000801B022877D828688001F7D4E26A40F21A
:10483000F331386854F8283F884340EA021018439F
:10484000386004E01044025800480258B5E0217B6B
:10485000434622894FF4FE0C208A4FF0FE4749025E
:10486000267D521E401EA1F50071C2F308088AB2CF
:10487000761E0CEA004042EA08020243504607EA6C
:1048800006610A431A60DAF8002022F00102CAF831
:104890000020D9F80020266A22EA0B0242EAC6026A
:1048A000C9F80020DAF80010A26921F00C011143C8
:1048B000CAF800100168E26921F0020111430160A9
:1048C000016841F480310160016841F4003101E088
:1048D00021E027E00160016841F480210160016866
:1048E00041F001010160286840F080702860FEF707
:1048F00021FA044605E000BFFEF71CFA001B02285F
:1049000009D828688001F7D557E000BFFEF712FAF2
:10491000001B022802D90320BDE8F09F286880010F
:10492000F4D44AE039680128D8F8000021D0A26AFE
:1049300001F0030393421CD1E26AC1F305118A42DC
:1049400017D1216BC0F30802491E8A4211D1616B55
:10495000C0F34622491E91420BD1A16BC0F306421F
:10496000491E914205D1E16BC0F30660491E8142A8
:1049700001D00120D0E7A16C4E46D9F80000C0F369
:10498000CC00814219D0DAF80000554620F0010031
:10499000CAF80000FEF7CEF94FEA0007FEF7CAF9A1
:1049A000B842FBD0A26C306820EA0B0040EAC2009B
:1049B0003060286840F0010028600020ACE77047B4
:1049C0002DE9F047044600680021036942698768C1
:1049D00094F8816000F130095FEA025C03EA0205A5
:1049E0000AD51A0708D5816941F400618161204622
:1049F00000F0E9FABDE8F08715F0600F08D168070C
:104A000006D5616F20468847216F204688470121DF
:104A100005F04100012805D1680703D4216F204625
:104A20008847012105F02200022806D1680704D436
:104A3000616F2046BDE8F04708470029DAD1280712
:104A40004FF001085BD52068816941F00801816160
:104A50002068816941F0100181612068816941F419
:104A6000006181612068016921F00801016120680D
:104A7000806810F4404F20D023E0E0680F2806D96A
:104A80002068616E006B0860606E001D0FE00728F3
:104A900006D9B9F80000616E0880606E801C06E0DF
:104AA0002068616E90F830000870606E401C60668F
:104AB000B4F86A00401EA4F86A00B4F86A0000283E
:104AC000DBD1204601F0F2FD84F88180D4F8840027
:104AD00018B12046FFF773FF8CE7052E07D0042E90
:104AE00009D0032E86D1204600F06EFA82E72046D8
:104AF00000F06BFA7EE7204600F064FA7AE715F4DE
:104B0000587FE9D068060AD5D4F8840040F0040044
:104B1000C4F884002068816941F040018161A805E2
:104B20000AD5D4F8840040F00100C4F8840020685D
:104B3000816941F400718161E8050AD5D4F88400E7
:104B400040F00800C4F884002068816941F4807155
:104B50008161A8060AD5D4F8840040F08000C4F82A
:104B600084002068816941F020018161D4F88400CB
:104B70000028B1D0206840F26B32C7F3813103685E
:104B8000032923F0010101602068016921EA020183
:104B9000016102D084F881809BE72068104D816814
:104BA00021F440418160E06F50B10565E06FFCF792
:104BB000F9FD28B1D4F8840040F04000C4F8840026
:104BC000A06F002888D00565A06FFCF7EBFD0028DA
:104BD0008CD0D4F8840040F04000C4F8840009E789
:104BE000696700082DE9F047040029D0594A4FF0C1
:104BF00000092068584B594D9042C4F8289006D0BF
:104C0000984204D0A84202D0E1680F2918D8E16880
:104C10004FF0010AE76B0831C9080AEB57167143D8
:104C2000904205D0984203D0A84201D0082907D865
:104C3000904203D0984201D0A84204D1102902D951
:104C40000120BDE8F08794F8810020B9204684F85F
:104C5000809000F085F8022084F8810020680168C7
:104C600021F0010101602068A1698268B1F1806FC3
:104C700002F4F81110D16268B2F5800F01D01AB1B8
:104C80000AE0A26B22B107E0A26BB2F1805F03D110
:104C9000026842F4805202606068400209D5E06810
:104CA000072806D32068236D026822F480721A4315
:104CB00003E02068026822F480720260A66AE0695C
:104CC000E26B25683043E3680A4310431843A86049
:104CD000D4E90D02D4E90581636A25691843D4F843
:104CE00020C00A43266810432843A56DD4E9017209
:104CF000D4E9123140EA080040EA0C003843084386
:104D0000104318432843F060606868B920688168E0
:104D100021F4C05141F4006181602068816821F470
:104D2000C06141F4806181602068016D21F0010162
:104D300001656068400206D52068626DC16821F097
:104D400000411143C160C4F8849084F881A0002020
:104D500077E700000030014000380040003C004090
:104D60002DE9F04FB7B00646142130A8FBF75CFBE5
:104D7000C0216846FBF758FB874C0225874A01276C
:104D80003068103CDFF810A2002190424FF0030879
:104D90004FF0050B64D100221991431489466846EF
:104DA000CDE90032FEF736FC08B1FBF70AFFDAF86E
:104DB000001041F40051CAF80010DAF8000000F4C5
:104DC00000503590206840F010002060206830AB23
:104DD0004FF4E04200F0100030A9CDE934B083E890
:104DE000A4016F48FDF784FE6E4F53226E494FF4C5
:104DF00080684C46384687E81600C7E90398C7F82C
:104E00001490C7F81890C7F81C90C7F82090C7F8FE
:104E10002490FDF77DF908B1FBF7D3FE614D4020EA
:104E2000F76754237835BE6305F108015E4A1832EE
:104E300081E811016C612846AC61EC612C626C6206
:104E4000C5E90023FDF764F908B1FBF7BAFEB567C1
:104E500000220521AE635420FEF722F8542098E08A
:104E6000524A90422AD1002219914014CDE9000201
:104E70006846FEF7CFFB08B1FBF7A3FEDAF8001097
:104E800041F48011CAF80010DAF8000000F4801034
:104E90003590206840F020002060206830AB4FF44F
:104EA000607200F0200030A9CDE934B083E8A4019D
:104EB0003F48FDF71DFE37B0BDE8F08F3D4A9042F8
:104EC000F9D1002089464FF480422C91CDE9002091
:104ED0006846FEF79FFB08B1FBF773FE2E48001DE6
:104EE000016841F020010160006800F02000359069
:104EF000206840F001002060206830ABE02100F025
:104F0000010083E8A2010822CDE934202A4830A913
:104F1000FDF7EEFD234D40204FF480674C46F03501
:104F2000264905F108030C2283E89100C5F8149086
:104F30002846C5F81890C5F81C90C5F82090C5E91A
:104F40000012FDF7E5F808B1FBF73BFEDFF87080D3
:104F50000B221A49B56740461431AE6388E8160043
:104F6000C0E90347C8F81440C8F81840C8F81C4006
:104F7000C8F82040FDF7CCF808B1FBF722FEC6F8D0
:104F80007C8000220521C8F838605620FDF788FF94
:104F90005620FDF777FF8EE7F044025800340140B9
:104FA00000100258540C0124A0000240005001409F
:104FB0000014025800140058000002580854025807
:104FC000BC0D0124704770477047704770477047A9
:104FD000704710B5040003D094F83D0010B107E00D
:104FE000012010BD002084F83C00204600F022F88B
:104FF000022084F83D002068211D01F0C5FC01203D
:1050000084F8480084F83E0084F83F0084F84000AB
:1050100084F8410084F8420084F8430084F8440096
:1050200084F8450084F8460084F8470084F83D0081
:10503000002010BD7047000090F83D10012901D0FC
:1050400001207047174A022180F83D100168CB68A3
:1050500043F00103CB600068904214D0B0F1804F60
:1050600011D0114988420ED0104988420BD0104906
:10507000884208D00F49884205D00F49884202D0A3
:105080000E49884207D181680D4A1140062906D091
:10509000B1F5803F03D0016841F0010101600020BB
:1050A000704700000000014000040040000800407C
:1050B000000C004000040140001800400040014086
:1050C0000700010070472DE9F04104460068002701
:1050D000C6680569A90713D5B10711D5FA1E026183
:1050E00001212177206880698007204602D0FFF7E0
:1050F000E9FF04E000F08BF8204600F089F82777FC
:10510000680716D5700714D5226802206FF00401D5
:10511000116120772068806910F4407F204602D01A
:10512000FFF7D0FF04E000F072F8204600F070F8BE
:105130002777280715D5300713D5226804206FF08C
:105140000801116120772068C0698007204602D0DD
:10515000FFF7B8FF04E000F05AF8204600F058F8D6
:105160002777E80616D5F00614D5226808206FF0D8
:105170001001116120772068C06910F4407F20463B
:1051800002D0FFF79FFF04E000F041F8204600F056
:105190003FF82777E80708D0F00706D021686FF0BE
:1051A00001000861204600F035F8280601D4A80463
:1051B00008D5300606D521686FF4025008612046F4
:1051C000FFF705FFE80508D5300606D521686FF41E
:1051D000807008612046FFF7F9FE680608D5700662
:1051E00006D521686FF040000861204600F01CF8E9
:1051F000A8060AD5B00608D521686FF0200008611E
:105200002046BDE8F041FFF7E3BEBDE8F0817047FE
:105210007047000000680349884201D1FDF7A4BD32
:105220007047000000100040704730B590F88410BF
:10523000012918D0012280F884202421C0F8881088
:105240000022202401680B680D6823F0005325F02C
:1052500001050D60426601680B60C0F8884080F867
:105260008420104630BD022030BD0000026F022AAB
:1052700002D0026F002A09D10068054A904205D188
:10528000044801800448006802F0BEBA704700007C
:10529000001001406000002430000024704770B509
:1052A000044690F8840001281DD0012284F884204F
:1052B0002420C4F8880020680568026822F00102F2
:1052C00002602068826822F060620A4382602046A1
:1052D00001F0C8FB2268202100201560C4F8881066
:1052E00084F8840070BD022070BD70B5044690F84B
:1052F000840001281DD0012284F884202420C4F8D1
:10530000880020680568026822F0010202602068B7
:10531000826822F060420A438260204601F0A2FBCC
:105320002268202100201560C4F8881084F88400C9
:1053300070BD022070BD7047704770472DE9F04185
:1053400007680025044640F60F030226F86939680D
:10535000BA6818420AD183067ED501F0200302F014
:10536000805C53EA0C0377D0616F74E1CF4BDFF8B8
:1053700040C3134001EA0C0C53EA0C0C6CD05FEAFA
:10538000C07C0CD05FEAC15C09D54FF0010CC7F8B6
:1053900020C0D4F8907047F00107C4F890708707D8
:1053A00009D5D70707D027683E62D4F8906046F049
:1053B0000406C4F8906046070AD5D60708D02768C7
:1053C00004263E62D4F8906046F00206C4F890606D
:1053D00006070CD501F020061E4308D026680823D6
:1053E0003362D4F8903043F00803C4F890300305DA
:1053F0000BD54B0109D526684FF400633362D4F80E
:10540000903043F02003C4F89030D4F89030002B53
:105410003DD0800609D501F0200002F080510843FC
:1054200003D0616F09B1204688472168D4F8900005
:105430008968490602D410F0280F2AD0204601F0CE
:1054400043FC2068806840061ED52068083050E87C
:10545000001F21F0400100E021E040E80012002A96
:10546000F3D1D4F8800078B192490165D4F8800076
:10547000FCF798F900280AD0D4F88000016D00E00C
:105480002046BDE8F04108472046FFF756FFBDE83B
:10549000F0812046FFF751FFC4F89050F7E7D4F8A9
:1054A0006CC02023BCF1010F7ED15FEAC06C7BD5BC
:1054B0005FEAC16C78D510203862206880684006A9
:1054C00073D5D4F880107C4A0868904234D07A4A68
:1054D0001832904230D0784A303290422CD0764AFE
:1054E0004832904228D0744A6032904224D0724AA6
:1054F0007832904220D0704A903290421CD06E4A4E
:10550000A832904218D06D4A904215D06B4A18329A
:10551000904211D0694A303290420DD0674A4832E9
:10552000904209D0654A6032904205D0634A783291
:10553000904201D0614A903240680004000CA6D02D
:10554000B4F85C208242A2D9A4F85E00C869B0F524
:10555000807F2FD0216851E8000F20F4807041E84F
:105560000002002AF6D12068083050E8001F21F020
:10557000010140E80012002AF5D12068083050E807
:10558000001F21F0400140E80012002AF5D1C4F8C4
:105590008C30E566216851E8000F20F0100041E8EA
:1055A0000002002AF6D101E040E00BE0D4F88000D0
:1055B000FBF748FF2667B4F85C00B4F85E10401AA9
:1055C00081B22FE0B4F85C00B4F85E10B4F85E204D
:1055D000401A81B2002AB2D00029B0D0226852E825
:1055E000000F20F4907042E80007002FF6D1344FEE
:1055F000206800F1080050E8002F02EA070240E8A6
:10560000002CBCF1000FF3D1C4F88C30E56665675F
:10561000206850E8002F22F0100240E80023002B01
:10562000F6D126672046FFF721FE30E7C60209D5EE
:10563000560207D54FF4801038622046BDE8F0418D
:10564000FFF77ABE06060AD501F0800602F40002D2
:10565000164304D0A16F00297FF412AF17E742066A
:1056600011D54A060FD52046026852E8001F21F0E6
:10567000400142E80014002CF6D1C0F8883085675C
:1056800000F0A4FA03E7020206D54A0004D520463A
:10569000BDE8F041FFF74FBEC001C6D50029C4DA0E
:1056A0002046BDE8F041FFF7F9BD00000100001001
:1056B000200100041B6C000810000240100402408E
:1056C000FEFFFFEF10B5040003D0D4F8880010B13E
:1056D00007E0012010BD002084F88400204600F07F
:1056E00027F82420C4F888002068016821F001010F
:1056F0000160A06A10B1204601F0D6F9204601F001
:1057000025FB0128E6D02068416821F490414160E2
:105710002068816821F02A0181602068016841F0D9
:10572000010101602046BDE8104001F021BA0000EF
:105730002DE9F04FB7B00546142130A8FAF774FEF2
:10574000C0216846FAF770FEC54C0326C54A0227F9
:105750002868083CDFF80893002190424FF00108C8
:105760004FF4806B67D100221E9102238A4668465F
:10577000CDE90032FDF74EFF08B1FBF722FAD9F868
:10578000001041F40021C9F80010D9F8000000F41D
:1057900000203590206840F008002060206830AA82
:1057A000082100F0080082E8C001CDE93410AE48BD
:1057B00030A93396FDF79CF9AC4E3F21AC485446D6
:1057C0005F4686E81300C6E903ABC6F814A030466E
:1057D000C6F818A0C6F81CA0C6F820A0C6F824A0D9
:1057E000FCF796FC08B1FBF7ECF9DFF8808240216A
:1057F0009F4A08F17808C5F880604046B5631832C2
:10580000E0E8022180E89200C460046144618461A0
:105810004046C8F82440FCF77BFC08B1FBF7D1F9FF
:10582000C5F87C8000220521C8F838503420FDF7E7
:1058300037FB342071E08F4A4FF0070A904272D153
:1058400000221F91012389466846CDE90032FDF709
:10585000E1FE08B1FBF7B5F981480830016841F075
:1058600010010160006800F010003590206840F0E1
:1058700001002060206830AB4FF4C062339600F026
:10588000010030A9CDE934A083E884017A48FDF70E
:105890002FF9764E292176484C46F0365F46303057
:1058A00086E81300C6E9039BC6F814903046C6F894
:1058B0001890C6F81C90C6F82090C6F82490FCF703
:1058C00027FC08B1FBF77DF9DFF8B0814021C5F86E
:1058D00080602A2308F10809B563654A404689E8D3
:1058E0009200C8F814404832C8F81840C8F81C4064
:1058F000C8F82040C8E90023C8F82440FCF708FC99
:1059000008B1FBF75EF9C5F87C8000220521C8F8D4
:1059100038502520FDF7C4FA2520FDF7B3FA37B03B
:10592000BDE8F08FFFE7564A904228D100201E9133
:105930000222CDE900206846FDF76CFE08B1FBF7B6
:1059400040F9D9F8001041F40031C9F80010D9F835
:10595000000000F400303590206840F0080020601E
:10596000206830AB6022339600F0080030A9CDE902
:1059700034A083E884013C48FDF7BAF8CFE7414AF8
:105980009042CCD100201E900222CDE90020684632
:10599000FDF740FE08B1FBF714F9D9F8001041F407
:1059A0008021C9F80010D9F8000000F4802035905B
:1059B000206840F004002060206830A9CDE93286DC
:1059C00000F00400DFF8C080D9465446CDE934A089
:1059D000CDE930B74046FDF78BF84FF400603297C1
:1059E000CDE93007CDE9336430A94046FDF780F8B2
:1059F000224F00241E492D2278376031384687E82F
:105A00001600C7E903497C61BC61FC613C627C62B1
:105A1000FCF77EFB08B1FBF7D4F8184E4020C5F820
:105A200080702E23F036BD6306F10801104A7832EB
:105A300081E8110274613046B461F46134627462C9
:105A4000C6E90023FCF764FB08B1FBF7BAF8EE6780
:105A500000220521B5632720FDF722FA27205CE705
:105A6000E8440258004C0040000C02588414012401
:105A7000100002400010014000000258EC15012403
:105A80000044004000480040000802582DE9F84357
:105A90000446D0F88800984616460D46202802D0C5
:105AA0000220BDE8F883A5B19EB10021C4F8901092
:105AB0002120C4F888001834FDF73CF9814654F8D9
:105AC000100CA687E6872027183CB0F5805F02D02F
:105AD00003E00120E5E7206910B12E46002510E023
